{
  "contractName": "Tcr",
  "abi": [
    {
      "constant": true,
      "inputs": [],
      "name": "name",
      "outputs": [
        {
          "name": "",
          "type": "string"
        }
      ],
      "payable": false,
      "stateMutability": "view",
      "type": "function",
      "signature": "0x06fdde03"
    },
    {
      "constant": true,
      "inputs": [],
      "name": "minDeposit",
      "outputs": [
        {
          "name": "",
          "type": "uint256"
        }
      ],
      "payable": false,
      "stateMutability": "view",
      "type": "function",
      "signature": "0x41b3d185"
    },
    {
      "constant": true,
      "inputs": [],
      "name": "applyStageLen",
      "outputs": [
        {
          "name": "",
          "type": "uint256"
        }
      ],
      "payable": false,
      "stateMutability": "view",
      "type": "function",
      "signature": "0x7f073360"
    },
    {
      "constant": true,
      "inputs": [],
      "name": "pollNonce",
      "outputs": [
        {
          "name": "",
          "type": "uint256"
        }
      ],
      "payable": false,
      "stateMutability": "view",
      "type": "function",
      "signature": "0x97508f36"
    },
    {
      "constant": true,
      "inputs": [],
      "name": "commitStageLen",
      "outputs": [
        {
          "name": "",
          "type": "uint256"
        }
      ],
      "payable": false,
      "stateMutability": "view",
      "type": "function",
      "signature": "0xa63dd198"
    },
    {
      "constant": true,
      "inputs": [
        {
          "name": "",
          "type": "uint256"
        }
      ],
      "name": "listingNames",
      "outputs": [
        {
          "name": "",
          "type": "string"
        }
      ],
      "payable": false,
      "stateMutability": "view",
      "type": "function",
      "signature": "0xd7ab802d"
    },
    {
      "constant": true,
      "inputs": [
        {
          "name": "",
          "type": "uint256"
        }
      ],
      "name": "courseNames",
      "outputs": [
        {
          "name": "",
          "type": "string"
        }
      ],
      "payable": false,
      "stateMutability": "view",
      "type": "function",
      "signature": "0xe59fde15"
    },
    {
      "constant": true,
      "inputs": [
        {
          "name": "",
          "type": "uint256"
        }
      ],
      "name": "listingHashes",
      "outputs": [
        {
          "name": "",
          "type": "bytes32"
        }
      ],
      "payable": false,
      "stateMutability": "view",
      "type": "function",
      "signature": "0xe6415222"
    },
    {
      "constant": true,
      "inputs": [],
      "name": "token",
      "outputs": [
        {
          "name": "",
          "type": "address"
        }
      ],
      "payable": false,
      "stateMutability": "view",
      "type": "function",
      "signature": "0xfc0c546a"
    },
    {
      "inputs": [
        {
          "name": "_name",
          "type": "string"
        },
        {
          "name": "_token",
          "type": "address"
        },
        {
          "name": "_parameters",
          "type": "uint256[]"
        }
      ],
      "payable": false,
      "stateMutability": "nonpayable",
      "type": "constructor",
      "signature": "constructor"
    },
    {
      "anonymous": false,
      "inputs": [
        {
          "indexed": true,
          "name": "listingHash",
          "type": "bytes32"
        },
        {
          "indexed": false,
          "name": "deposit",
          "type": "uint256"
        },
        {
          "indexed": false,
          "name": "data",
          "type": "string"
        },
        {
          "indexed": true,
          "name": "applicant",
          "type": "address"
        }
      ],
      "name": "_Application",
      "type": "event",
      "signature": "0xe1cdd401be51ef2c8159945a96274b69ba482f2a5e2131700beeda434fd6d58f"
    },
    {
      "anonymous": false,
      "inputs": [
        {
          "indexed": true,
          "name": "listingHash",
          "type": "bytes32"
        },
        {
          "indexed": false,
          "name": "challengeId",
          "type": "uint256"
        },
        {
          "indexed": true,
          "name": "challenger",
          "type": "address"
        }
      ],
      "name": "_Challenge",
      "type": "event",
      "signature": "0xc911f55bb4170a166467bde15c8799c1d2bb96a79f6bd9bc5cd3a4f05f768f6f"
    },
    {
      "anonymous": false,
      "inputs": [
        {
          "indexed": true,
          "name": "listingHash",
          "type": "bytes32"
        },
        {
          "indexed": false,
          "name": "challengeId",
          "type": "uint256"
        },
        {
          "indexed": true,
          "name": "voter",
          "type": "address"
        }
      ],
      "name": "_Vote",
      "type": "event",
      "signature": "0x7a1c5ce18abad3692f6bdf85262d38c3ad4ee5cabf88020e5a0e4d6b841d8376"
    },
    {
      "anonymous": false,
      "inputs": [
        {
          "indexed": true,
          "name": "listingHash",
          "type": "bytes32"
        },
        {
          "indexed": false,
          "name": "challengeId",
          "type": "uint256"
        },
        {
          "indexed": true,
          "name": "resolver",
          "type": "address"
        }
      ],
      "name": "_ResolveChallenge",
      "type": "event",
      "signature": "0x779e2848f275ef7b62be066e59dc34b2b8d79758079849859de844a3d9b9fb0d"
    },
    {
      "anonymous": false,
      "inputs": [
        {
          "indexed": true,
          "name": "challengeId",
          "type": "uint256"
        },
        {
          "indexed": false,
          "name": "reward",
          "type": "uint256"
        },
        {
          "indexed": true,
          "name": "voter",
          "type": "address"
        }
      ],
      "name": "_RewardClaimed",
      "type": "event",
      "signature": "0x6f4c982acc31b0af2cf1dc1556f21c0325d893782d65e83c68a5534a33f59957"
    },
    {
      "constant": true,
      "inputs": [
        {
          "name": "_listingHash",
          "type": "bytes32"
        }
      ],
      "name": "isWhitelisted",
      "outputs": [
        {
          "name": "whitelisted",
          "type": "bool"
        }
      ],
      "payable": false,
      "stateMutability": "view",
      "type": "function",
      "signature": "0x01a5e3fe"
    },
    {
      "constant": true,
      "inputs": [
        {
          "name": "_listingHash",
          "type": "bytes32"
        }
      ],
      "name": "appWasMade",
      "outputs": [
        {
          "name": "exists",
          "type": "bool"
        }
      ],
      "payable": false,
      "stateMutability": "view",
      "type": "function",
      "signature": "0x8cf8151f"
    },
    {
      "constant": true,
      "inputs": [],
      "name": "getAllListings",
      "outputs": [
        {
          "name": "",
          "type": "string[]"
        },
        {
          "name": "",
          "type": "bytes32[]"
        },
        {
          "name": "",
          "type": "bool[]"
        }
      ],
      "payable": false,
      "stateMutability": "view",
      "type": "function",
      "signature": "0xae73ccec"
    },
    {
      "constant": true,
      "inputs": [],
      "name": "getAllCourses",
      "outputs": [
        {
          "name": "",
          "type": "string[]"
        },
        {
          "name": "",
          "type": "uint256[]"
        },
        {
          "name": "",
          "type": "uint256[]"
        }
      ],
      "payable": false,
      "stateMutability": "view",
      "type": "function",
      "signature": "0x04e48bd1"
    },
    {
      "constant": true,
      "inputs": [],
      "name": "getDetails",
      "outputs": [
        {
          "name": "",
          "type": "string"
        },
        {
          "name": "",
          "type": "address"
        },
        {
          "name": "",
          "type": "uint256"
        },
        {
          "name": "",
          "type": "uint256"
        },
        {
          "name": "",
          "type": "uint256"
        }
      ],
      "payable": false,
      "stateMutability": "view",
      "type": "function",
      "signature": "0xfbbf93a0"
    },
    {
      "constant": true,
      "inputs": [
        {
          "name": "_listingHash",
          "type": "bytes32"
        }
      ],
      "name": "getListingDetails",
      "outputs": [
        {
          "name": "",
          "type": "bool"
        },
        {
          "name": "",
          "type": "address"
        },
        {
          "name": "",
          "type": "uint256"
        },
        {
          "name": "",
          "type": "uint256"
        },
        {
          "name": "",
          "type": "string"
        }
      ],
      "payable": false,
      "stateMutability": "view",
      "type": "function",
      "signature": "0x7b356561"
    },
    {
      "constant": true,
      "inputs": [
        {
          "name": "_courseHash",
          "type": "string"
        }
      ],
      "name": "getCourseDetails",
      "outputs": [
        {
          "name": "",
          "type": "string"
        },
        {
          "name": "",
          "type": "uint256"
        },
        {
          "name": "",
          "type": "uint256"
        }
      ],
      "payable": false,
      "stateMutability": "view",
      "type": "function",
      "signature": "0x53f5c185"
    },
    {
      "constant": true,
      "inputs": [
        {
          "name": "_courseHash",
          "type": "string"
        }
      ],
      "name": "CourseExists",
      "outputs": [
        {
          "name": "",
          "type": "uint256"
        }
      ],
      "payable": false,
      "stateMutability": "view",
      "type": "function",
      "signature": "0x2ef116ff"
    },
    {
      "constant": false,
      "inputs": [
        {
          "name": "_amount",
          "type": "uint256"
        },
        {
          "name": "_roll",
          "type": "string"
        },
        {
          "name": "_course",
          "type": "string"
        },
        {
          "name": "_review",
          "type": "string"
        },
        {
          "name": "_rating",
          "type": "uint256"
        }
      ],
      "name": "propose",
      "outputs": [],
      "payable": false,
      "stateMutability": "nonpayable",
      "type": "function",
      "signature": "0x533e6d88"
    },
    {
      "constant": false,
      "inputs": [
        {
          "name": "_listingHash",
          "type": "bytes32"
        },
        {
          "name": "_amount",
          "type": "uint256"
        }
      ],
      "name": "challenge",
      "outputs": [
        {
          "name": "challengeId",
          "type": "uint256"
        }
      ],
      "payable": false,
      "stateMutability": "nonpayable",
      "type": "function",
      "signature": "0xe2083c18"
    },
    {
      "constant": false,
      "inputs": [
        {
          "name": "_listingHash",
          "type": "bytes32"
        },
        {
          "name": "_amount",
          "type": "uint256"
        },
        {
          "name": "_choice",
          "type": "bool"
        }
      ],
      "name": "vote",
      "outputs": [],
      "payable": false,
      "stateMutability": "nonpayable",
      "type": "function",
      "signature": "0x2c729fd1"
    },
    {
      "constant": true,
      "inputs": [
        {
          "name": "_listingHash",
          "type": "bytes32"
        }
      ],
      "name": "canBeWhitelisted",
      "outputs": [
        {
          "name": "",
          "type": "bool"
        }
      ],
      "payable": false,
      "stateMutability": "view",
      "type": "function",
      "signature": "0x691a38ab"
    },
    {
      "constant": false,
      "inputs": [
        {
          "name": "_listingHash",
          "type": "bytes32"
        }
      ],
      "name": "updateStatus",
      "outputs": [],
      "payable": false,
      "stateMutability": "nonpayable",
      "type": "function",
      "signature": "0x8a59eb56"
    },
    {
      "constant": false,
      "inputs": [
        {
          "name": "challengeId",
          "type": "uint256"
        }
      ],
      "name": "claimRewards",
      "outputs": [],
      "payable": false,
      "stateMutability": "nonpayable",
      "type": "function",
      "signature": "0x0962ef79"
    }
  ],
  "bytecode": "0x60806040523480156200001157600080fd5b506040516200556d3803806200556d83398101806040526200003791908101906200032f565b600073ffffffffffffffffffffffffffffffffffffffff168273ffffffffffffffffffffffffffffffffffffffff161415620000aa576040517f08c379a0000000000000000000000000000000000000000000000000000000008152600401620000a1906200041f565b60405180910390fd5b81600760006101000a81548173ffffffffffffffffffffffffffffffffffffffff021916908373ffffffffffffffffffffffffffffffffffffffff16021790555082600890805190602001906200010392919062000169565b50806000815181106200011257fe5b6020026020010151600981905550806001815181106200012e57fe5b6020026020010151600a81905550806002815181106200014a57fe5b6020026020010151600b819055506000600c819055505050506200057e565b828054600181600116156101000203166002900490600052602060002090601f016020900481019282601f10620001ac57805160ff1916838001178555620001dd565b82800160010185558215620001dd579182015b82811115620001dc578251825591602001919060010190620001bf565b5b509050620001ec9190620001f0565b5090565b6200021591905b8082111562000211576000816000905550600101620001f7565b5090565b90565b60008151905062000229816200054a565b92915050565b600082601f8301126200024157600080fd5b81516200025862000252826200046f565b62000441565b915081818352602084019350602081019050838560208402820111156200027e57600080fd5b60005b83811015620002b2578162000297888262000318565b84526020840193506020830192505060018101905062000281565b5050505092915050565b600082601f830112620002ce57600080fd5b8151620002e5620002df8262000498565b62000441565b915080825260208301602083018583830111156200030257600080fd5b6200030f83828462000514565b50505092915050565b600081519050620003298162000564565b92915050565b6000806000606084860312156200034557600080fd5b600084015167ffffffffffffffff8111156200036057600080fd5b6200036e86828701620002bc565b9350506020620003818682870162000218565b925050604084015167ffffffffffffffff8111156200039f57600080fd5b620003ad868287016200022f565b9150509250925092565b6000620003c6602683620004c5565b91507f546f6b656e20616464726573732073686f756c64206e6f74206265203020616460008301527f64726573732e00000000000000000000000000000000000000000000000000006020830152604082019050919050565b600060208201905081810360008301526200043a81620003b7565b9050919050565b6000604051905081810181811067ffffffffffffffff821117156200046557600080fd5b8060405250919050565b600067ffffffffffffffff8211156200048757600080fd5b602082029050602081019050919050565b600067ffffffffffffffff821115620004b057600080fd5b601f19601f8301169050602081019050919050565b600082825260208201905092915050565b6000620004e382620004ea565b9050919050565b600073ffffffffffffffffffffffffffffffffffffffff82169050919050565b6000819050919050565b60005b838110156200053457808201518184015260208101905062000517565b8381111562000544576000848401525b50505050565b6200055581620004d6565b81146200056157600080fd5b50565b6200056f816200050a565b81146200057b57600080fd5b50565b614fdf806200058e6000396000f3fe608060405234801561001057600080fd5b506004361061016a576000357c0100000000000000000000000000000000000000000000000000000000900480637f073360116100e0578063d7ab802d11610099578063d7ab802d146103db578063e2083c181461040b578063e59fde151461043b578063e64152221461046b578063fbbf93a01461049b578063fc0c546a146104bd5761016a565b80637f073360146103155780638a59eb56146103335780638cf8151f1461034f57806397508f361461037f578063a63dd1981461039d578063ae73ccec146103bb5761016a565b80632ef116ff116101325780632ef116ff1461021557806341b3d18514610245578063533e6d881461026357806353f5c1851461027f578063691a38ab146102b15780637b356561146102e15761016a565b806301a5e3fe1461016f57806304e48bd11461019f57806306fdde03146101bf5780630962ef79146101dd5780632c729fd1146101f9575b600080fd5b61018960048036036101849190810190613cc1565b6104db565b604051610196919061492b565b60405180910390f35b6101a7610508565b6040516101b6939291906148df565b60405180910390f35b6101c76107f9565b6040516101d491906149d6565b60405180910390f35b6101f760048036036101f29190810190613db6565b610897565b005b610213600480360361020e9190810190613d26565b610c0a565b005b61022f600480360361022a9190810190613d75565b610f9e565b60405161023c9190614c90565b60405180910390f35b61024d610fc9565b60405161025a9190614c90565b60405180910390f35b61027d60048036036102789190810190613ddf565b610fcf565b005b61029960048036036102949190810190613d75565b611594565b6040516102a893929190614a52565b60405180910390f35b6102cb60048036036102c69190810190613cc1565b6116c2565b6040516102d8919061492b565b60405180910390f35b6102fb60048036036102f69190810190613cc1565b611771565b60405161030c959493929190614946565b60405180910390f35b61031d611ac7565b60405161032a9190614c90565b60405180910390f35b61034d60048036036103489190810190613cc1565b611acd565b005b61036960048036036103649190810190613cc1565b611b1c565b604051610376919061492b565b60405180910390f35b610387611b3e565b6040516103949190614c90565b60405180910390f35b6103a5611b44565b6040516103b29190614c90565b60405180910390f35b6103c3611b4a565b6040516103d293929190614893565b60405180910390f35b6103f560048036036103f09190810190613db6565b612027565b60405161040291906149d6565b60405180910390f35b61042560048036036104209190810190613cea565b6120e0565b6040516104329190614c90565b60405180910390f35b61045560048036036104509190810190613db6565b612549565b60405161046291906149d6565b60405180910390f35b61048560048036036104809190810190613db6565b612602565b60405161049291906149a0565b60405180910390f35b6104a3612623565b6040516104b49594939291906149f8565b60405180910390f35b6104c5612709565b6040516104d291906149bb565b60405180910390f35b60006003600083815260200190815260200160002060010160009054906101000a900460ff169050919050565b60608060608060028054905060405190808252806020026020018201604052801561054757816020015b60608152602001906001900390816105325790505b50905060606002805490506040519080825280602002602001820160405280156105805781602001602082028038833980820191505090505b50905060606002805490506040519080825280602002602001820160405280156105b95781602001602082028038833980820191505090505b50905060008090505b6002805490508110156107e757600281815481106105dc57fe5b906000526020600020018054600181600116156101000203166002900480601f01602080910402602001604051908101604052809291908181526020018280546001816001161561010002031660029004801561067a5780601f1061064f5761010080835404028352916020019161067a565b820191906000526020600020905b81548152906001019060200180831161065d57829003601f168201915b505050505084828151811061068b57fe5b602002602001018190525061069e61398d565b6001600283815481106106ad57fe5b906000526020600020016040516106c491906147f3565b9081526020016040518091039020604051806080016040529081600082018054600181600116156101000203166002900480601f0160208091040260200160405190810160405280929190818152602001828054600181600116156101000203166002900480156107765780601f1061074b57610100808354040283529160200191610776565b820191906000526020600020905b81548152906001019060200180831161075957829003601f168201915b505050505081526020016001820154815260200160028201548152602001600382015481525050905080602001518483815181106107b057fe5b60200260200101818152505080604001518383815181106107cd57fe5b6020026020010181815250505080806001019150506105c2565b50828282955095509550505050909192565b60088054600181600116156101000203166002900480601f01602080910402602001604051908101604052809291908181526020018280546001816001161561010002031660029004801561088f5780601f106108645761010080835404028352916020019161088f565b820191906000526020600020905b81548152906001019060200180831161087257829003601f168201915b505050505081565b6001151560008083815260200190815260200160002060000160149054906101000a900460ff16151514610900576040517f08c379a00000000000000000000000000000000000000000000000000000000081526004016108f790614c10565b60405180910390fd5b600060066000838152602001908152602001600020905060008160040160003373ffffffffffffffffffffffffffffffffffffffff1673ffffffffffffffffffffffffffffffffffffffff1681526020019081526020016000209050600015158160020160009054906101000a900460ff161515146109b4576040517f08c379a00000000000000000000000000000000000000000000000000000000081526004016109ab90614ab0565b60405180910390fd5b8160030160009054906101000a900460ff1680156109e057508060000160009054906101000a900460ff165b80610a1557508160030160009054906101000a900460ff16158015610a1457508060000160009054906101000a900460ff16155b5b15610be8576000610a6f60008086815260200190815260200160002060030154610a6184600101546000808981526020019081526020016000206002015461272f90919063ffffffff16565b61276990919063ffffffff16565b90506000610a8a82846001015461278f90919063ffffffff16565b9050600760009054906101000a900473ffffffffffffffffffffffffffffffffffffffff1673ffffffffffffffffffffffffffffffffffffffff1663a9059cbb33836040518363ffffffff167c0100000000000000000000000000000000000000000000000000000000028152600401610b05929190614841565b602060405180830381600087803b158015610b1f57600080fd5b505af1158015610b33573d6000803e3d6000fd5b505050506040513d601f19601f82011682018060405250610b579190810190613c98565b610b96576040517f08c379a0000000000000000000000000000000000000000000000000000000008152600401610b8d90614b30565b60405180910390fd5b3373ffffffffffffffffffffffffffffffffffffffff16857f6f4c982acc31b0af2cf1dc1556f21c0325d893782d65e83c68a5534a33f5995783604051610bdd9190614c90565b60405180910390a350505b60018160020160006101000a81548160ff021916908315150217905550505050565b6000600360008581526020019081526020016000209050610c2a84611b1c565b80610c4357508060010160009054906101000a900460ff165b610c82576040517f08c379a0000000000000000000000000000000000000000000000000000000008152600401610c7990614b90565b60405180910390fd5b60008160030154118015610cba57506000808260030154815260200190815260200160002060000160149054906101000a900460ff16155b610cf9576040517f08c379a0000000000000000000000000000000000000000000000000000000008152600401610cf090614af0565b60405180910390fd5b60006006600083600301548152602001908152602001600020905042816002015411610d5a576040517f08c379a0000000000000000000000000000000000000000000000000000000008152600401610d5190614bb0565b60405180910390fd5b600760009054906101000a900473ffffffffffffffffffffffffffffffffffffffff1673ffffffffffffffffffffffffffffffffffffffff166323b872dd3330876040518463ffffffff167c0100000000000000000000000000000000000000000000000000000000028152600401610dd59392919061480a565b602060405180830381600087803b158015610def57600080fd5b505af1158015610e03573d6000803e3d6000fd5b505050506040513d601f19601f82011682018060405250610e279190810190613c98565b610e66576040517f08c379a0000000000000000000000000000000000000000000000000000000008152600401610e5d90614c50565b60405180910390fd5b8215610e8357838160000160008282540192505081905550610e96565b8381600101600082825401925050819055505b60405180606001604052808415158152602001858152602001600015158152508160040160003373ffffffffffffffffffffffffffffffffffffffff1673ffffffffffffffffffffffffffffffffffffffff16815260200190815260200160002060008201518160000160006101000a81548160ff0219169083151502179055506020820151816001015560408201518160020160006101000a81548160ff0219169083151502179055509050503373ffffffffffffffffffffffffffffffffffffffff16857f7a1c5ce18abad3692f6bdf85262d38c3ad4ee5cabf88020e5a0e4d6b841d83768460030154604051610f8f9190614c90565b60405180910390a35050505050565b6000600182604051610fb09190614777565b9081526020016040518091039020600201549050919050565b60095481565b606087878787604051602001610fe8949392919061474f565b60405160208183030381529060405290506000808251141561100c57600060010290505b6020820151905061101c816104db565b1561105c576040517f08c379a000000000000000000000000000000000000000000000000000000000815260040161105390614c70565b60405180910390fd5b61106581611b1c565b156110a5576040517f08c379a000000000000000000000000000000000000000000000000000000000815260040161109c90614a90565b60405180910390fd5b6009548a10156110ea576040517f08c379a00000000000000000000000000000000000000000000000000000000081526004016110e190614b70565b60405180910390fd5b6111c581338c8c8c8080601f016020809104026020016040519081016040528093929190818152602001838380828437600081840152601f19601f820116905080830192505050505050508b8b8080601f016020809104026020016040519081016040528093929190818152602001838380828437600081840152601f19601f820116905080830192505050505050508a8a8080601f016020809104026020016040519081016040528093929190818152602001838380828437600081840152601f19601f82011690508083019250505050505050896127ae565b61121387878080601f016020809104026020016040519081016040528093929190818152602001838380828437600081840152601f19601f8201169050808301925050505050505084612b43565b600760009054906101000a900473ffffffffffffffffffffffffffffffffffffffff1673ffffffffffffffffffffffffffffffffffffffff166323b872dd33308d6040518463ffffffff167c010000000000000000000000000000000000000000000000000000000002815260040161128e9392919061480a565b602060405180830381600087803b1580156112a857600080fd5b505af11580156112bc573d6000803e3d6000fd5b505050506040513d601f19601f820116820180604052506112e09190810190613c98565b61131f576040517f08c379a000000000000000000000000000000000000000000000000000000000815260040161131690614c50565b60405180910390fd5b3373ffffffffffffffffffffffffffffffffffffffff16817fe1cdd401be51ef2c8159945a96274b69ba482f2a5e2131700beeda434fd6d58f8c61157260036000878152602001908152602001600020600401604051806080016040529081600082018054600181600116156101000203166002900480601f0160208091040260200160405190810160405280929190818152602001828054600181600116156101000203166002900480156114165780601f106113eb57610100808354040283529160200191611416565b820191906000526020600020905b8154815290600101906020018083116113f957829003601f168201915b50505050508152602001600182018054600181600116156101000203166002900480601f0160208091040260200160405190810160405280929190818152602001828054600181600116156101000203166002900480156114b85780601f1061148d576101008083540402835291602001916114b8565b820191906000526020600020905b81548152906001019060200180831161149b57829003601f168201915b50505050508152602001600282018054600181600116156101000203166002900480601f01602080910402602001604051908101604052809291908181526020018280546001816001161561010002031660029004801561155a5780601f1061152f5761010080835404028352916020019161155a565b820191906000526020600020905b81548152906001019060200180831161153d57829003601f168201915b50505050508152602001600382015481525050612c62565b604051611580929190614cab565b60405180910390a350505050505050505050565b60606000806115a161398d565b6001856040516115b19190614777565b9081526020016040518091039020604051806080016040529081600082018054600181600116156101000203166002900480601f0160208091040260200160405190810160405280929190818152602001828054600181600116156101000203166002900480156116635780601f1061163857610100808354040283529160200191611663565b820191906000526020600020905b81548152906001019060200180831161164657829003601f168201915b505050505081526020016001820154815260200160028201548152602001600382015481525050905080600001516116ac8260400151836020015161276990919063ffffffff16565b8260400151829250935093509350509193909250565b600080600360008481526020019081526020016000206003015490506116e783611b1c565b80156117085750426003600085815260200190815260200160002060000154105b801561171a5750611718836104db565b155b80156117575750600081148061175657506001151560008083815260200190815260200160002060000160149054906101000a900460ff161515145b5b1561176657600191505061176c565b60009150505b919050565b60008060008060606117816139b5565b600360008881526020019081526020016000206040518060e0016040529081600082015481526020016001820160009054906101000a900460ff161515151581526020016001820160019054906101000a900473ffffffffffffffffffffffffffffffffffffffff1673ffffffffffffffffffffffffffffffffffffffff1673ffffffffffffffffffffffffffffffffffffffff168152602001600282015481526020016003820154815260200160048201604051806080016040529081600082018054600181600116156101000203166002900480601f0160208091040260200160405190810160405280929190818152602001828054600181600116156101000203166002900480156118d75780601f106118ac576101008083540402835291602001916118d7565b820191906000526020600020905b8154815290600101906020018083116118ba57829003601f168201915b50505050508152602001600182018054600181600116156101000203166002900480601f0160208091040260200160405190810160405280929190818152602001828054600181600116156101000203166002900480156119795780601f1061194e57610100808354040283529160200191611979565b820191906000526020600020905b81548152906001019060200180831161195c57829003601f168201915b50505050508152602001600282018054600181600116156101000203166002900480601f016020809104026020016040519081016040528092919081815260200182805460018160011615610100020316600290048015611a1b5780601f106119f057610100808354040283529160200191611a1b565b820191906000526020600020905b8154815290600101906020018083116119fe57829003601f168201915b5050505050815260200160038201548152505081526020016008820154815250509050611a4787611b1c565b80611a53575080602001515b611a92576040517f08c379a0000000000000000000000000000000000000000000000000000000008152600401611a8990614b90565b60405180910390fd5b8060200151816040015182606001518360800151611ab38560a00151612c62565b955095509550955095505091939590929450565b600a5481565b611ad6816116c2565b15611b0f5760016003600083815260200190815260200160002060010160006101000a81548160ff021916908315150217905550611b19565b611b1881612ce9565b5b50565b6000806003600084815260200190815260200160002060000154119050919050565b600c5481565b600b5481565b606080606080600480549050604051908082528060200260200182016040528015611b8957816020015b6060815260200190600190039081611b745790505b5090506060600580549050604051908082528060200260200182016040528015611bc25781602001602082028038833980820191505090505b5090506060600480549050604051908082528060200260200182016040528015611bfb5781602001602082028038833980820191505090505b50905060008090505b6004805490508110156120155760048181548110611c1e57fe5b906000526020600020018054600181600116156101000203166002900480601f016020809104026020016040519081016040528092919081815260200182805460018160011615610100020316600290048015611cbc5780601f10611c9157610100808354040283529160200191611cbc565b820191906000526020600020905b815481529060010190602001808311611c9f57829003601f168201915b5050505050848281518110611ccd57fe5b602002602001018190525060058181548110611ce557fe5b9060005260206000200154838281518110611cfc57fe5b602002602001018181525050611d106139b5565b6003600060058481548110611d2157fe5b906000526020600020015481526020019081526020016000206040518060e0016040529081600082015481526020016001820160009054906101000a900460ff161515151581526020016001820160019054906101000a900473ffffffffffffffffffffffffffffffffffffffff1673ffffffffffffffffffffffffffffffffffffffff1673ffffffffffffffffffffffffffffffffffffffff168152602001600282015481526020016003820154815260200160048201604051806080016040529081600082018054600181600116156101000203166002900480601f016020809104026020016040519081016040528092919081815260200182805460018160011615610100020316600290048015611e7d5780601f10611e5257610100808354040283529160200191611e7d565b820191906000526020600020905b815481529060010190602001808311611e6057829003601f168201915b50505050508152602001600182018054600181600116156101000203166002900480601f016020809104026020016040519081016040528092919081815260200182805460018160011615610100020316600290048015611f1f5780601f10611ef457610100808354040283529160200191611f1f565b820191906000526020600020905b815481529060010190602001808311611f0257829003601f168201915b50505050508152602001600282018054600181600116156101000203166002900480601f016020809104026020016040519081016040528092919081815260200182805460018160011615610100020316600290048015611fc15780601f10611f9657610100808354040283529160200191611fc1565b820191906000526020600020905b815481529060010190602001808311611fa457829003601f168201915b50505050508152602001600382015481525050815260200160088201548152505090508060200151838381518110611ff557fe5b602002602001019015159081151581525050508080600101915050611c04565b50828282955095509550505050909192565b6004818154811061203457fe5b906000526020600020016000915090508054600181600116156101000203166002900480601f0160208091040260200160405190810160405280929190818152602001828054600181600116156101000203166002900480156120d85780601f106120ad576101008083540402835291602001916120d8565b820191906000526020600020905b8154815290600101906020018083116120bb57829003601f168201915b505050505081565b60008060036000858152602001908152602001600020905061210184611b1c565b8061211a57508060010160009054906101000a900460ff165b612159576040517f08c379a000000000000000000000000000000000000000000000000000000000815260040161215090614b90565b60405180910390fd5b60008160030154148061218f57506000808260030154815260200190815260200160002060000160149054906101000a900460ff165b6121ce576040517f08c379a00000000000000000000000000000000000000000000000000000000081526004016121c590614c30565b60405180910390fd5b42816000015411612214576040517f08c379a000000000000000000000000000000000000000000000000000000000815260040161220b90614b50565b60405180910390fd5b806002015483101561225b576040517f08c379a000000000000000000000000000000000000000000000000000000000815260040161225290614bf0565b60405180910390fd5b6001600c5401600c819055506040518060a001604052803373ffffffffffffffffffffffffffffffffffffffff168152602001600015158152602001848152602001600081526020016000815250600080600c54815260200190815260200160002060008201518160000160006101000a81548173ffffffffffffffffffffffffffffffffffffffff021916908373ffffffffffffffffffffffffffffffffffffffff16021790555060208201518160000160146101000a81548160ff02191690831515021790555060408201518160010155606082015181600201556080820151816003015590505060405180608001604052806000815260200160008152602001612373600b544261278f90919063ffffffff16565b81526020016000151581525060066000600c54815260200190815260200160002060008201518160000155602082015181600101556040820151816002015560608201518160030160006101000a81548160ff021916908315150217905550905050600c548160030181905550600760009054906101000a900473ffffffffffffffffffffffffffffffffffffffff1673ffffffffffffffffffffffffffffffffffffffff166323b872dd3330866040518463ffffffff167c010000000000000000000000000000000000000000000000000000000002815260040161245b9392919061480a565b602060405180830381600087803b15801561247557600080fd5b505af1158015612489573d6000803e3d6000fd5b505050506040513d601f19601f820116820180604052506124ad9190810190613c98565b6124ec576040517f08c379a00000000000000000000000000000000000000000000000000000000081526004016124e390614c50565b60405180910390fd5b3373ffffffffffffffffffffffffffffffffffffffff16847fc911f55bb4170a166467bde15c8799c1d2bb96a79f6bd9bc5cd3a4f05f768f6f600c546040516125359190614c90565b60405180910390a3600c5491505092915050565b6002818154811061255657fe5b906000526020600020016000915090508054600181600116156101000203166002900480601f0160208091040260200160405190810160405280929190818152602001828054600181600116156101000203166002900480156125fa5780601f106125cf576101008083540402835291602001916125fa565b820191906000526020600020905b8154815290600101906020018083116125dd57829003601f168201915b505050505081565b6005818154811061260f57fe5b906000526020600020016000915090505481565b6060600080600080606060088054600181600116156101000203166002900480601f0160208091040260200160405190810160405280929190818152602001828054600181600116156101000203166002900480156126c35780601f10612698576101008083540402835291602001916126c3565b820191906000526020600020905b8154815290600101906020018083116126a657829003601f168201915b5050505050905080600760009054906101000a900473ffffffffffffffffffffffffffffffffffffffff16600954600a54600b5495509550955095509550509091929394565b600760009054906101000a900473ffffffffffffffffffffffffffffffffffffffff1681565b6000808314156127425760009050612763565b600082840290508284828161275357fe5b041461275e57600080fd5b809150505b92915050565b600080821161277757600080fd5b600082848161278257fe5b0490508091505092915050565b6000808284019050838110156127a457600080fd5b8091505092915050565b6000600360008981526020019081526020016000209050868160010160016101000a81548173ffffffffffffffffffffffffffffffffffffffff021916908373ffffffffffffffffffffffffffffffffffffffff160217905550604051806080016040528086815260200185815260200184815260200183815250816004016000820151816000019080519060200190612849929190613a11565b506020820151816001019080519060200190612866929190613a11565b506040820151816002019080519060200190612883929190613a11565b506060820151816003015590505060058890806001815401808255809150509060018203906000526020600020016000909192909190915055506004612ac682600401604051806080016040529081600082018054600181600116156101000203166002900480601f01602080910402602001604051908101604052809291908181526020018280546001816001161561010002031660029004801561296a5780601f1061293f5761010080835404028352916020019161296a565b820191906000526020600020905b81548152906001019060200180831161294d57829003601f168201915b50505050508152602001600182018054600181600116156101000203166002900480601f016020809104026020016040519081016040528092919081815260200182805460018160011615610100020316600290048015612a0c5780601f106129e157610100808354040283529160200191612a0c565b820191906000526020600020905b8154815290600101906020018083116129ef57829003601f168201915b50505050508152602001600282018054600181600116156101000203166002900480601f016020809104026020016040519081016040528092919081815260200182805460018160011615610100020316600290048015612aae5780601f10612a8357610100808354040283529160200191612aae565b820191906000526020600020905b815481529060010190602001808311612a9157829003601f168201915b50505050508152602001600382015481525050612c62565b9080600181540180825580915050906001820390600052602060002001600090919290919091509080519060200190612b00929190613a91565b50506001600480549050038160080181905550612b28600a544261278f90919063ffffffff16565b81600001819055508581600201819055505050505050505050565b6000612b4e83610f9e565b1115612b9b576000600183604051612b669190614777565b908152602001604051809103902090506001816002015401816002018190555081816001015401816001018190555050612c5e565b604051806080016040528083815260200182815260200160018152602001600280549050815250600183604051612bd29190614777565b90815260200160405180910390206000820151816000019080519060200190612bfc929190613a11565b506020820151816001015560408201518160020155606082015181600301559050506002829080600181540180825580915050906001820390600052602060002001600090919290919091509080519060200190612c5b929190613a91565b50505b5050565b6060806040518060400160405280600181526020017f20000000000000000000000000000000000000000000000000000000000000008152509050826000015181846020015183866040015185612cbc8960600151613721565b604051602001612cd2979695949392919061478e565b604051602081830303815290604052915050919050565b612cf16139b5565b600360008381526020019081526020016000206040518060e0016040529081600082015481526020016001820160009054906101000a900460ff161515151581526020016001820160019054906101000a900473ffffffffffffffffffffffffffffffffffffffff1673ffffffffffffffffffffffffffffffffffffffff1673ffffffffffffffffffffffffffffffffffffffff168152602001600282015481526020016003820154815260200160048201604051806080016040529081600082018054600181600116156101000203166002900480601f016020809104026020016040519081016040528092919081815260200182805460018160011615610100020316600290048015612e475780601f10612e1c57610100808354040283529160200191612e47565b820191906000526020600020905b815481529060010190602001808311612e2a57829003601f168201915b50505050508152602001600182018054600181600116156101000203166002900480601f016020809104026020016040519081016040528092919081815260200182805460018160011615610100020316600290048015612ee95780601f10612ebe57610100808354040283529160200191612ee9565b820191906000526020600020905b815481529060010190602001808311612ecc57829003601f168201915b50505050508152602001600282018054600181600116156101000203166002900480601f016020809104026020016040519081016040528092919081815260200182805460018160011615610100020316600290048015612f8b5780601f10612f6057610100808354040283529160200191612f8b565b820191906000526020600020905b815481529060010190602001808311612f6e57829003601f168201915b505050505081526020016003820154815250508152602001600882015481525050905060008160800151118015612fe657506000808260800151815260200190815260200160002060000160149054906101000a900460ff16155b613025576040517f08c379a000000000000000000000000000000000000000000000000000000000815260040161301c90614af0565b60405180910390fd5b60008160800151905060006130398261386d565b9050600160008084815260200190815260200160002060000160146101000a81548160ff021916908315150217905550600080600084815260200190815260200160002060000160009054906101000a900473ffffffffffffffffffffffffffffffffffffffff169050811561315457600660008481526020019081526020016000206000015460008085815260200190815260200160002060030181905550600660008481526020019081526020016000206001015460008085815260200190815260200160002060010154016000808581526020019081526020016000206002018190555060016003600087815260200190815260200160002060010160006101000a81548160ff0219169083151502179055506136cb565b600760009054906101000a900473ffffffffffffffffffffffffffffffffffffffff1673ffffffffffffffffffffffffffffffffffffffff1663a9059cbb82600080878152602001908152602001600020600101546040518363ffffffff167c01000000000000000000000000000000000000000000000000000000000281526004016131e292919061486a565b602060405180830381600087803b1580156131fc57600080fd5b505af1158015613210573d6000803e3d6000fd5b505050506040513d601f19601f820116820180604052506132349190810190613c98565b613273576040517f08c379a000000000000000000000000000000000000000000000000000000000815260040161326a90614bd0565b60405180910390fd5b6006600084815260200190815260200160002060010154600080858152602001908152602001600020600301819055506006600084815260200190815260200160002060000154846060015101600080858152602001908152602001600020600201819055506060600360008781526020019081526020016000206004016001018054600181600116156101000203166002900480601f0160208091040260200160405190810160405280929190818152602001828054600181600116156101000203166002900480156133885780601f1061335d57610100808354040283529160200191613388565b820191906000526020600020905b81548152906001019060200180831161336b57829003601f168201915b505050505090506000600360008881526020019081526020016000206004016003015490506133b561398d565b6001836040516133c59190614777565b9081526020016040518091039020604051806080016040529081600082018054600181600116156101000203166002900480601f0160208091040260200160405190810160405280929190818152602001828054600181600116156101000203166002900480156134775780601f1061344c57610100808354040283529160200191613477565b820191906000526020600020905b81548152906001019060200180831161345a57829003601f168201915b5050505050815260200160018201548152602001600282015481526020016003820154815250509050600180846040516134b19190614777565b908152602001604051809103902060020154141561353e576001836040516134d99190614777565b9081526020016040518091039020600080820160006134f89190613b11565b6001820160009055600282016000905560038201600090555050600281606001518154811061352357fe5b9060005260206000200160006135399190613b11565b6135d1565b8160018460405161354f9190614777565b908152602001604051809103902060010154036001846040516135729190614777565b908152602001604051809103902060010181905550600180846040516135989190614777565b908152602001604051809103902060020154036001846040516135bb9190614777565b9081526020016040518091039020600201819055505b600360008981526020019081526020016000206000808201600090556001820160006101000a81549060ff02191690556001820160016101000a81549073ffffffffffffffffffffffffffffffffffffffff021916905560028201600090556003820160009055600482016000808201600061364d9190613b11565b60018201600061365d9190613b11565b60028201600061366d9190613b11565b600382016000905550506008820160009055505060048760c001518154811061369257fe5b9060005260206000200160006136a89190613b11565b60058760c00151815481106136b957fe5b90600052602060002001600090555050505b3373ffffffffffffffffffffffffffffffffffffffff16857f779e2848f275ef7b62be066e59dc34b2b8d79758079849859de844a3d9b9fb0d856040516137129190614c90565b60405180910390a35050505050565b60606000821415613769576040518060400160405280600181526020017f30000000000000000000000000000000000000000000000000000000000000008152509050613868565b600082905060005b60008214613793578080600101915050600a828161378b57fe5b049150613771565b6060816040519080825280601f01601f1916602001820160405280156137c85781602001600182028038833980820191505090505b50905060006001830390505b6000861461386057600a86816137e657fe5b066030017f0100000000000000000000000000000000000000000000000000000000000000028282806001900393508151811061381f57fe5b60200101907effffffffffffffffffffffffffffffffffffffffffffffffffffffffffffff1916908160001a905350600a868161385857fe5b0495506137d4565b819450505050505b919050565b6000806006600084815260200190815260200160002060020154116138c7576040517f08c379a00000000000000000000000000000000000000000000000000000000081526004016138be90614ad0565b60405180910390fd5b600060066000848152602001908152602001600020905042816002015410613924576040517f08c379a000000000000000000000000000000000000000000000000000000000815260040161391b90614b10565b60405180910390fd5b80600101548160000154106139555760018160030160006101000a81548160ff021916908315150217905550613973565b60008160030160006101000a81548160ff0219169083151502179055505b8060030160009054906101000a900460ff16915050919050565b6040518060800160405280606081526020016000815260200160008152602001600081525090565b60405180610140016040528060008152602001600015158152602001600073ffffffffffffffffffffffffffffffffffffffff1681526020016000815260200160008152602001613a04613b59565b8152602001600081525090565b828054600181600116156101000203166002900490600052602060002090601f016020900481019282601f10613a5257805160ff1916838001178555613a80565b82800160010185558215613a80579182015b82811115613a7f578251825591602001919060010190613a64565b5b509050613a8d9190613b81565b5090565b828054600181600116156101000203166002900490600052602060002090601f016020900481019282601f10613ad257805160ff1916838001178555613b00565b82800160010185558215613b00579182015b82811115613aff578251825591602001919060010190613ae4565b5b509050613b0d9190613b81565b5090565b50805460018160011615610100020316600290046000825580601f10613b375750613b56565b601f016020900490600052602060002090810190613b559190613b81565b5b50565b6040518060800160405280606081526020016060815260200160608152602001600081525090565b613ba391905b80821115613b9f576000816000905550600101613b87565b5090565b90565b600081359050613bb581614f60565b92915050565b600081519050613bca81614f60565b92915050565b600081359050613bdf81614f77565b92915050565b60008083601f840112613bf757600080fd5b8235905067ffffffffffffffff811115613c1057600080fd5b602083019150836001820283011115613c2857600080fd5b9250929050565b600082601f830112613c4057600080fd5b8135613c53613c4e82614d08565b614cdb565b91508082526020830160208301858383011115613c6f57600080fd5b613c7a838284614f0d565b50505092915050565b600081359050613c9281614f8e565b92915050565b600060208284031215613caa57600080fd5b6000613cb884828501613bbb565b91505092915050565b600060208284031215613cd357600080fd5b6000613ce184828501613bd0565b91505092915050565b60008060408385031215613cfd57600080fd5b6000613d0b85828601613bd0565b9250506020613d1c85828601613c83565b9150509250929050565b600080600060608486031215613d3b57600080fd5b6000613d4986828701613bd0565b9350506020613d5a86828701613c83565b9250506040613d6b86828701613ba6565b9150509250925092565b600060208284031215613d8757600080fd5b600082013567ffffffffffffffff811115613da157600080fd5b613dad84828501613c2f565b91505092915050565b600060208284031215613dc857600080fd5b6000613dd684828501613c83565b91505092915050565b60008060008060008060008060a0898b031215613dfb57600080fd5b6000613e098b828c01613c83565b985050602089013567ffffffffffffffff811115613e2657600080fd5b613e328b828c01613be5565b9750975050604089013567ffffffffffffffff811115613e5157600080fd5b613e5d8b828c01613be5565b9550955050606089013567ffffffffffffffff811115613e7c57600080fd5b613e888b828c01613be5565b93509350506080613e9b8b828c01613c83565b9150509295985092959890939650565b6000613eb783836140b4565b60208301905092915050565b6000613ecf83836140d2565b60208301905092915050565b6000613ee7838361418e565b905092915050565b6000613efb8383614731565b60208301905092915050565b613f1081614eb3565b82525050565b613f1f81614e61565b82525050565b6000613f3082614d7a565b613f3a8185614df0565b9350613f4583614d34565b8060005b83811015613f76578151613f5d8882613eab565b9750613f6883614dbc565b925050600181019050613f49565b5085935050505092915050565b6000613f8e82614d85565b613f988185614e01565b9350613fa383614d41565b8060005b83811015613fd4578151613fbb8882613ec3565b9750613fc683614dc9565b925050600181019050613fa7565b5085935050505092915050565b6000613fec82614d90565b613ff68185614e12565b93508360208202850161400885614d4e565b8060005b8581101561404457848403895281516140258582613edb565b945061403083614dd6565b925060208a0199505060018101905061400c565b50829750879550505050505092915050565b600061406182614d9b565b61406b8185614e23565b935061407683614d5b565b8060005b838110156140a757815161408e8882613eef565b975061409983614de3565b92505060018101905061407a565b5085935050505092915050565b6140bd81614e73565b82525050565b6140cc81614e73565b82525050565b6140db81614e7f565b82525050565b6140ea81614e7f565b82525050565b6140f981614ec5565b82525050565b600061410b8385614e56565b9350614118838584614f0d565b82840190509392505050565b600061412f82614db1565b6141398185614e45565b9350614149818560208601614f1c565b61415281614f4f565b840191505092915050565b600061416882614db1565b6141728185614e56565b9350614182818560208601614f1c565b80840191505092915050565b600061419982614da6565b6141a38185614e34565b93506141b3818560208601614f1c565b6141bc81614f4f565b840191505092915050565b60006141d282614da6565b6141dc8185614e45565b93506141ec818560208601614f1c565b6141f581614f4f565b840191505092915050565b600061420b82614da6565b6142158185614e56565b9350614225818560208601614f1c565b80840191505092915050565b60008154600181166000811461424e5760018114614273576142b7565b607f600283041661425f8187614e56565b955060ff19831686528086019350506142b7565b600282046142818187614e56565b955061428c85614d68565b60005b828110156142ae5781548189015260018201915060208101905061428f565b82880195505050505b505092915050565b60006142cc602283614e45565b91507f4c697374696e6720697320616c726561647920696e206170706c79207374616760008301527f652e0000000000000000000000000000000000000000000000000000000000006020830152604082019050919050565b6000614332601f83614e45565b91507f566f74652072657761726420697320616c726561647920636c61696d65642e006000830152602082019050919050565b6000614372601483614e45565b91507f506f6c6c20646f6573206e6f742065786973742e0000000000000000000000006000830152602082019050919050565b60006143b2601a83614e45565b91507f4c697374696e67206973206e6f74206368616c6c656e6765642e0000000000006000830152602082019050919050565b60006143f2601883614e45565b91507f436f6d6d697420706572696f64206973206163746976652e00000000000000006000830152602082019050919050565b6000614432601e83614e45565b91507f566f74696e6720726577617264207472616e73666572206661696c65642e00006000830152602082019050919050565b6000614472601783614e45565b91507f4170706c7920737461676520686173207061737365642e0000000000000000006000830152602082019050919050565b60006144b2602183614e45565b91507f4e6f7420656e6f756768207374616b6520666f72206170706c69636174696f6e60008301527f2e000000000000000000000000000000000000000000000000000000000000006020830152604082019050919050565b6000614518601783614e45565b91507f4c697374696e6720646f6573206e6f742065786973742e0000000000000000006000830152602082019050919050565b6000614558601983614e45565b91507f436f6d6d697420706572696f6420686173207061737365642e000000000000006000830152602082019050919050565b6000614598601e83614e45565b91507f4368616c6c656e6765207374616b652072657475726e206661696c65642e00006000830152602082019050919050565b60006145d8602683614e45565b91507f4e6f7420656e6f756768207374616b652070617373656420666f72206368616c60008301527f6c656e67652e00000000000000000000000000000000000000000000000000006020830152604082019050919050565b600061463e601a83614e45565b91507f4368616c6c656e6765206973206e6f74207265736f6c7665642e0000000000006000830152602082019050919050565b600061467e601e83614e45565b91507f4c697374696e6720697320616c7265616479206368616c6c656e6765642e00006000830152602082019050919050565b60006146be601683614e45565b91507f546f6b656e207472616e73666572206661696c65642e000000000000000000006000830152602082019050919050565b60006146fe601f83614e45565b91507f4c697374696e6720697320616c72656164792077686974656c69737465642e006000830152602082019050919050565b61473a81614ea9565b82525050565b61474981614ea9565b82525050565b600061475c8286886140ff565b91506147698284866140ff565b915081905095945050505050565b6000614783828461415d565b915081905092915050565b600061479a828a614200565b91506147a6828961415d565b91506147b28288614200565b91506147be828761415d565b91506147ca8286614200565b91506147d6828561415d565b91506147e2828461415d565b915081905098975050505050505050565b60006147ff8284614231565b915081905092915050565b600060608201905061481f6000830186613f07565b61482c6020830185613f16565b6148396040830184614740565b949350505050565b60006040820190506148566000830185613f07565b6148636020830184614740565b9392505050565b600060408201905061487f6000830185613f16565b61488c6020830184614740565b9392505050565b600060608201905081810360008301526148ad8186613fe1565b905081810360208301526148c18185613f83565b905081810360408301526148d58184613f25565b9050949350505050565b600060608201905081810360008301526148f98186613fe1565b9050818103602083015261490d8185614056565b905081810360408301526149218184614056565b9050949350505050565b600060208201905061494060008301846140c3565b92915050565b600060a08201905061495b60008301886140c3565b6149686020830187613f16565b6149756040830186614740565b6149826060830185614740565b81810360808301526149948184614124565b90509695505050505050565b60006020820190506149b560008301846140e1565b92915050565b60006020820190506149d060008301846140f0565b92915050565b600060208201905081810360008301526149f081846141c7565b905092915050565b600060a0820190508181036000830152614a128188614124565b9050614a216020830187613f16565b614a2e6040830186614740565b614a3b6060830185614740565b614a486080830184614740565b9695505050505050565b60006060820190508181036000830152614a6c8186614124565b9050614a7b6020830185614740565b614a886040830184614740565b949350505050565b60006020820190508181036000830152614aa9816142bf565b9050919050565b60006020820190508181036000830152614ac981614325565b9050919050565b60006020820190508181036000830152614ae981614365565b9050919050565b60006020820190508181036000830152614b09816143a5565b9050919050565b60006020820190508181036000830152614b29816143e5565b9050919050565b60006020820190508181036000830152614b4981614425565b9050919050565b60006020820190508181036000830152614b6981614465565b9050919050565b60006020820190508181036000830152614b89816144a5565b9050919050565b60006020820190508181036000830152614ba98161450b565b9050919050565b60006020820190508181036000830152614bc98161454b565b9050919050565b60006020820190508181036000830152614be98161458b565b9050919050565b60006020820190508181036000830152614c09816145cb565b9050919050565b60006020820190508181036000830152614c2981614631565b9050919050565b60006020820190508181036000830152614c4981614671565b9050919050565b60006020820190508181036000830152614c69816146b1565b9050919050565b60006020820190508181036000830152614c89816146f1565b9050919050565b6000602082019050614ca56000830184614740565b92915050565b6000604082019050614cc06000830185614740565b8181036020830152614cd28184614124565b90509392505050565b6000604051905081810181811067ffffffffffffffff82111715614cfe57600080fd5b8060405250919050565b600067ffffffffffffffff821115614d1f57600080fd5b601f19601f8301169050602081019050919050565b6000602082019050919050565b6000602082019050919050565b6000602082019050919050565b6000602082019050919050565b60008160005260206000209050919050565b600081519050919050565b600081519050919050565b600081519050919050565b600081519050919050565b600081519050919050565b600081519050919050565b6000602082019050919050565b6000602082019050919050565b6000602082019050919050565b6000602082019050919050565b600082825260208201905092915050565b600082825260208201905092915050565b600082825260208201905092915050565b600082825260208201905092915050565b600082825260208201905092915050565b600082825260208201905092915050565b600081905092915050565b6000614e6c82614e89565b9050919050565b60008115159050919050565b6000819050919050565b600073ffffffffffffffffffffffffffffffffffffffff82169050919050565b6000819050919050565b6000614ebe82614ee9565b9050919050565b6000614ed082614ed7565b9050919050565b6000614ee282614e89565b9050919050565b6000614ef482614efb565b9050919050565b6000614f0682614e89565b9050919050565b82818337600083830152505050565b60005b83811015614f3a578082015181840152602081019050614f1f565b83811115614f49576000848401525b50505050565b6000601f19601f8301169050919050565b614f6981614e73565b8114614f7457600080fd5b50565b614f8081614e7f565b8114614f8b57600080fd5b50565b614f9781614ea9565b8114614fa257600080fd5b5056fea265627a7a72305820155eec94c5ceda19313274d0ed2c2f4ecddd53b8852dc0a21a21cde630b6e43b6c6578706572696d656e74616cf50037",
  "source": "// Most of the code in this contract is derived from the generic TCR implementation from Mike Goldin and (the adChain) team\n// This contract strips out most of the details and only keeps the basic TCR functionality (apply/propose, challenge, vote, resolve)\n// Consider this to be the \"hello world\" for TCR implementation\n// For real world usage, please refer to the generic TCR implementation\n// https://github.com/skmgoldin/tcr\n\npragma solidity ^0.5.8;\npragma experimental ABIEncoderV2;\n\nimport \"../node_modules/openzeppelin-solidity/contracts/token/ERC20/ERC20.sol\";\nimport \"../node_modules/openzeppelin-solidity/contracts/math/SafeMath.sol\";\n\ncontract Tcr {\n\n    using SafeMath for uint;\n\n    struct Data {\n\n\tstring rollNumber;\n\tstring course ;\n\tstring review;\n\tuint rating;\n\n\t}\n\n    struct Course{\n\tstring courseCode;\n\tuint courseTotal;\n\tuint numberOfReviews;\n\tuint arrIndex;\n\t}\n\n    struct Listing {\n        uint applicationExpiry; // Expiration date of apply stage\n        bool whitelisted;       // Indicates registry status\n        address owner;          // Owner of Listing\n        uint deposit;           // Number of tokens in the listing\n        uint challengeId;       // the challenge id of the current challenge\n        Data data;            // name of listing (for UI)\n        uint arrIndex;          // arrayIndex of listing in listingNames array (for deletion)\n\t\n    }\n\n    // instead of using the elegant PLCR voting, we are using just a list because this is *simple-TCR*\n    struct Vote {\n        bool value;\n        uint stake;\n        bool claimed;\n    }\n\n    struct Poll {\n        uint votesFor;\n        uint votesAgainst;\n        uint commitEndDate;\n        bool passed;\n        mapping(address => Vote) votes; // revealed by default; no partial locking\n    }\n\n    struct Challenge {\n        address challenger;     // Owner of Challenge3\n        bool resolved;          // Indication of if challenge is resolved\n        uint stake;             // Number of tokens at stake for either party during challenge\n        uint rewardPool;        // number of tokens from losing side - winning reward\n        uint totalTokens;       // number of tokens from winning side - to be returned\n    }\n\n\n\n\n    // Maps challengeIDs to associated challenge data\n    mapping(uint => Challenge) private challenges;\n\n    mapping(string => Course) private courses;\n    string[] public courseNames;\n\n    // Maps listingHashes to associated listingHash data\n    mapping(bytes32 => Listing) private listings;\n    string[] public listingNames;\n    bytes32[] public listingHashes;\n\n    // Maps polls to associated challenge\n    mapping(uint => Poll) private polls;\n\n    // Global Variables\n    ERC20 public token;\n    string public name;\n    uint public minDeposit;\n    uint public applyStageLen;\n    uint public commitStageLen;\n\n    uint constant private INITIAL_POLL_NONCE = 0;\n    uint public pollNonce;\n\n    // Events\n    event _Application(bytes32 indexed listingHash, uint deposit, string data, address indexed applicant);\n    event _Challenge(bytes32 indexed listingHash, uint challengeId, address indexed challenger);\n    event _Vote(bytes32 indexed listingHash, uint challengeId, address indexed voter);\n    event _ResolveChallenge(bytes32 indexed listingHash, uint challengeId, address indexed resolver);\n    event _RewardClaimed(uint indexed challengeId, uint reward, address indexed voter);\n\n    // using the constructor to initialize the TCR parameters\n    // again, to keep it simple, skipping the Parameterizer and ParameterizerFactory\n    constructor(\n        string memory _name,\n        address _token,\n        uint[] memory _parameters\n    ) public {\n        require(_token != address(0), \"Token address should not be 0 address.\");\n\n        token = ERC20(_token);\n        name = _name;\n\n        // minimum deposit for listing to be whitelisted\n        minDeposit = _parameters[0];\n\n        // period over which applicants wait to be whitelisted\n        applyStageLen = _parameters[1];\n\n        // length of commit period for voting\n        commitStageLen = _parameters[2];\n\n        // Initialize the poll nonce\n        pollNonce = INITIAL_POLL_NONCE;\n    }\n\n   function uint2str(uint _i) internal pure returns (string memory _uintAsString) {\n    if (_i == 0) {\n        return \"0\";\n    }\n    uint j = _i;\n    uint len;\n    while (j != 0) {\n        len++;\n        j /= 10;\n    }\n    bytes memory bstr = new bytes(len);\n    uint k = len - 1;\n    while (_i != 0) {\n        bstr[k--] = byte(uint8(48 + _i % 10));\n        _i /= 10;\n    }\n    return string(bstr);\n\t}\n\n    function strReview(Data memory data) private pure returns (string memory){\n\tstring memory space = \" \";\n    \treturn string(abi.encodePacked(data.rollNumber, space, data.course, space, data.review, space, uint2str(data.rating)));\n    }\n    // returns whether a listing is already whitelisted\n    function isWhitelisted(bytes32 _listingHash) public view returns (bool whitelisted) {\n        return listings[_listingHash].whitelisted;\n    }\n\n    // returns if a listing is in apply stage\n    function appWasMade(bytes32 _listingHash) public view returns (bool exists) {\n        return listings[_listingHash].applicationExpiry > 0;\n    }\n\n    // get all listing names (for UI)\n    // not to be used in a production use case\n    function getAllListings() public view returns (string[] memory, bytes32[] memory, bool[] memory) {\n        string[] memory listingArr = new string[](listingNames.length);\n\t    bytes32 [] memory hashArr = new bytes32[](listingHashes.length);\n\t    bool [] memory whitelistedArr = new bool[](listingNames.length);\n        for (uint256 i = 0; i < listingNames.length; i++) {\n            listingArr[i] = listingNames[i];\n\t        hashArr[i] = listingHashes[i];\n\t        Listing memory templisting = listings[listingHashes[i]];\n\t        whitelistedArr[i] = templisting.whitelisted;\n        }\n        return (listingArr, hashArr, whitelistedArr);\n    }\n\n    function getAllCourses() public view returns (string[] memory,uint[] memory, uint [] memory) {\n        string[] memory courseArr = new string[](courseNames.length);\n\t    uint[] memory coursetotalArr = new uint[](courseNames.length);\n\t    uint[] memory numberReviewsArr = new uint[] (courseNames.length);\n\n        for (uint256 i = 0; i < courseNames.length; i++) {\n            courseArr[i] = courseNames[i];\n\t    Course memory temp_course = courses[courseNames[i]];\n\t    coursetotalArr[i] = temp_course.courseTotal;\n\t    numberReviewsArr[i] = temp_course.numberOfReviews;\n        }\n        return (courseArr, coursetotalArr, numberReviewsArr);\n    }\n\n    // get details of this registry (for UI)\n    function getDetails() public view returns (string memory, address, uint, uint, uint) {\n        string memory _name = name;\n        return (_name, address(token), minDeposit, applyStageLen, commitStageLen);\n    }\n\n    // get details of a listing (for UI)\n    function getListingDetails(bytes32 _listingHash) public view returns (bool, address, uint, uint, string memory) {\n        Listing memory listingIns = listings[_listingHash];\n        // Listing must be in apply stage or already on the whitelist\n        require(appWasMade(_listingHash) || listingIns.whitelisted, \"Listing does not exist.\");\n\n        return (listingIns.whitelisted, listingIns.owner, listingIns.deposit, listingIns.challengeId,strReview(listingIns.data));\n    }\n\n    function getCourseDetails(string memory _courseHash) public view returns (string memory, uint, uint){\n\t\n\tCourse memory courseIns = courses[_courseHash];\n\treturn (courseIns.courseCode, courseIns.courseTotal.div(courseIns.numberOfReviews),courseIns.numberOfReviews);\n    }\n\n    function CourseExists(string memory _courseHash) public view returns (uint) {\n        return courses[_courseHash].numberOfReviews;\n    }\n\n    function createNewCourse(string memory _courseCode, uint _course_rating) private {\n\tif (CourseExists(_courseCode) > 0){\n\n\tCourse storage temp_course = courses[_courseCode];\n\ttemp_course.numberOfReviews = temp_course.numberOfReviews + 1;\n\ttemp_course.courseTotal = (temp_course.courseTotal + _course_rating);\n\t\t\t\n\t}\n\telse {\n\t\tcourses[_courseCode] = Course({\n\t\tcourseCode: _courseCode,\n\t\tcourseTotal : _course_rating,\n\t\tnumberOfReviews : 1,\n\t\tarrIndex : courseNames.length\n\t});\n\tcourseNames.push(_courseCode);\n\t}\n\t}\t\n\n    function createNewListing(bytes32 _listingHash, address sender, uint _amount,  string memory _roll, string memory _course, string memory _review, uint _rating) private  {\n    \t// Sets owner\n        Listing storage listing = listings[_listingHash];\n        listing.owner = sender;\n        listing.data = Data({\n\t\trollNumber: _roll,\n\t\tcourse: _course,\n\t\treview: _review,\n\t\trating : _rating\n\t});\n\t\n\t    listingHashes.push(_listingHash);\n        listingNames.push(strReview(listing.data));\n        listing.arrIndex = listingNames.length - 1;\n\n        // Sets apply stage end time\n        // now or block.timestamp is safe here (can live with ~15 sec apprmberOoximation)\n        /* solium-disable-next-line security/no-block-members */\n        listing.applicationExpiry = now.add(applyStageLen);\n        listing.deposit = _amount;\n    }\n\n    // proposes a listing to be whitelisted\n    function propose(uint _amount, string calldata _roll,  string calldata _course, string calldata _review, uint _rating ) external {\n\t//change started\n\tstring memory source = string(abi.encodePacked(_roll, _course));\n\tbytes32 _listingHash ;\n    \tif (bytes(source).length == 0) {\n        _listingHash = 0x0;\n    \t}\n\n    \tassembly {\n        _listingHash := mload(add(source, 32))\n    \t}\n\t//change ended\n\t\n\trequire(!isWhitelisted(_listingHash), \"Listing is already whitelisted.\");\n        require(!appWasMade(_listingHash), \"Listing is already in apply stage.\");\n        require(_amount >= minDeposit, \"Not enough stake for application.\");\n\t\n\tcreateNewListing(_listingHash, msg.sender, _amount,  _roll, _course, _review, _rating);\n\tcreateNewCourse(_course, _rating);\n\n        // Transfer tokens from user\n        require(token.transferFrom(msg.sender, address(this), _amount), \"Token transfer failed.\");\n        emit _Application(_listingHash, _amount, strReview(listings[_listingHash].data), msg.sender);\n    }\n\n    // challenges a listing from being whitelisted\n    function challenge(bytes32 _listingHash, uint _amount)\n        external returns (uint challengeId) {\n        Listing storage listing = listings[_listingHash];\n\n        // Listing must be in apply stage or already on the whitelist\n        require(appWasMade(_listingHash) || listing.whitelisted, \"Listing does not exist.\");\n        \n        // Prevent multiple challenges\n        require(listing.challengeId == 0 || challenges[listing.challengeId].resolved, \"Listing is already challenged.\");\n\n        // check if apply stage is active\n        /* solium-disable-next-line security/no-block-members */\n        require(listing.applicationExpiry > now, \"Apply stage has passed.\");\n\n        // check if enough amount is staked for challenge\n        require(_amount >= listing.deposit, \"Not enough stake passed for challenge.\");\n        \n        pollNonce = pollNonce + 1;\n        challenges[pollNonce] = Challenge({\n            challenger: msg.sender,\n            stake: _amount,\n            resolved: false,\n            totalTokens: 0,\n            rewardPool: 0\n        });\n\n        // create a new poll for the challenge\n        polls[pollNonce] = Poll({\n            votesFor: 0,\n            votesAgainst: 0,\n            passed: false,\n            commitEndDate: now.add(commitStageLen) /* solium-disable-line security/no-block-members */\n        });\n\n        // Updates listingHash to store most recent challenge\n        listing.challengeId = pollNonce;\n\n        // Transfer tokens from challenger\n        require(token.transferFrom(msg.sender, address(this), _amount), \"Token transfer failed.\");\n\n        emit _Challenge(_listingHash, pollNonce, msg.sender);\n        return pollNonce;\n    }\n\n    // commits a vote for/against a listing\n    // plcr voting is not being used here\n    // to keep it simple, we just store the choice as a bool - true is for and false is against\n    function vote(bytes32 _listingHash, uint _amount, bool _choice) public {\n        Listing storage listing = listings[_listingHash];\n\n        // Listing must be in apply stage or already on the whitelist\n        require(appWasMade(_listingHash) || listing.whitelisted, \"Listing does not exist.\");\n\n        // Check if listing is challenged\n        require(listing.challengeId > 0 && !challenges[listing.challengeId].resolved, \"Listing is not challenged.\");\n\n        Poll storage poll = polls[listing.challengeId];\n\n        // check if commit stage is active\n        /* solium-disable-next-line security/no-block-members */\n        require(poll.commitEndDate > now, \"Commit period has passed.\");\n\n        // Transfer tokens from voter\n        require(token.transferFrom(msg.sender, address(this), _amount), \"Token transfer failed.\");\n\n        if(_choice) {\n            poll.votesFor += _amount;\n        } else {\n            poll.votesAgainst += _amount;\n        }\n\n        // TODO: fix vote override when same person is voting again\n        poll.votes[msg.sender] = Vote({\n            value: _choice,\n            stake: _amount,\n            claimed: false\n        });\n\n        emit _Vote(_listingHash, listing.challengeId, msg.sender);\n    }\n\n    // check if the listing can be whitelisted\n    function canBeWhitelisted(bytes32 _listingHash) public view returns (bool) {\n        uint challengeId = listings[_listingHash].challengeId;\n\n        // Ensures that the application was made,\n        // the application period has ended,\n        // the listingHash can be whitelisted,\n        // and either: the challengeId == 0, or the challenge has been resolved.\n        /* solium-disable */\n        if (appWasMade(_listingHash) && \n            listings[_listingHash].applicationExpiry < now && \n            !isWhitelisted(_listingHash) &&\n            (challengeId == 0 || challenges[challengeId].resolved == true)) {\n            return true; \n        }\n\n        return false;\n    }\n\n    // updates the status of a listing\n    function updateStatus(bytes32 _listingHash) public {\n        if (canBeWhitelisted(_listingHash)) {\n            listings[_listingHash].whitelisted = true;\n        } else {\n            resolveChallenge(_listingHash);\n        }\n    }\n\n    // ends a poll and returns if the poll passed or not\n    function endPoll(uint challengeId) private returns (bool didPass) {\n        require(polls[challengeId].commitEndDate > 0, \"Poll does not exist.\");\n        Poll storage poll = polls[challengeId];\n\n        // check if commit stage is active\n        /* solium-disable-next-line security/no-block-members */\n        require(poll.commitEndDate < now, \"Commit period is active.\");\n\n        if (poll.votesFor >= poll.votesAgainst) {\n            poll.passed = true;\n        } else {\n            poll.passed = false;\n        }\n\n        return poll.passed;\n    }\n\n    // resolves a challenge and calculates rewards\n    function resolveChallenge(bytes32 _listingHash) private {\n        // Check if listing is challenged\n        Listing memory listing = listings[_listingHash];\n        require(listing.challengeId > 0 && !challenges[listing.challengeId].resolved, \"Listing is not challenged.\");\n\n        uint challengeId = listing.challengeId;\n\n        // end the poll\n        bool pollPassed = endPoll(challengeId);\n\n        // updated challenge status\n        challenges[challengeId].resolved = true;\n\n        address challenger = challenges[challengeId].challenger;\n\n        // Case: challenge failed\n        if (pollPassed) {\n            challenges[challengeId].totalTokens = polls[challengeId].votesFor;\n            challenges[challengeId].rewardPool = challenges[challengeId].stake + polls[challengeId].votesAgainst;\n            listings[_listingHash].whitelisted = true;\n        } else { // Case: challenge succeeded\n            // give back the challenge stake to the challenger\n            require(token.transfer(challenger, challenges[challengeId].stake), \"Challenge stake return failed.\");\n            challenges[challengeId].totalTokens = polls[challengeId].votesAgainst;\n            challenges[challengeId].rewardPool = listing.deposit + polls[challengeId].votesFor;\n\n\t    //Data memory data = listings[_listingHash].Data;\n\t    string memory courseHash = listings[_listingHash].data.course;\n\t    uint rating = listings[_listingHash].data.rating;\n\t    Course memory temp_course = courses[courseHash];\t\n\t    if (courses[courseHash].numberOfReviews == 1)\n\t\t{delete courses[courseHash];\n\t\tdelete courseNames[temp_course.arrIndex];\n\t\t}\n\t    else {\n\t    courses[courseHash].courseTotal = courses[courseHash].courseTotal  - rating;\n\t    courses[courseHash].numberOfReviews = courses[courseHash].numberOfReviews - 1;\n\t\t}\n        delete listings[_listingHash];\n        delete listingNames[listing.arrIndex];\n\t    delete listingHashes[listing.arrIndex];\n        }\n\n        emit _ResolveChallenge(_listingHash, challengeId, msg.sender);\n    }\n\n    // claim rewards for a vote\n    function claimRewards(uint challengeId) public {\n        // check if challenge is resolved\n        require(challenges[challengeId].resolved == true, \"Challenge is not resolved.\");\n        \n        Poll storage poll = polls[challengeId];\n        Vote storage voteInstance = poll.votes[msg.sender];\n        \n        // check if vote reward is already claimed\n        require(voteInstance.claimed == false, \"Vote reward is already claimed.\");\n\n        // if winning party, calculate reward and transfer\n        if((poll.passed && voteInstance.value) || (!poll.passed && !voteInstance.value)) {\n            uint reward = (challenges[challengeId].rewardPool.mul(voteInstance.stake)).div(challenges[challengeId].totalTokens);\n            uint total = voteInstance.stake.add(reward);\n            require(token.transfer(msg.sender, total), \"Voting reward transfer failed.\");\n            emit _RewardClaimed(challengeId, total, msg.sender);\n        }\n\n        voteInstance.claimed = true;\n    }\n}\n",
  "sourcePath": "/home/kenrick/demo/TCR-CourseReviews/contracts/tcr.sol",
  "compiler": {
    "name": "solc",
    "version": "0.5.8+commit.23d335f2.Emscripten.clang"
  },
  "schemaVersion": "3.0.2",
  "updatedAt": "2019-10-28T19:03:47.589Z",
  "devdoc": {
    "methods": {}
  },
  "userdoc": {
    "methods": {}
  }
}