{
  "contractName": "Tcr",
  "abi": [
    {
      "constant": true,
      "inputs": [],
      "name": "name",
      "outputs": [
        {
          "name": "",
          "type": "string"
        }
      ],
      "payable": false,
      "stateMutability": "view",
      "type": "function",
      "signature": "0x06fdde03"
    },
    {
      "constant": true,
      "inputs": [],
      "name": "minDeposit",
      "outputs": [
        {
          "name": "",
          "type": "uint256"
        }
      ],
      "payable": false,
      "stateMutability": "view",
      "type": "function",
      "signature": "0x41b3d185"
    },
    {
      "constant": true,
      "inputs": [],
      "name": "applyStageLen",
      "outputs": [
        {
          "name": "",
          "type": "uint256"
        }
      ],
      "payable": false,
      "stateMutability": "view",
      "type": "function",
      "signature": "0x7f073360"
    },
    {
      "constant": true,
      "inputs": [],
      "name": "pollNonce",
      "outputs": [
        {
          "name": "",
          "type": "uint256"
        }
      ],
      "payable": false,
      "stateMutability": "view",
      "type": "function",
      "signature": "0x97508f36"
    },
    {
      "constant": true,
      "inputs": [],
      "name": "commitStageLen",
      "outputs": [
        {
          "name": "",
          "type": "uint256"
        }
      ],
      "payable": false,
      "stateMutability": "view",
      "type": "function",
      "signature": "0xa63dd198"
    },
    {
      "constant": true,
      "inputs": [
        {
          "name": "",
          "type": "uint256"
        }
      ],
      "name": "listingNames",
      "outputs": [
        {
          "name": "",
          "type": "string"
        }
      ],
      "payable": false,
      "stateMutability": "view",
      "type": "function",
      "signature": "0xd7ab802d"
    },
    {
      "constant": true,
      "inputs": [
        {
          "name": "",
          "type": "uint256"
        }
      ],
      "name": "courseNames",
      "outputs": [
        {
          "name": "",
          "type": "string"
        }
      ],
      "payable": false,
      "stateMutability": "view",
      "type": "function",
      "signature": "0xe59fde15"
    },
    {
      "constant": true,
      "inputs": [
        {
          "name": "",
          "type": "uint256"
        }
      ],
      "name": "listingHashes",
      "outputs": [
        {
          "name": "",
          "type": "bytes32"
        }
      ],
      "payable": false,
      "stateMutability": "view",
      "type": "function",
      "signature": "0xe6415222"
    },
    {
      "constant": true,
      "inputs": [],
      "name": "token",
      "outputs": [
        {
          "name": "",
          "type": "address"
        }
      ],
      "payable": false,
      "stateMutability": "view",
      "type": "function",
      "signature": "0xfc0c546a"
    },
    {
      "inputs": [
        {
          "name": "_name",
          "type": "string"
        },
        {
          "name": "_token",
          "type": "address"
        },
        {
          "name": "_parameters",
          "type": "uint256[]"
        }
      ],
      "payable": false,
      "stateMutability": "nonpayable",
      "type": "constructor",
      "signature": "constructor"
    },
    {
      "anonymous": false,
      "inputs": [
        {
          "indexed": true,
          "name": "listingHash",
          "type": "bytes32"
        },
        {
          "indexed": false,
          "name": "deposit",
          "type": "uint256"
        },
        {
          "indexed": false,
          "name": "data",
          "type": "string"
        },
        {
          "indexed": true,
          "name": "applicant",
          "type": "address"
        }
      ],
      "name": "_Application",
      "type": "event",
      "signature": "0xe1cdd401be51ef2c8159945a96274b69ba482f2a5e2131700beeda434fd6d58f"
    },
    {
      "anonymous": false,
      "inputs": [
        {
          "indexed": true,
          "name": "listingHash",
          "type": "bytes32"
        },
        {
          "indexed": false,
          "name": "challengeId",
          "type": "uint256"
        },
        {
          "indexed": true,
          "name": "challenger",
          "type": "address"
        }
      ],
      "name": "_Challenge",
      "type": "event",
      "signature": "0xc911f55bb4170a166467bde15c8799c1d2bb96a79f6bd9bc5cd3a4f05f768f6f"
    },
    {
      "anonymous": false,
      "inputs": [
        {
          "indexed": true,
          "name": "listingHash",
          "type": "bytes32"
        },
        {
          "indexed": false,
          "name": "challengeId",
          "type": "uint256"
        },
        {
          "indexed": true,
          "name": "voter",
          "type": "address"
        }
      ],
      "name": "_Vote",
      "type": "event",
      "signature": "0x7a1c5ce18abad3692f6bdf85262d38c3ad4ee5cabf88020e5a0e4d6b841d8376"
    },
    {
      "anonymous": false,
      "inputs": [
        {
          "indexed": true,
          "name": "listingHash",
          "type": "bytes32"
        },
        {
          "indexed": false,
          "name": "challengeId",
          "type": "uint256"
        },
        {
          "indexed": true,
          "name": "resolver",
          "type": "address"
        }
      ],
      "name": "_ResolveChallenge",
      "type": "event",
      "signature": "0x779e2848f275ef7b62be066e59dc34b2b8d79758079849859de844a3d9b9fb0d"
    },
    {
      "anonymous": false,
      "inputs": [
        {
          "indexed": true,
          "name": "challengeId",
          "type": "uint256"
        },
        {
          "indexed": false,
          "name": "reward",
          "type": "uint256"
        },
        {
          "indexed": true,
          "name": "voter",
          "type": "address"
        }
      ],
      "name": "_RewardClaimed",
      "type": "event",
      "signature": "0x6f4c982acc31b0af2cf1dc1556f21c0325d893782d65e83c68a5534a33f59957"
    },
    {
      "constant": true,
      "inputs": [
        {
          "name": "_listingHash",
          "type": "bytes32"
        }
      ],
      "name": "isWhitelisted",
      "outputs": [
        {
          "name": "whitelisted",
          "type": "bool"
        }
      ],
      "payable": false,
      "stateMutability": "view",
      "type": "function",
      "signature": "0x01a5e3fe"
    },
    {
      "constant": true,
      "inputs": [
        {
          "name": "_listingHash",
          "type": "bytes32"
        }
      ],
      "name": "appWasMade",
      "outputs": [
        {
          "name": "exists",
          "type": "bool"
        }
      ],
      "payable": false,
      "stateMutability": "view",
      "type": "function",
      "signature": "0x8cf8151f"
    },
    {
      "constant": true,
      "inputs": [],
      "name": "getAllListings",
      "outputs": [
        {
          "name": "",
          "type": "string[]"
        },
        {
          "name": "",
          "type": "bytes32[]"
        },
        {
          "name": "",
          "type": "bool[]"
        }
      ],
      "payable": false,
      "stateMutability": "view",
      "type": "function",
      "signature": "0xae73ccec"
    },
    {
      "constant": true,
      "inputs": [],
      "name": "getAllCourses",
      "outputs": [
        {
          "name": "",
          "type": "string[]"
        },
        {
          "name": "",
          "type": "uint256[]"
        },
        {
          "name": "",
          "type": "uint256[]"
        }
      ],
      "payable": false,
      "stateMutability": "view",
      "type": "function",
      "signature": "0x04e48bd1"
    },
    {
      "constant": true,
      "inputs": [],
      "name": "getDetails",
      "outputs": [
        {
          "name": "",
          "type": "string"
        },
        {
          "name": "",
          "type": "address"
        },
        {
          "name": "",
          "type": "uint256"
        },
        {
          "name": "",
          "type": "uint256"
        },
        {
          "name": "",
          "type": "uint256"
        }
      ],
      "payable": false,
      "stateMutability": "view",
      "type": "function",
      "signature": "0xfbbf93a0"
    },
    {
      "constant": true,
      "inputs": [
        {
          "name": "_listingHash",
          "type": "bytes32"
        }
      ],
      "name": "getListingDetails",
      "outputs": [
        {
          "name": "",
          "type": "bool"
        },
        {
          "name": "",
          "type": "address"
        },
        {
          "name": "",
          "type": "uint256"
        },
        {
          "name": "",
          "type": "uint256"
        },
        {
          "name": "",
          "type": "string"
        }
      ],
      "payable": false,
      "stateMutability": "view",
      "type": "function",
      "signature": "0x7b356561"
    },
    {
      "constant": true,
      "inputs": [
        {
          "name": "_courseHash",
          "type": "string"
        }
      ],
      "name": "getCourseDetails",
      "outputs": [
        {
          "name": "",
          "type": "string"
        },
        {
          "name": "",
          "type": "uint256"
        },
        {
          "name": "",
          "type": "uint256"
        }
      ],
      "payable": false,
      "stateMutability": "view",
      "type": "function",
      "signature": "0x53f5c185"
    },
    {
      "constant": true,
      "inputs": [
        {
          "name": "_courseHash",
          "type": "string"
        }
      ],
      "name": "CourseExists",
      "outputs": [
        {
          "name": "",
          "type": "uint256"
        }
      ],
      "payable": false,
      "stateMutability": "view",
      "type": "function",
      "signature": "0x2ef116ff"
    },
    {
      "constant": false,
      "inputs": [
        {
          "name": "_amount",
          "type": "uint256"
        },
        {
          "name": "_roll",
          "type": "string"
        },
        {
          "name": "_course",
          "type": "string"
        },
        {
          "name": "_review",
          "type": "string"
        },
        {
          "name": "_rating",
          "type": "uint256"
        }
      ],
      "name": "propose",
      "outputs": [],
      "payable": false,
      "stateMutability": "nonpayable",
      "type": "function",
      "signature": "0x533e6d88"
    },
    {
      "constant": false,
      "inputs": [
        {
          "name": "_listingHash",
          "type": "bytes32"
        },
        {
          "name": "_amount",
          "type": "uint256"
        }
      ],
      "name": "challenge",
      "outputs": [
        {
          "name": "challengeId",
          "type": "uint256"
        }
      ],
      "payable": false,
      "stateMutability": "nonpayable",
      "type": "function",
      "signature": "0xe2083c18"
    },
    {
      "constant": false,
      "inputs": [
        {
          "name": "_listingHash",
          "type": "bytes32"
        },
        {
          "name": "_amount",
          "type": "uint256"
        },
        {
          "name": "_choice",
          "type": "bool"
        }
      ],
      "name": "vote",
      "outputs": [],
      "payable": false,
      "stateMutability": "nonpayable",
      "type": "function",
      "signature": "0x2c729fd1"
    },
    {
      "constant": true,
      "inputs": [
        {
          "name": "_listingHash",
          "type": "bytes32"
        }
      ],
      "name": "canBeWhitelisted",
      "outputs": [
        {
          "name": "",
          "type": "bool"
        }
      ],
      "payable": false,
      "stateMutability": "view",
      "type": "function",
      "signature": "0x691a38ab"
    },
    {
      "constant": false,
      "inputs": [
        {
          "name": "_listingHash",
          "type": "bytes32"
        }
      ],
      "name": "updateStatus",
      "outputs": [],
      "payable": false,
      "stateMutability": "nonpayable",
      "type": "function",
      "signature": "0x8a59eb56"
    },
    {
      "constant": false,
      "inputs": [
        {
          "name": "challengeId",
          "type": "uint256"
        }
      ],
      "name": "claimRewards",
      "outputs": [],
      "payable": false,
      "stateMutability": "nonpayable",
      "type": "function",
      "signature": "0x0962ef79"
    }
  ],
  "bytecode": "0x60806040523480156200001157600080fd5b50604051620054ca380380620054ca83398101806040526200003791908101906200032f565b600073ffffffffffffffffffffffffffffffffffffffff168273ffffffffffffffffffffffffffffffffffffffff161415620000aa576040517f08c379a0000000000000000000000000000000000000000000000000000000008152600401620000a1906200041f565b60405180910390fd5b81600760006101000a81548173ffffffffffffffffffffffffffffffffffffffff021916908373ffffffffffffffffffffffffffffffffffffffff16021790555082600890805190602001906200010392919062000169565b50806000815181106200011257fe5b6020026020010151600981905550806001815181106200012e57fe5b6020026020010151600a81905550806002815181106200014a57fe5b6020026020010151600b819055506000600c819055505050506200057e565b828054600181600116156101000203166002900490600052602060002090601f016020900481019282601f10620001ac57805160ff1916838001178555620001dd565b82800160010185558215620001dd579182015b82811115620001dc578251825591602001919060010190620001bf565b5b509050620001ec9190620001f0565b5090565b6200021591905b8082111562000211576000816000905550600101620001f7565b5090565b90565b60008151905062000229816200054a565b92915050565b600082601f8301126200024157600080fd5b81516200025862000252826200046f565b62000441565b915081818352602084019350602081019050838560208402820111156200027e57600080fd5b60005b83811015620002b2578162000297888262000318565b84526020840193506020830192505060018101905062000281565b5050505092915050565b600082601f830112620002ce57600080fd5b8151620002e5620002df8262000498565b62000441565b915080825260208301602083018583830111156200030257600080fd5b6200030f83828462000514565b50505092915050565b600081519050620003298162000564565b92915050565b6000806000606084860312156200034557600080fd5b600084015167ffffffffffffffff8111156200036057600080fd5b6200036e86828701620002bc565b9350506020620003818682870162000218565b925050604084015167ffffffffffffffff8111156200039f57600080fd5b620003ad868287016200022f565b9150509250925092565b6000620003c6602683620004c5565b91507f546f6b656e20616464726573732073686f756c64206e6f74206265203020616460008301527f64726573732e00000000000000000000000000000000000000000000000000006020830152604082019050919050565b600060208201905081810360008301526200043a81620003b7565b9050919050565b6000604051905081810181811067ffffffffffffffff821117156200046557600080fd5b8060405250919050565b600067ffffffffffffffff8211156200048757600080fd5b602082029050602081019050919050565b600067ffffffffffffffff821115620004b057600080fd5b601f19601f8301169050602081019050919050565b600082825260208201905092915050565b6000620004e382620004ea565b9050919050565b600073ffffffffffffffffffffffffffffffffffffffff82169050919050565b6000819050919050565b60005b838110156200053457808201518184015260208101905062000517565b8381111562000544576000848401525b50505050565b6200055581620004d6565b81146200056157600080fd5b50565b6200056f816200050a565b81146200057b57600080fd5b50565b614f3c806200058e6000396000f3fe608060405234801561001057600080fd5b506004361061016a576000357c0100000000000000000000000000000000000000000000000000000000900480637f073360116100e0578063d7ab802d11610099578063d7ab802d146103db578063e2083c181461040b578063e59fde151461043b578063e64152221461046b578063fbbf93a01461049b578063fc0c546a146104bd5761016a565b80637f073360146103155780638a59eb56146103335780638cf8151f1461034f57806397508f361461037f578063a63dd1981461039d578063ae73ccec146103bb5761016a565b80632ef116ff116101325780632ef116ff1461021557806341b3d18514610245578063533e6d881461026357806353f5c1851461027f578063691a38ab146102b15780637b356561146102e15761016a565b806301a5e3fe1461016f57806304e48bd11461019f57806306fdde03146101bf5780630962ef79146101dd5780632c729fd1146101f9575b600080fd5b61018960048036036101849190810190613c1e565b6104db565b6040516101969190614888565b60405180910390f35b6101a7610508565b6040516101b69392919061483c565b60405180910390f35b6101c76107f9565b6040516101d49190614933565b60405180910390f35b6101f760048036036101f29190810190613d13565b610897565b005b610213600480360361020e9190810190613c83565b610c0a565b005b61022f600480360361022a9190810190613cd2565b610f9e565b60405161023c9190614bed565b60405180910390f35b61024d610fc9565b60405161025a9190614bed565b60405180910390f35b61027d60048036036102789190810190613d3c565b610fcf565b005b61029960048036036102949190810190613cd2565b611594565b6040516102a8939291906149af565b60405180910390f35b6102cb60048036036102c69190810190613c1e565b6116c2565b6040516102d89190614888565b60405180910390f35b6102fb60048036036102f69190810190613c1e565b611771565b60405161030c9594939291906148a3565b60405180910390f35b61031d611ac7565b60405161032a9190614bed565b60405180910390f35b61034d60048036036103489190810190613c1e565b611acd565b005b61036960048036036103649190810190613c1e565b611b1c565b6040516103769190614888565b60405180910390f35b610387611b3e565b6040516103949190614bed565b60405180910390f35b6103a5611b44565b6040516103b29190614bed565b60405180910390f35b6103c3611b4a565b6040516103d2939291906147f0565b60405180910390f35b6103f560048036036103f09190810190613d13565b611f84565b6040516104029190614933565b60405180910390f35b61042560048036036104209190810190613c47565b61203d565b6040516104329190614bed565b60405180910390f35b61045560048036036104509190810190613d13565b6124a6565b6040516104629190614933565b60405180910390f35b61048560048036036104809190810190613d13565b61255f565b60405161049291906148fd565b60405180910390f35b6104a3612580565b6040516104b4959493929190614955565b60405180910390f35b6104c5612666565b6040516104d29190614918565b60405180910390f35b60006003600083815260200190815260200160002060010160009054906101000a900460ff169050919050565b60608060608060028054905060405190808252806020026020018201604052801561054757816020015b60608152602001906001900390816105325790505b50905060606002805490506040519080825280602002602001820160405280156105805781602001602082028038833980820191505090505b50905060606002805490506040519080825280602002602001820160405280156105b95781602001602082028038833980820191505090505b50905060008090505b6002805490508110156107e757600281815481106105dc57fe5b906000526020600020018054600181600116156101000203166002900480601f01602080910402602001604051908101604052809291908181526020018280546001816001161561010002031660029004801561067a5780601f1061064f5761010080835404028352916020019161067a565b820191906000526020600020905b81548152906001019060200180831161065d57829003601f168201915b505050505084828151811061068b57fe5b602002602001018190525061069e6138ea565b6001600283815481106106ad57fe5b906000526020600020016040516106c49190614750565b9081526020016040518091039020604051806080016040529081600082018054600181600116156101000203166002900480601f0160208091040260200160405190810160405280929190818152602001828054600181600116156101000203166002900480156107765780601f1061074b57610100808354040283529160200191610776565b820191906000526020600020905b81548152906001019060200180831161075957829003601f168201915b505050505081526020016001820154815260200160028201548152602001600382015481525050905080602001518483815181106107b057fe5b60200260200101818152505080604001518383815181106107cd57fe5b6020026020010181815250505080806001019150506105c2565b50828282955095509550505050909192565b60088054600181600116156101000203166002900480601f01602080910402602001604051908101604052809291908181526020018280546001816001161561010002031660029004801561088f5780601f106108645761010080835404028352916020019161088f565b820191906000526020600020905b81548152906001019060200180831161087257829003601f168201915b505050505081565b6001151560008083815260200190815260200160002060000160149054906101000a900460ff16151514610900576040517f08c379a00000000000000000000000000000000000000000000000000000000081526004016108f790614b6d565b60405180910390fd5b600060066000838152602001908152602001600020905060008160040160003373ffffffffffffffffffffffffffffffffffffffff1673ffffffffffffffffffffffffffffffffffffffff1681526020019081526020016000209050600015158160020160009054906101000a900460ff161515146109b4576040517f08c379a00000000000000000000000000000000000000000000000000000000081526004016109ab90614a0d565b60405180910390fd5b8160030160009054906101000a900460ff1680156109e057508060000160009054906101000a900460ff165b80610a1557508160030160009054906101000a900460ff16158015610a1457508060000160009054906101000a900460ff16155b5b15610be8576000610a6f60008086815260200190815260200160002060030154610a6184600101546000808981526020019081526020016000206002015461268c90919063ffffffff16565b6126c690919063ffffffff16565b90506000610a8a8284600101546126ec90919063ffffffff16565b9050600760009054906101000a900473ffffffffffffffffffffffffffffffffffffffff1673ffffffffffffffffffffffffffffffffffffffff1663a9059cbb33836040518363ffffffff167c0100000000000000000000000000000000000000000000000000000000028152600401610b0592919061479e565b602060405180830381600087803b158015610b1f57600080fd5b505af1158015610b33573d6000803e3d6000fd5b505050506040513d601f19601f82011682018060405250610b579190810190613bf5565b610b96576040517f08c379a0000000000000000000000000000000000000000000000000000000008152600401610b8d90614a8d565b60405180910390fd5b3373ffffffffffffffffffffffffffffffffffffffff16857f6f4c982acc31b0af2cf1dc1556f21c0325d893782d65e83c68a5534a33f5995783604051610bdd9190614bed565b60405180910390a350505b60018160020160006101000a81548160ff021916908315150217905550505050565b6000600360008581526020019081526020016000209050610c2a84611b1c565b80610c4357508060010160009054906101000a900460ff165b610c82576040517f08c379a0000000000000000000000000000000000000000000000000000000008152600401610c7990614aed565b60405180910390fd5b60008160030154118015610cba57506000808260030154815260200190815260200160002060000160149054906101000a900460ff16155b610cf9576040517f08c379a0000000000000000000000000000000000000000000000000000000008152600401610cf090614a4d565b60405180910390fd5b60006006600083600301548152602001908152602001600020905042816002015411610d5a576040517f08c379a0000000000000000000000000000000000000000000000000000000008152600401610d5190614b0d565b60405180910390fd5b600760009054906101000a900473ffffffffffffffffffffffffffffffffffffffff1673ffffffffffffffffffffffffffffffffffffffff166323b872dd3330876040518463ffffffff167c0100000000000000000000000000000000000000000000000000000000028152600401610dd593929190614767565b602060405180830381600087803b158015610def57600080fd5b505af1158015610e03573d6000803e3d6000fd5b505050506040513d601f19601f82011682018060405250610e279190810190613bf5565b610e66576040517f08c379a0000000000000000000000000000000000000000000000000000000008152600401610e5d90614bad565b60405180910390fd5b8215610e8357838160000160008282540192505081905550610e96565b8381600101600082825401925050819055505b60405180606001604052808415158152602001858152602001600015158152508160040160003373ffffffffffffffffffffffffffffffffffffffff1673ffffffffffffffffffffffffffffffffffffffff16815260200190815260200160002060008201518160000160006101000a81548160ff0219169083151502179055506020820151816001015560408201518160020160006101000a81548160ff0219169083151502179055509050503373ffffffffffffffffffffffffffffffffffffffff16857f7a1c5ce18abad3692f6bdf85262d38c3ad4ee5cabf88020e5a0e4d6b841d83768460030154604051610f8f9190614bed565b60405180910390a35050505050565b6000600182604051610fb091906146d4565b9081526020016040518091039020600201549050919050565b60095481565b606087878787604051602001610fe894939291906146ac565b60405160208183030381529060405290506000808251141561100c57600060010290505b6020820151905061101c816104db565b1561105c576040517f08c379a000000000000000000000000000000000000000000000000000000000815260040161105390614bcd565b60405180910390fd5b61106581611b1c565b156110a5576040517f08c379a000000000000000000000000000000000000000000000000000000000815260040161109c906149ed565b60405180910390fd5b6009548a10156110ea576040517f08c379a00000000000000000000000000000000000000000000000000000000081526004016110e190614acd565b60405180910390fd5b6111c581338c8c8c8080601f016020809104026020016040519081016040528093929190818152602001838380828437600081840152601f19601f820116905080830192505050505050508b8b8080601f016020809104026020016040519081016040528093929190818152602001838380828437600081840152601f19601f820116905080830192505050505050508a8a8080601f016020809104026020016040519081016040528093929190818152602001838380828437600081840152601f19601f820116905080830192505050505050508961270b565b61121387878080601f016020809104026020016040519081016040528093929190818152602001838380828437600081840152601f19601f8201169050808301925050505050505084612aa0565b600760009054906101000a900473ffffffffffffffffffffffffffffffffffffffff1673ffffffffffffffffffffffffffffffffffffffff166323b872dd33308d6040518463ffffffff167c010000000000000000000000000000000000000000000000000000000002815260040161128e93929190614767565b602060405180830381600087803b1580156112a857600080fd5b505af11580156112bc573d6000803e3d6000fd5b505050506040513d601f19601f820116820180604052506112e09190810190613bf5565b61131f576040517f08c379a000000000000000000000000000000000000000000000000000000000815260040161131690614bad565b60405180910390fd5b3373ffffffffffffffffffffffffffffffffffffffff16817fe1cdd401be51ef2c8159945a96274b69ba482f2a5e2131700beeda434fd6d58f8c61157260036000878152602001908152602001600020600401604051806080016040529081600082018054600181600116156101000203166002900480601f0160208091040260200160405190810160405280929190818152602001828054600181600116156101000203166002900480156114165780601f106113eb57610100808354040283529160200191611416565b820191906000526020600020905b8154815290600101906020018083116113f957829003601f168201915b50505050508152602001600182018054600181600116156101000203166002900480601f0160208091040260200160405190810160405280929190818152602001828054600181600116156101000203166002900480156114b85780601f1061148d576101008083540402835291602001916114b8565b820191906000526020600020905b81548152906001019060200180831161149b57829003601f168201915b50505050508152602001600282018054600181600116156101000203166002900480601f01602080910402602001604051908101604052809291908181526020018280546001816001161561010002031660029004801561155a5780601f1061152f5761010080835404028352916020019161155a565b820191906000526020600020905b81548152906001019060200180831161153d57829003601f168201915b50505050508152602001600382015481525050612bbf565b604051611580929190614c08565b60405180910390a350505050505050505050565b60606000806115a16138ea565b6001856040516115b191906146d4565b9081526020016040518091039020604051806080016040529081600082018054600181600116156101000203166002900480601f0160208091040260200160405190810160405280929190818152602001828054600181600116156101000203166002900480156116635780601f1061163857610100808354040283529160200191611663565b820191906000526020600020905b81548152906001019060200180831161164657829003601f168201915b505050505081526020016001820154815260200160028201548152602001600382015481525050905080600001516116ac826040015183602001516126c690919063ffffffff16565b8260400151829250935093509350509193909250565b600080600360008481526020019081526020016000206003015490506116e783611b1c565b80156117085750426003600085815260200190815260200160002060000154105b801561171a5750611718836104db565b155b80156117575750600081148061175657506001151560008083815260200190815260200160002060000160149054906101000a900460ff161515145b5b1561176657600191505061176c565b60009150505b919050565b6000806000806060611781613912565b600360008881526020019081526020016000206040518060e0016040529081600082015481526020016001820160009054906101000a900460ff161515151581526020016001820160019054906101000a900473ffffffffffffffffffffffffffffffffffffffff1673ffffffffffffffffffffffffffffffffffffffff1673ffffffffffffffffffffffffffffffffffffffff168152602001600282015481526020016003820154815260200160048201604051806080016040529081600082018054600181600116156101000203166002900480601f0160208091040260200160405190810160405280929190818152602001828054600181600116156101000203166002900480156118d75780601f106118ac576101008083540402835291602001916118d7565b820191906000526020600020905b8154815290600101906020018083116118ba57829003601f168201915b50505050508152602001600182018054600181600116156101000203166002900480601f0160208091040260200160405190810160405280929190818152602001828054600181600116156101000203166002900480156119795780601f1061194e57610100808354040283529160200191611979565b820191906000526020600020905b81548152906001019060200180831161195c57829003601f168201915b50505050508152602001600282018054600181600116156101000203166002900480601f016020809104026020016040519081016040528092919081815260200182805460018160011615610100020316600290048015611a1b5780601f106119f057610100808354040283529160200191611a1b565b820191906000526020600020905b8154815290600101906020018083116119fe57829003601f168201915b5050505050815260200160038201548152505081526020016008820154815250509050611a4787611b1c565b80611a53575080602001515b611a92576040517f08c379a0000000000000000000000000000000000000000000000000000000008152600401611a8990614aed565b60405180910390fd5b8060200151816040015182606001518360800151611ab38560a00151612bbf565b955095509550955095505091939590929450565b600a5481565b611ad6816116c2565b15611b0f5760016003600083815260200190815260200160002060010160006101000a81548160ff021916908315150217905550611b19565b611b1881612c46565b5b50565b6000806003600084815260200190815260200160002060000154119050919050565b600c5481565b600b5481565b606080606080600480549050604051908082528060200260200182016040528015611b8957816020015b6060815260200190600190039081611b745790505b5090506060600580549050604051908082528060200260200182016040528015611bc25781602001602082028038833980820191505090505b5090506060600480549050604051908082528060200260200182016040528015611bfb5781602001602082028038833980820191505090505b509050611c06613912565b60008090505b600480549050811015611f71576003600060058381548110611c2a57fe5b906000526020600020015481526020019081526020016000206040518060e0016040529081600082015481526020016001820160009054906101000a900460ff161515151581526020016001820160019054906101000a900473ffffffffffffffffffffffffffffffffffffffff1673ffffffffffffffffffffffffffffffffffffffff1673ffffffffffffffffffffffffffffffffffffffff168152602001600282015481526020016003820154815260200160048201604051806080016040529081600082018054600181600116156101000203166002900480601f016020809104026020016040519081016040528092919081815260200182805460018160011615610100020316600290048015611d865780601f10611d5b57610100808354040283529160200191611d86565b820191906000526020600020905b815481529060010190602001808311611d6957829003601f168201915b50505050508152602001600182018054600181600116156101000203166002900480601f016020809104026020016040519081016040528092919081815260200182805460018160011615610100020316600290048015611e285780601f10611dfd57610100808354040283529160200191611e28565b820191906000526020600020905b815481529060010190602001808311611e0b57829003601f168201915b50505050508152602001600282018054600181600116156101000203166002900480601f016020809104026020016040519081016040528092919081815260200182805460018160011615610100020316600290048015611eca5780601f10611e9f57610100808354040283529160200191611eca565b820191906000526020600020905b815481529060010190602001808311611ead57829003601f168201915b5050505050815260200160038201548152505081526020016008820154815250509150611efa8260a00151612bbf565b858281518110611f0657fe5b602002602001018190525060058181548110611f1e57fe5b9060005260206000200154848281518110611f3557fe5b6020026020010181815250508160200151838281518110611f5257fe5b6020026020010190151590811515815250508080600101915050611c0c565b5083838396509650965050505050909192565b60048181548110611f9157fe5b906000526020600020016000915090508054600181600116156101000203166002900480601f0160208091040260200160405190810160405280929190818152602001828054600181600116156101000203166002900480156120355780601f1061200a57610100808354040283529160200191612035565b820191906000526020600020905b81548152906001019060200180831161201857829003601f168201915b505050505081565b60008060036000858152602001908152602001600020905061205e84611b1c565b8061207757508060010160009054906101000a900460ff165b6120b6576040517f08c379a00000000000000000000000000000000000000000000000000000000081526004016120ad90614aed565b60405180910390fd5b6000816003015414806120ec57506000808260030154815260200190815260200160002060000160149054906101000a900460ff165b61212b576040517f08c379a000000000000000000000000000000000000000000000000000000000815260040161212290614b8d565b60405180910390fd5b42816000015411612171576040517f08c379a000000000000000000000000000000000000000000000000000000000815260040161216890614aad565b60405180910390fd5b80600201548310156121b8576040517f08c379a00000000000000000000000000000000000000000000000000000000081526004016121af90614b4d565b60405180910390fd5b6001600c5401600c819055506040518060a001604052803373ffffffffffffffffffffffffffffffffffffffff168152602001600015158152602001848152602001600081526020016000815250600080600c54815260200190815260200160002060008201518160000160006101000a81548173ffffffffffffffffffffffffffffffffffffffff021916908373ffffffffffffffffffffffffffffffffffffffff16021790555060208201518160000160146101000a81548160ff021916908315150217905550604082015181600101556060820151816002015560808201518160030155905050604051806080016040528060008152602001600081526020016122d0600b54426126ec90919063ffffffff16565b81526020016000151581525060066000600c54815260200190815260200160002060008201518160000155602082015181600101556040820151816002015560608201518160030160006101000a81548160ff021916908315150217905550905050600c548160030181905550600760009054906101000a900473ffffffffffffffffffffffffffffffffffffffff1673ffffffffffffffffffffffffffffffffffffffff166323b872dd3330866040518463ffffffff167c01000000000000000000000000000000000000000000000000000000000281526004016123b893929190614767565b602060405180830381600087803b1580156123d257600080fd5b505af11580156123e6573d6000803e3d6000fd5b505050506040513d601f19601f8201168201806040525061240a9190810190613bf5565b612449576040517f08c379a000000000000000000000000000000000000000000000000000000000815260040161244090614bad565b60405180910390fd5b3373ffffffffffffffffffffffffffffffffffffffff16847fc911f55bb4170a166467bde15c8799c1d2bb96a79f6bd9bc5cd3a4f05f768f6f600c546040516124929190614bed565b60405180910390a3600c5491505092915050565b600281815481106124b357fe5b906000526020600020016000915090508054600181600116156101000203166002900480601f0160208091040260200160405190810160405280929190818152602001828054600181600116156101000203166002900480156125575780601f1061252c57610100808354040283529160200191612557565b820191906000526020600020905b81548152906001019060200180831161253a57829003601f168201915b505050505081565b6005818154811061256c57fe5b906000526020600020016000915090505481565b6060600080600080606060088054600181600116156101000203166002900480601f0160208091040260200160405190810160405280929190818152602001828054600181600116156101000203166002900480156126205780601f106125f557610100808354040283529160200191612620565b820191906000526020600020905b81548152906001019060200180831161260357829003601f168201915b5050505050905080600760009054906101000a900473ffffffffffffffffffffffffffffffffffffffff16600954600a54600b5495509550955095509550509091929394565b600760009054906101000a900473ffffffffffffffffffffffffffffffffffffffff1681565b60008083141561269f57600090506126c0565b60008284029050828482816126b057fe5b04146126bb57600080fd5b809150505b92915050565b60008082116126d457600080fd5b60008284816126df57fe5b0490508091505092915050565b60008082840190508381101561270157600080fd5b8091505092915050565b6000600360008981526020019081526020016000209050868160010160016101000a81548173ffffffffffffffffffffffffffffffffffffffff021916908373ffffffffffffffffffffffffffffffffffffffff1602179055506040518060800160405280868152602001858152602001848152602001838152508160040160008201518160000190805190602001906127a692919061396e565b5060208201518160010190805190602001906127c392919061396e565b5060408201518160020190805190602001906127e092919061396e565b506060820151816003015590505060058890806001815401808255809150509060018203906000526020600020016000909192909190915055506004612a2382600401604051806080016040529081600082018054600181600116156101000203166002900480601f0160208091040260200160405190810160405280929190818152602001828054600181600116156101000203166002900480156128c75780601f1061289c576101008083540402835291602001916128c7565b820191906000526020600020905b8154815290600101906020018083116128aa57829003601f168201915b50505050508152602001600182018054600181600116156101000203166002900480601f0160208091040260200160405190810160405280929190818152602001828054600181600116156101000203166002900480156129695780601f1061293e57610100808354040283529160200191612969565b820191906000526020600020905b81548152906001019060200180831161294c57829003601f168201915b50505050508152602001600282018054600181600116156101000203166002900480601f016020809104026020016040519081016040528092919081815260200182805460018160011615610100020316600290048015612a0b5780601f106129e057610100808354040283529160200191612a0b565b820191906000526020600020905b8154815290600101906020018083116129ee57829003601f168201915b50505050508152602001600382015481525050612bbf565b9080600181540180825580915050906001820390600052602060002001600090919290919091509080519060200190612a5d9291906139ee565b50506001600480549050038160080181905550612a85600a54426126ec90919063ffffffff16565b81600001819055508581600201819055505050505050505050565b6000612aab83610f9e565b1115612af8576000600183604051612ac391906146d4565b908152602001604051809103902090506001816002015401816002018190555081816001015401816001018190555050612bbb565b604051806080016040528083815260200182815260200160018152602001600280549050815250600183604051612b2f91906146d4565b90815260200160405180910390206000820151816000019080519060200190612b5992919061396e565b506020820151816001015560408201518160020155606082015181600301559050506002829080600181540180825580915050906001820390600052602060002001600090919290919091509080519060200190612bb89291906139ee565b50505b5050565b6060806040518060400160405280600181526020017f20000000000000000000000000000000000000000000000000000000000000008152509050826000015181846020015183866040015185612c19896060015161367e565b604051602001612c2f97969594939291906146eb565b604051602081830303815290604052915050919050565b612c4e613912565b600360008381526020019081526020016000206040518060e0016040529081600082015481526020016001820160009054906101000a900460ff161515151581526020016001820160019054906101000a900473ffffffffffffffffffffffffffffffffffffffff1673ffffffffffffffffffffffffffffffffffffffff1673ffffffffffffffffffffffffffffffffffffffff168152602001600282015481526020016003820154815260200160048201604051806080016040529081600082018054600181600116156101000203166002900480601f016020809104026020016040519081016040528092919081815260200182805460018160011615610100020316600290048015612da45780601f10612d7957610100808354040283529160200191612da4565b820191906000526020600020905b815481529060010190602001808311612d8757829003601f168201915b50505050508152602001600182018054600181600116156101000203166002900480601f016020809104026020016040519081016040528092919081815260200182805460018160011615610100020316600290048015612e465780601f10612e1b57610100808354040283529160200191612e46565b820191906000526020600020905b815481529060010190602001808311612e2957829003601f168201915b50505050508152602001600282018054600181600116156101000203166002900480601f016020809104026020016040519081016040528092919081815260200182805460018160011615610100020316600290048015612ee85780601f10612ebd57610100808354040283529160200191612ee8565b820191906000526020600020905b815481529060010190602001808311612ecb57829003601f168201915b505050505081526020016003820154815250508152602001600882015481525050905060008160800151118015612f4357506000808260800151815260200190815260200160002060000160149054906101000a900460ff16155b612f82576040517f08c379a0000000000000000000000000000000000000000000000000000000008152600401612f7990614a4d565b60405180910390fd5b6000816080015190506000612f96826137ca565b9050600160008084815260200190815260200160002060000160146101000a81548160ff021916908315150217905550600080600084815260200190815260200160002060000160009054906101000a900473ffffffffffffffffffffffffffffffffffffffff16905081156130b157600660008481526020019081526020016000206000015460008085815260200190815260200160002060030181905550600660008481526020019081526020016000206001015460008085815260200190815260200160002060010154016000808581526020019081526020016000206002018190555060016003600087815260200190815260200160002060010160006101000a81548160ff021916908315150217905550613628565b600760009054906101000a900473ffffffffffffffffffffffffffffffffffffffff1673ffffffffffffffffffffffffffffffffffffffff1663a9059cbb82600080878152602001908152602001600020600101546040518363ffffffff167c010000000000000000000000000000000000000000000000000000000002815260040161313f9291906147c7565b602060405180830381600087803b15801561315957600080fd5b505af115801561316d573d6000803e3d6000fd5b505050506040513d601f19601f820116820180604052506131919190810190613bf5565b6131d0576040517f08c379a00000000000000000000000000000000000000000000000000000000081526004016131c790614b2d565b60405180910390fd5b6006600084815260200190815260200160002060010154600080858152602001908152602001600020600301819055506006600084815260200190815260200160002060000154846060015101600080858152602001908152602001600020600201819055506060600360008781526020019081526020016000206004016001018054600181600116156101000203166002900480601f0160208091040260200160405190810160405280929190818152602001828054600181600116156101000203166002900480156132e55780601f106132ba576101008083540402835291602001916132e5565b820191906000526020600020905b8154815290600101906020018083116132c857829003601f168201915b505050505090506000600360008881526020019081526020016000206004016003015490506133126138ea565b60018360405161332291906146d4565b9081526020016040518091039020604051806080016040529081600082018054600181600116156101000203166002900480601f0160208091040260200160405190810160405280929190818152602001828054600181600116156101000203166002900480156133d45780601f106133a9576101008083540402835291602001916133d4565b820191906000526020600020905b8154815290600101906020018083116133b757829003601f168201915b50505050508152602001600182015481526020016002820154815260200160038201548152505090506001808460405161340e91906146d4565b908152602001604051809103902060020154141561349b5760018360405161343691906146d4565b9081526020016040518091039020600080820160006134559190613a6e565b6001820160009055600282016000905560038201600090555050600281606001518154811061348057fe5b9060005260206000200160006134969190613a6e565b61352e565b816001846040516134ac91906146d4565b908152602001604051809103902060010154036001846040516134cf91906146d4565b908152602001604051809103902060010181905550600180846040516134f591906146d4565b9081526020016040518091039020600201540360018460405161351891906146d4565b9081526020016040518091039020600201819055505b600360008981526020019081526020016000206000808201600090556001820160006101000a81549060ff02191690556001820160016101000a81549073ffffffffffffffffffffffffffffffffffffffff02191690556002820160009055600382016000905560048201600080820160006135aa9190613a6e565b6001820160006135ba9190613a6e565b6002820160006135ca9190613a6e565b600382016000905550506008820160009055505060048760c00151815481106135ef57fe5b9060005260206000200160006136059190613a6e565b60058760c001518154811061361657fe5b90600052602060002001600090555050505b3373ffffffffffffffffffffffffffffffffffffffff16857f779e2848f275ef7b62be066e59dc34b2b8d79758079849859de844a3d9b9fb0d8560405161366f9190614bed565b60405180910390a35050505050565b606060008214156136c6576040518060400160405280600181526020017f300000000000000000000000000000000000000000000000000000000000000081525090506137c5565b600082905060005b600082146136f0578080600101915050600a82816136e857fe5b0491506136ce565b6060816040519080825280601f01601f1916602001820160405280156137255781602001600182028038833980820191505090505b50905060006001830390505b600086146137bd57600a868161374357fe5b066030017f0100000000000000000000000000000000000000000000000000000000000000028282806001900393508151811061377c57fe5b60200101907effffffffffffffffffffffffffffffffffffffffffffffffffffffffffffff1916908160001a905350600a86816137b557fe5b049550613731565b819450505050505b919050565b600080600660008481526020019081526020016000206002015411613824576040517f08c379a000000000000000000000000000000000000000000000000000000000815260040161381b90614a2d565b60405180910390fd5b600060066000848152602001908152602001600020905042816002015410613881576040517f08c379a000000000000000000000000000000000000000000000000000000000815260040161387890614a6d565b60405180910390fd5b80600101548160000154106138b25760018160030160006101000a81548160ff0219169083151502179055506138d0565b60008160030160006101000a81548160ff0219169083151502179055505b8060030160009054906101000a900460ff16915050919050565b6040518060800160405280606081526020016000815260200160008152602001600081525090565b60405180610140016040528060008152602001600015158152602001600073ffffffffffffffffffffffffffffffffffffffff1681526020016000815260200160008152602001613961613ab6565b8152602001600081525090565b828054600181600116156101000203166002900490600052602060002090601f016020900481019282601f106139af57805160ff19168380011785556139dd565b828001600101855582156139dd579182015b828111156139dc5782518255916020019190600101906139c1565b5b5090506139ea9190613ade565b5090565b828054600181600116156101000203166002900490600052602060002090601f016020900481019282601f10613a2f57805160ff1916838001178555613a5d565b82800160010185558215613a5d579182015b82811115613a5c578251825591602001919060010190613a41565b5b509050613a6a9190613ade565b5090565b50805460018160011615610100020316600290046000825580601f10613a945750613ab3565b601f016020900490600052602060002090810190613ab29190613ade565b5b50565b6040518060800160405280606081526020016060815260200160608152602001600081525090565b613b0091905b80821115613afc576000816000905550600101613ae4565b5090565b90565b600081359050613b1281614ebd565b92915050565b600081519050613b2781614ebd565b92915050565b600081359050613b3c81614ed4565b92915050565b60008083601f840112613b5457600080fd5b8235905067ffffffffffffffff811115613b6d57600080fd5b602083019150836001820283011115613b8557600080fd5b9250929050565b600082601f830112613b9d57600080fd5b8135613bb0613bab82614c65565b614c38565b91508082526020830160208301858383011115613bcc57600080fd5b613bd7838284614e6a565b50505092915050565b600081359050613bef81614eeb565b92915050565b600060208284031215613c0757600080fd5b6000613c1584828501613b18565b91505092915050565b600060208284031215613c3057600080fd5b6000613c3e84828501613b2d565b91505092915050565b60008060408385031215613c5a57600080fd5b6000613c6885828601613b2d565b9250506020613c7985828601613be0565b9150509250929050565b600080600060608486031215613c9857600080fd5b6000613ca686828701613b2d565b9350506020613cb786828701613be0565b9250506040613cc886828701613b03565b9150509250925092565b600060208284031215613ce457600080fd5b600082013567ffffffffffffffff811115613cfe57600080fd5b613d0a84828501613b8c565b91505092915050565b600060208284031215613d2557600080fd5b6000613d3384828501613be0565b91505092915050565b60008060008060008060008060a0898b031215613d5857600080fd5b6000613d668b828c01613be0565b985050602089013567ffffffffffffffff811115613d8357600080fd5b613d8f8b828c01613b42565b9750975050604089013567ffffffffffffffff811115613dae57600080fd5b613dba8b828c01613b42565b9550955050606089013567ffffffffffffffff811115613dd957600080fd5b613de58b828c01613b42565b93509350506080613df88b828c01613be0565b9150509295985092959890939650565b6000613e148383614011565b60208301905092915050565b6000613e2c838361402f565b60208301905092915050565b6000613e4483836140eb565b905092915050565b6000613e58838361468e565b60208301905092915050565b613e6d81614e10565b82525050565b613e7c81614dbe565b82525050565b6000613e8d82614cd7565b613e978185614d4d565b9350613ea283614c91565b8060005b83811015613ed3578151613eba8882613e08565b9750613ec583614d19565b925050600181019050613ea6565b5085935050505092915050565b6000613eeb82614ce2565b613ef58185614d5e565b9350613f0083614c9e565b8060005b83811015613f31578151613f188882613e20565b9750613f2383614d26565b925050600181019050613f04565b5085935050505092915050565b6000613f4982614ced565b613f538185614d6f565b935083602082028501613f6585614cab565b8060005b85811015613fa15784840389528151613f828582613e38565b9450613f8d83614d33565b925060208a01995050600181019050613f69565b50829750879550505050505092915050565b6000613fbe82614cf8565b613fc88185614d80565b9350613fd383614cb8565b8060005b83811015614004578151613feb8882613e4c565b9750613ff683614d40565b925050600181019050613fd7565b5085935050505092915050565b61401a81614dd0565b82525050565b61402981614dd0565b82525050565b61403881614ddc565b82525050565b61404781614ddc565b82525050565b61405681614e22565b82525050565b60006140688385614db3565b9350614075838584614e6a565b82840190509392505050565b600061408c82614d0e565b6140968185614da2565b93506140a6818560208601614e79565b6140af81614eac565b840191505092915050565b60006140c582614d0e565b6140cf8185614db3565b93506140df818560208601614e79565b80840191505092915050565b60006140f682614d03565b6141008185614d91565b9350614110818560208601614e79565b61411981614eac565b840191505092915050565b600061412f82614d03565b6141398185614da2565b9350614149818560208601614e79565b61415281614eac565b840191505092915050565b600061416882614d03565b6141728185614db3565b9350614182818560208601614e79565b80840191505092915050565b6000815460018116600081146141ab57600181146141d057614214565b607f60028304166141bc8187614db3565b955060ff1983168652808601935050614214565b600282046141de8187614db3565b95506141e985614cc5565b60005b8281101561420b578154818901526001820191506020810190506141ec565b82880195505050505b505092915050565b6000614229602283614da2565b91507f4c697374696e6720697320616c726561647920696e206170706c79207374616760008301527f652e0000000000000000000000000000000000000000000000000000000000006020830152604082019050919050565b600061428f601f83614da2565b91507f566f74652072657761726420697320616c726561647920636c61696d65642e006000830152602082019050919050565b60006142cf601483614da2565b91507f506f6c6c20646f6573206e6f742065786973742e0000000000000000000000006000830152602082019050919050565b600061430f601a83614da2565b91507f4c697374696e67206973206e6f74206368616c6c656e6765642e0000000000006000830152602082019050919050565b600061434f601883614da2565b91507f436f6d6d697420706572696f64206973206163746976652e00000000000000006000830152602082019050919050565b600061438f601e83614da2565b91507f566f74696e6720726577617264207472616e73666572206661696c65642e00006000830152602082019050919050565b60006143cf601783614da2565b91507f4170706c7920737461676520686173207061737365642e0000000000000000006000830152602082019050919050565b600061440f602183614da2565b91507f4e6f7420656e6f756768207374616b6520666f72206170706c69636174696f6e60008301527f2e000000000000000000000000000000000000000000000000000000000000006020830152604082019050919050565b6000614475601783614da2565b91507f4c697374696e6720646f6573206e6f742065786973742e0000000000000000006000830152602082019050919050565b60006144b5601983614da2565b91507f436f6d6d697420706572696f6420686173207061737365642e000000000000006000830152602082019050919050565b60006144f5601e83614da2565b91507f4368616c6c656e6765207374616b652072657475726e206661696c65642e00006000830152602082019050919050565b6000614535602683614da2565b91507f4e6f7420656e6f756768207374616b652070617373656420666f72206368616c60008301527f6c656e67652e00000000000000000000000000000000000000000000000000006020830152604082019050919050565b600061459b601a83614da2565b91507f4368616c6c656e6765206973206e6f74207265736f6c7665642e0000000000006000830152602082019050919050565b60006145db601e83614da2565b91507f4c697374696e6720697320616c7265616479206368616c6c656e6765642e00006000830152602082019050919050565b600061461b601683614da2565b91507f546f6b656e207472616e73666572206661696c65642e000000000000000000006000830152602082019050919050565b600061465b601f83614da2565b91507f4c697374696e6720697320616c72656164792077686974656c69737465642e006000830152602082019050919050565b61469781614e06565b82525050565b6146a681614e06565b82525050565b60006146b982868861405c565b91506146c682848661405c565b915081905095945050505050565b60006146e082846140ba565b915081905092915050565b60006146f7828a61415d565b915061470382896140ba565b915061470f828861415d565b915061471b82876140ba565b9150614727828661415d565b915061473382856140ba565b915061473f82846140ba565b915081905098975050505050505050565b600061475c828461418e565b915081905092915050565b600060608201905061477c6000830186613e64565b6147896020830185613e73565b614796604083018461469d565b949350505050565b60006040820190506147b36000830185613e64565b6147c0602083018461469d565b9392505050565b60006040820190506147dc6000830185613e73565b6147e9602083018461469d565b9392505050565b6000606082019050818103600083015261480a8186613f3e565b9050818103602083015261481e8185613ee0565b905081810360408301526148328184613e82565b9050949350505050565b600060608201905081810360008301526148568186613f3e565b9050818103602083015261486a8185613fb3565b9050818103604083015261487e8184613fb3565b9050949350505050565b600060208201905061489d6000830184614020565b92915050565b600060a0820190506148b86000830188614020565b6148c56020830187613e73565b6148d2604083018661469d565b6148df606083018561469d565b81810360808301526148f18184614081565b90509695505050505050565b6000602082019050614912600083018461403e565b92915050565b600060208201905061492d600083018461404d565b92915050565b6000602082019050818103600083015261494d8184614124565b905092915050565b600060a082019050818103600083015261496f8188614081565b905061497e6020830187613e73565b61498b604083018661469d565b614998606083018561469d565b6149a5608083018461469d565b9695505050505050565b600060608201905081810360008301526149c98186614081565b90506149d8602083018561469d565b6149e5604083018461469d565b949350505050565b60006020820190508181036000830152614a068161421c565b9050919050565b60006020820190508181036000830152614a2681614282565b9050919050565b60006020820190508181036000830152614a46816142c2565b9050919050565b60006020820190508181036000830152614a6681614302565b9050919050565b60006020820190508181036000830152614a8681614342565b9050919050565b60006020820190508181036000830152614aa681614382565b9050919050565b60006020820190508181036000830152614ac6816143c2565b9050919050565b60006020820190508181036000830152614ae681614402565b9050919050565b60006020820190508181036000830152614b0681614468565b9050919050565b60006020820190508181036000830152614b26816144a8565b9050919050565b60006020820190508181036000830152614b46816144e8565b9050919050565b60006020820190508181036000830152614b6681614528565b9050919050565b60006020820190508181036000830152614b868161458e565b9050919050565b60006020820190508181036000830152614ba6816145ce565b9050919050565b60006020820190508181036000830152614bc68161460e565b9050919050565b60006020820190508181036000830152614be68161464e565b9050919050565b6000602082019050614c02600083018461469d565b92915050565b6000604082019050614c1d600083018561469d565b8181036020830152614c2f8184614081565b90509392505050565b6000604051905081810181811067ffffffffffffffff82111715614c5b57600080fd5b8060405250919050565b600067ffffffffffffffff821115614c7c57600080fd5b601f19601f8301169050602081019050919050565b6000602082019050919050565b6000602082019050919050565b6000602082019050919050565b6000602082019050919050565b60008160005260206000209050919050565b600081519050919050565b600081519050919050565b600081519050919050565b600081519050919050565b600081519050919050565b600081519050919050565b6000602082019050919050565b6000602082019050919050565b6000602082019050919050565b6000602082019050919050565b600082825260208201905092915050565b600082825260208201905092915050565b600082825260208201905092915050565b600082825260208201905092915050565b600082825260208201905092915050565b600082825260208201905092915050565b600081905092915050565b6000614dc982614de6565b9050919050565b60008115159050919050565b6000819050919050565b600073ffffffffffffffffffffffffffffffffffffffff82169050919050565b6000819050919050565b6000614e1b82614e46565b9050919050565b6000614e2d82614e34565b9050919050565b6000614e3f82614de6565b9050919050565b6000614e5182614e58565b9050919050565b6000614e6382614de6565b9050919050565b82818337600083830152505050565b60005b83811015614e97578082015181840152602081019050614e7c565b83811115614ea6576000848401525b50505050565b6000601f19601f8301169050919050565b614ec681614dd0565b8114614ed157600080fd5b50565b614edd81614ddc565b8114614ee857600080fd5b50565b614ef481614e06565b8114614eff57600080fd5b5056fea265627a7a723058206120eaceedfa4436819ede14b53b2274e3f40de1f1203e1acf14d122762da7be6c6578706572696d656e74616cf50037",
  "source": "// Most of the code in this contract is derived from the generic TCR implementation from Mike Goldin and (the adChain) team\n// This contract strips out most of the details and only keeps the basic TCR functionality (apply/propose, challenge, vote, resolve)\n// Consider this to be the \"hello world\" for TCR implementation\n// For real world usage, please refer to the generic TCR implementation\n// https://github.com/skmgoldin/tcr\n\npragma solidity ^0.5.8;\npragma experimental ABIEncoderV2;\n\nimport \"../node_modules/openzeppelin-solidity/contracts/token/ERC20/ERC20.sol\";\nimport \"../node_modules/openzeppelin-solidity/contracts/math/SafeMath.sol\";\n\ncontract Tcr {\n\n    using SafeMath for uint;\n\n    struct Data {\n        string rollNumber;\n        string course ;\n        string review;\n        uint rating;\n\t}\n\n    struct Course{\n        string courseCode;\n        uint courseTotal;\n        uint numberOfReviews;\n        uint arrIndex;\n\t}\n\n    struct Listing {\n        uint applicationExpiry; // Expiration date of apply stage\n        bool whitelisted;       // Indicates registry status\n        address owner;          // Owner of Listing\n        uint deposit;           // Number of tokens in the listing\n        uint challengeId;       // the challenge id of the current challenge\n        Data data;            // name of listing (for UI)\n        uint arrIndex;          // arrayIndex of listing in listingNames array (for deletion)\n\t\n    }\n\n    // instead of using the elegant PLCR voting, we are using just a list because this is *simple-TCR*\n    struct Vote {\n        bool value;\n        uint stake;\n        bool claimed;\n    }\n\n    struct Poll {\n        uint votesFor;\n        uint votesAgainst;\n        uint commitEndDate;\n        bool passed;\n        mapping(address => Vote) votes; // revealed by default; no partial locking\n    }\n\n    struct Challenge {\n        address challenger;     // Owner of Challenge3\n        bool resolved;          // Indication of if challenge is resolved\n        uint stake;             // Number of tokens at stake for either party during challenge\n        uint rewardPool;        // number of tokens from losing side - winning reward\n        uint totalTokens;       // number of tokens from winning side - to be returned\n    }\n\n    // Maps challengeIDs to associated challenge data\n    mapping(uint => Challenge) private challenges;\n\n    mapping(string => Course) private courses;\n    string[] public courseNames;\n\n    // Maps listingHashes to associated listingHash data\n    mapping(bytes32 => Listing) private listings;\n    string[] public listingNames;\n    bytes32[] public listingHashes;\n\n    // Maps polls to associated challenge\n    mapping(uint => Poll) private polls;\n\n    // Global Variables\n    ERC20 public token;\n    string public name;\n    uint public minDeposit;\n    uint public applyStageLen;\n    uint public commitStageLen;\n\n    uint constant private INITIAL_POLL_NONCE = 0;\n    uint public pollNonce;\n\n    // Events\n    event _Application(bytes32 indexed listingHash, uint deposit, string data, address indexed applicant);\n    event _Challenge(bytes32 indexed listingHash, uint challengeId, address indexed challenger);\n    event _Vote(bytes32 indexed listingHash, uint challengeId, address indexed voter);\n    event _ResolveChallenge(bytes32 indexed listingHash, uint challengeId, address indexed resolver);\n    event _RewardClaimed(uint indexed challengeId, uint reward, address indexed voter);\n\n    // using the constructor to initialize the TCR parameters\n    // again, to keep it simple, skipping the Parameterizer and ParameterizerFactory\n    constructor(\n        string memory _name,\n        address _token,\n        uint[] memory _parameters\n    ) public {\n        require(_token != address(0), \"Token address should not be 0 address.\");\n\n        token = ERC20(_token);\n        name = _name;\n\n        // minimum deposit for listing to be whitelisted\n        minDeposit = _parameters[0];\n\n        // period over which applicants wait to be whitelisted\n        applyStageLen = _parameters[1];\n\n        // length of commit period for voting\n        commitStageLen = _parameters[2];\n\n        // Initialize the poll nonce\n        pollNonce = INITIAL_POLL_NONCE;\n    }\n\n   function uint2str(uint _i) internal pure returns (string memory _uintAsString) {\n    if (_i == 0) {\n        return \"0\";\n    }\n    uint j = _i;\n    uint len;\n    while (j != 0) {\n        len++;\n        j /= 10;\n    }\n    bytes memory bstr = new bytes(len);\n    uint k = len - 1;\n    while (_i != 0) {\n        bstr[k--] = byte(uint8(48 + _i % 10));\n        _i /= 10;\n    }\n    return string(bstr);\n\t}\n\n    function strReview(Data memory data) private pure returns (string memory){\n\t    string memory space = \" \";\n    \treturn string(abi.encodePacked(data.rollNumber, space, data.course, space, data.review, space, uint2str(data.rating)));\n    }\n    // returns whether a listing is already whitelisted\n    function isWhitelisted(bytes32 _listingHash) public view returns (bool whitelisted) {\n        return listings[_listingHash].whitelisted;\n    }\n\n    // returns if a listing is in apply stage\n    function appWasMade(bytes32 _listingHash) public view returns (bool exists) {\n        return listings[_listingHash].applicationExpiry > 0;\n    }\n\n    // get all listing names (for UI)\n    // not to be used in a production use case\n    function getAllListings() public view returns (string[] memory, bytes32[] memory, bool[] memory) {\n        string[] memory listingArr = new string[](listingNames.length);\n        bytes32[] memory hashArr = new bytes32[](listingHashes.length);\n        bool[] memory whitelistedArr = new bool[](listingNames.length);\n        Listing memory templisting;\n        for (uint256 i = 0; i < listingNames.length; i++) {\n            templisting = listings[listingHashes[i]];\n            listingArr[i] = strReview(templisting.data);\n\t        hashArr[i] = listingHashes[i];\n            whitelistedArr[i] = templisting.whitelisted;\n        }\n        return (listingArr, hashArr, whitelistedArr);\n    }\n\n    function getAllCourses() public view returns (string[] memory,uint[] memory, uint[] memory) {\n        string[] memory courseArr = new string[](courseNames.length);\n\t    uint[] memory coursetotalArr = new uint[](courseNames.length);\n\t    uint[] memory numberReviewsArr = new uint[] (courseNames.length);\n\n        for (uint256 i = 0; i < courseNames.length; i++) {\n            courseArr[i] = courseNames[i];\n\t        Course memory temp_course = courses[courseNames[i]];\n\t        coursetotalArr[i] = temp_course.courseTotal;\n    \t    numberReviewsArr[i] = temp_course.numberOfReviews;\n        }\n        return (courseArr, coursetotalArr, numberReviewsArr);\n    }\n\n    // get details of this registry (for UI)\n    function getDetails() public view returns (string memory, address, uint, uint, uint) {\n        string memory _name = name;\n        return (_name, address(token), minDeposit, applyStageLen, commitStageLen);\n    }\n\n    // get details of a listing (for UI)\n    function getListingDetails(bytes32 _listingHash) public view returns (bool, address, uint, uint, string memory) {\n        Listing memory listingIns = listings[_listingHash];\n        // Listing must be in apply stage or already on the whitelist\n        require(appWasMade(_listingHash) || listingIns.whitelisted, \"Listing does not exist.\");\n\n        return (listingIns.whitelisted, listingIns.owner, listingIns.deposit, listingIns.challengeId,strReview(listingIns.data));\n    }\n\n    function getCourseDetails(string memory _courseHash) public view returns (string memory, uint, uint){\n\t    Course memory courseIns = courses[_courseHash];\n\t    return (courseIns.courseCode, courseIns.courseTotal.div(courseIns.numberOfReviews),courseIns.numberOfReviews);\n    }\n\n    function CourseExists(string memory _courseHash) public view returns (uint) {\n        return courses[_courseHash].numberOfReviews;\n    }\n\n    function createNewCourse(string memory _courseCode, uint _course_rating) private {\n\t    if (CourseExists(_courseCode) > 0){\n            Course storage temp_course = courses[_courseCode];\n            temp_course.numberOfReviews = temp_course.numberOfReviews + 1;\n            temp_course.courseTotal = (temp_course.courseTotal + _course_rating);\n        } else {\n            courses[_courseCode] = Course({\n                courseCode: _courseCode,\n                courseTotal : _course_rating,\n                numberOfReviews : 1,\n                arrIndex : courseNames.length\n            });\n    \t    courseNames.push(_courseCode);\n\t    }\n    }\n\n    function createNewListing(bytes32 _listingHash, address sender, uint _amount,  string memory _roll, string memory _course, string memory _review, uint _rating) private  {\n    \t// Sets owner\n        Listing storage listing = listings[_listingHash];\n        listing.owner = sender;\n        listing.data = Data({\n            rollNumber: _roll,\n            course: _course,\n            review: _review,\n            rating : _rating\n        });\n\n\t    listingHashes.push(_listingHash);\n        listingNames.push(strReview(listing.data));\n        listing.arrIndex = listingNames.length - 1;\n\n        // Sets apply stage end time\n        // now or block.timestamp is safe here (can live with ~15 sec apprmberOoximation)\n        /* solium-disable-next-line security/no-block-members */\n        listing.applicationExpiry = now.add(applyStageLen);\n        listing.deposit = _amount;\n    }\n\n    // proposes a listing to be whitelisted\n    function propose(uint _amount, string calldata _roll,  string calldata _course, string calldata _review, uint _rating ) external {\n\t    //change started\n\t    string memory source = string(abi.encodePacked(_roll, _course));\n\t    bytes32 _listingHash;\n    \tif (bytes(source).length == 0) {\n            _listingHash = 0x0;\n    \t}\n    \tassembly {\n            _listingHash := mload(add(source, 32))\n    \t}\n\t    //change ended\n\t    require(!isWhitelisted(_listingHash), \"Listing is already whitelisted.\");\n        require(!appWasMade(_listingHash), \"Listing is already in apply stage.\");\n        require(_amount >= minDeposit, \"Not enough stake for application.\");\n\n\t    createNewListing(_listingHash, msg.sender, _amount,  _roll, _course, _review, _rating);\n\t    createNewCourse(_course, _rating);\n\n        // Transfer tokens from user\n        require(token.transferFrom(msg.sender, address(this), _amount), \"Token transfer failed.\");\n        emit _Application(_listingHash, _amount, strReview(listings[_listingHash].data), msg.sender);\n    }\n\n    // challenges a listing from being whitelisted\n    function challenge(bytes32 _listingHash, uint _amount)\n        external returns (uint challengeId) {\n        Listing storage listing = listings[_listingHash];\n\n        // Listing must be in apply stage or already on the whitelist\n        require(appWasMade(_listingHash) || listing.whitelisted, \"Listing does not exist.\");\n\n        // Prevent multiple challenges\n        require(listing.challengeId == 0 || challenges[listing.challengeId].resolved, \"Listing is already challenged.\");\n\n        // check if apply stage is active\n        /* solium-disable-next-line security/no-block-members */\n        require(listing.applicationExpiry > now, \"Apply stage has passed.\");\n\n        // check if enough amount is staked for challenge\n        require(_amount >= listing.deposit, \"Not enough stake passed for challenge.\");\n\n        pollNonce = pollNonce + 1;\n        challenges[pollNonce] = Challenge({\n            challenger: msg.sender,\n            stake: _amount,\n            resolved: false,\n            totalTokens: 0,\n            rewardPool: 0\n        });\n\n        // create a new poll for the challenge\n        polls[pollNonce] = Poll({\n            votesFor: 0,\n            votesAgainst: 0,\n            passed: false,\n            commitEndDate: now.add(commitStageLen) /* solium-disable-line security/no-block-members */\n        });\n\n        // Updates listingHash to store most recent challenge\n        listing.challengeId = pollNonce;\n\n        // Transfer tokens from challenger\n        require(token.transferFrom(msg.sender, address(this), _amount), \"Token transfer failed.\");\n\n        emit _Challenge(_listingHash, pollNonce, msg.sender);\n        return pollNonce;\n    }\n\n    // commits a vote for/against a listing\n    // plcr voting is not being used here\n    // to keep it simple, we just store the choice as a bool - true is for and false is against\n    function vote(bytes32 _listingHash, uint _amount, bool _choice) public {\n        Listing storage listing = listings[_listingHash];\n\n        // Listing must be in apply stage or already on the whitelist\n        require(appWasMade(_listingHash) || listing.whitelisted, \"Listing does not exist.\");\n\n        // Check if listing is challenged\n        require(listing.challengeId > 0 && !challenges[listing.challengeId].resolved, \"Listing is not challenged.\");\n\n        Poll storage poll = polls[listing.challengeId];\n\n        // check if commit stage is active\n        /* solium-disable-next-line security/no-block-members */\n        require(poll.commitEndDate > now, \"Commit period has passed.\");\n\n        // Transfer tokens from voter\n        require(token.transferFrom(msg.sender, address(this), _amount), \"Token transfer failed.\");\n\n        if(_choice) {\n            poll.votesFor += _amount;\n        } else {\n            poll.votesAgainst += _amount;\n        }\n\n        // TODO: fix vote override when same person is voting again\n        poll.votes[msg.sender] = Vote({\n            value: _choice,\n            stake: _amount,\n            claimed: false\n        });\n\n        emit _Vote(_listingHash, listing.challengeId, msg.sender);\n    }\n\n    // check if the listing can be whitelisted\n    function canBeWhitelisted(bytes32 _listingHash) public view returns (bool) {\n        uint challengeId = listings[_listingHash].challengeId;\n\n        // Ensures that the application was made,\n        // the application period has ended,\n        // the listingHash can be whitelisted,\n        // and either: the challengeId == 0, or the challenge has been resolved.\n        /* solium-disable */\n        if (appWasMade(_listingHash) && \n            listings[_listingHash].applicationExpiry < now && \n            !isWhitelisted(_listingHash) &&\n            (challengeId == 0 || challenges[challengeId].resolved == true)) {\n            return true; \n        }\n\n        return false;\n    }\n\n    // updates the status of a listing\n    function updateStatus(bytes32 _listingHash) public {\n        if (canBeWhitelisted(_listingHash)) {\n            listings[_listingHash].whitelisted = true;\n        } else {\n            resolveChallenge(_listingHash);\n        }\n    }\n\n    // ends a poll and returns if the poll passed or not\n    function endPoll(uint challengeId) private returns (bool didPass) {\n        require(polls[challengeId].commitEndDate > 0, \"Poll does not exist.\");\n        Poll storage poll = polls[challengeId];\n\n        // check if commit stage is active\n        /* solium-disable-next-line security/no-block-members */\n        require(poll.commitEndDate < now, \"Commit period is active.\");\n\n        if (poll.votesFor >= poll.votesAgainst) {\n            poll.passed = true;\n        } else {\n            poll.passed = false;\n        }\n\n        return poll.passed;\n    }\n\n    // resolves a challenge and calculates rewards\n    function resolveChallenge(bytes32 _listingHash) private {\n        // Check if listing is challenged\n        Listing memory listing = listings[_listingHash];\n        require(listing.challengeId > 0 && !challenges[listing.challengeId].resolved, \"Listing is not challenged.\");\n\n        uint challengeId = listing.challengeId;\n\n        // end the poll\n        bool pollPassed = endPoll(challengeId);\n\n        // updated challenge status\n        challenges[challengeId].resolved = true;\n\n        address challenger = challenges[challengeId].challenger;\n\n        // Case: challenge failed\n        if (pollPassed) {\n            challenges[challengeId].totalTokens = polls[challengeId].votesFor;\n            challenges[challengeId].rewardPool = challenges[challengeId].stake + polls[challengeId].votesAgainst;\n            listings[_listingHash].whitelisted = true;\n        } else { // Case: challenge succeeded\n            // give back the challenge stake to the challenger\n            require(token.transfer(challenger, challenges[challengeId].stake), \"Challenge stake return failed.\");\n            challenges[challengeId].totalTokens = polls[challengeId].votesAgainst;\n            challenges[challengeId].rewardPool = listing.deposit + polls[challengeId].votesFor;\n\n\t    //Data memory data = listings[_listingHash].Data;\n\t    string memory courseHash = listings[_listingHash].data.course;\n\t    uint rating = listings[_listingHash].data.rating;\n\t    Course memory temp_course = courses[courseHash];\t\n\t    if (courses[courseHash].numberOfReviews == 1)\n\t\t{delete courses[courseHash];\n\t\tdelete courseNames[temp_course.arrIndex];\n\t\t}\n\t    else {\n\t    courses[courseHash].courseTotal = courses[courseHash].courseTotal  - rating;\n\t    courses[courseHash].numberOfReviews = courses[courseHash].numberOfReviews - 1;\n\t\t}\n        delete listings[_listingHash];\n        delete listingNames[listing.arrIndex];\n\t    delete listingHashes[listing.arrIndex];\n        }\n\n        emit _ResolveChallenge(_listingHash, challengeId, msg.sender);\n    }\n\n    // claim rewards for a vote\n    function claimRewards(uint challengeId) public {\n        // check if challenge is resolved\n        require(challenges[challengeId].resolved == true, \"Challenge is not resolved.\");\n        \n        Poll storage poll = polls[challengeId];\n        Vote storage voteInstance = poll.votes[msg.sender];\n        \n        // check if vote reward is already claimed\n        require(voteInstance.claimed == false, \"Vote reward is already claimed.\");\n\n        // if winning party, calculate reward and transfer\n        if((poll.passed && voteInstance.value) || (!poll.passed && !voteInstance.value)) {\n            uint reward = (challenges[challengeId].rewardPool.mul(voteInstance.stake)).div(challenges[challengeId].totalTokens);\n            uint total = voteInstance.stake.add(reward);\n            require(token.transfer(msg.sender, total), \"Voting reward transfer failed.\");\n            emit _RewardClaimed(challengeId, total, msg.sender);\n        }\n\n        voteInstance.claimed = true;\n    }\n}\n",
  "sourcePath": "/home/kenrick/demo/TCR-CourseReviews/contracts/tcr.sol",
  "compiler": {
    "name": "solc",
    "version": "0.5.8+commit.23d335f2.Emscripten.clang"
  },
  "schemaVersion": "3.0.2",
  "updatedAt": "2019-10-29T13:01:09.583Z",
  "devdoc": {
    "methods": {}
  },
  "userdoc": {
    "methods": {}
  }
}