{
  "contractName": "Tcr",
  "abi": [
    {
      "constant": true,
      "inputs": [],
      "name": "name",
      "outputs": [
        {
          "name": "",
          "type": "string"
        }
      ],
      "payable": false,
      "stateMutability": "view",
      "type": "function",
      "signature": "0x06fdde03"
    },
    {
      "constant": true,
      "inputs": [],
      "name": "minDeposit",
      "outputs": [
        {
          "name": "",
          "type": "uint256"
        }
      ],
      "payable": false,
      "stateMutability": "view",
      "type": "function",
      "signature": "0x41b3d185"
    },
    {
      "constant": true,
      "inputs": [],
      "name": "applyStageLen",
      "outputs": [
        {
          "name": "",
          "type": "uint256"
        }
      ],
      "payable": false,
      "stateMutability": "view",
      "type": "function",
      "signature": "0x7f073360"
    },
    {
      "constant": true,
      "inputs": [],
      "name": "pollNonce",
      "outputs": [
        {
          "name": "",
          "type": "uint256"
        }
      ],
      "payable": false,
      "stateMutability": "view",
      "type": "function",
      "signature": "0x97508f36"
    },
    {
      "constant": true,
      "inputs": [],
      "name": "commitStageLen",
      "outputs": [
        {
          "name": "",
          "type": "uint256"
        }
      ],
      "payable": false,
      "stateMutability": "view",
      "type": "function",
      "signature": "0xa63dd198"
    },
    {
      "constant": true,
      "inputs": [
        {
          "name": "",
          "type": "uint256"
        }
      ],
      "name": "listingNames",
      "outputs": [
        {
          "name": "",
          "type": "string"
        }
      ],
      "payable": false,
      "stateMutability": "view",
      "type": "function",
      "signature": "0xd7ab802d"
    },
    {
      "constant": true,
      "inputs": [
        {
          "name": "",
          "type": "uint256"
        }
      ],
      "name": "courseNames",
      "outputs": [
        {
          "name": "",
          "type": "string"
        }
      ],
      "payable": false,
      "stateMutability": "view",
      "type": "function",
      "signature": "0xe59fde15"
    },
    {
      "constant": true,
      "inputs": [
        {
          "name": "",
          "type": "uint256"
        }
      ],
      "name": "listingHashes",
      "outputs": [
        {
          "name": "",
          "type": "bytes32"
        }
      ],
      "payable": false,
      "stateMutability": "view",
      "type": "function",
      "signature": "0xe6415222"
    },
    {
      "constant": true,
      "inputs": [],
      "name": "token",
      "outputs": [
        {
          "name": "",
          "type": "address"
        }
      ],
      "payable": false,
      "stateMutability": "view",
      "type": "function",
      "signature": "0xfc0c546a"
    },
    {
      "inputs": [
        {
          "name": "_name",
          "type": "string"
        },
        {
          "name": "_token",
          "type": "address"
        },
        {
          "name": "_parameters",
          "type": "uint256[]"
        }
      ],
      "payable": false,
      "stateMutability": "nonpayable",
      "type": "constructor",
      "signature": "constructor"
    },
    {
      "anonymous": false,
      "inputs": [
        {
          "indexed": true,
          "name": "listingHash",
          "type": "bytes32"
        },
        {
          "indexed": false,
          "name": "deposit",
          "type": "uint256"
        },
        {
          "indexed": false,
          "name": "data",
          "type": "string"
        },
        {
          "indexed": true,
          "name": "applicant",
          "type": "address"
        }
      ],
      "name": "_Application",
      "type": "event",
      "signature": "0xe1cdd401be51ef2c8159945a96274b69ba482f2a5e2131700beeda434fd6d58f"
    },
    {
      "anonymous": false,
      "inputs": [
        {
          "indexed": true,
          "name": "listingHash",
          "type": "bytes32"
        },
        {
          "indexed": false,
          "name": "challengeId",
          "type": "uint256"
        },
        {
          "indexed": true,
          "name": "challenger",
          "type": "address"
        }
      ],
      "name": "_Challenge",
      "type": "event",
      "signature": "0xc911f55bb4170a166467bde15c8799c1d2bb96a79f6bd9bc5cd3a4f05f768f6f"
    },
    {
      "anonymous": false,
      "inputs": [
        {
          "indexed": true,
          "name": "listingHash",
          "type": "bytes32"
        },
        {
          "indexed": false,
          "name": "challengeId",
          "type": "uint256"
        },
        {
          "indexed": true,
          "name": "voter",
          "type": "address"
        }
      ],
      "name": "_Vote",
      "type": "event",
      "signature": "0x7a1c5ce18abad3692f6bdf85262d38c3ad4ee5cabf88020e5a0e4d6b841d8376"
    },
    {
      "anonymous": false,
      "inputs": [
        {
          "indexed": true,
          "name": "listingHash",
          "type": "bytes32"
        },
        {
          "indexed": false,
          "name": "challengeId",
          "type": "uint256"
        },
        {
          "indexed": true,
          "name": "resolver",
          "type": "address"
        }
      ],
      "name": "_ResolveChallenge",
      "type": "event",
      "signature": "0x779e2848f275ef7b62be066e59dc34b2b8d79758079849859de844a3d9b9fb0d"
    },
    {
      "anonymous": false,
      "inputs": [
        {
          "indexed": true,
          "name": "challengeId",
          "type": "uint256"
        },
        {
          "indexed": false,
          "name": "reward",
          "type": "uint256"
        },
        {
          "indexed": true,
          "name": "voter",
          "type": "address"
        }
      ],
      "name": "_RewardClaimed",
      "type": "event",
      "signature": "0x6f4c982acc31b0af2cf1dc1556f21c0325d893782d65e83c68a5534a33f59957"
    },
    {
      "constant": true,
      "inputs": [
        {
          "name": "_listingHash",
          "type": "bytes32"
        }
      ],
      "name": "isWhitelisted",
      "outputs": [
        {
          "name": "whitelisted",
          "type": "bool"
        }
      ],
      "payable": false,
      "stateMutability": "view",
      "type": "function",
      "signature": "0x01a5e3fe"
    },
    {
      "constant": true,
      "inputs": [
        {
          "name": "_listingHash",
          "type": "bytes32"
        }
      ],
      "name": "appWasMade",
      "outputs": [
        {
          "name": "exists",
          "type": "bool"
        }
      ],
      "payable": false,
      "stateMutability": "view",
      "type": "function",
      "signature": "0x8cf8151f"
    },
    {
      "constant": true,
      "inputs": [],
      "name": "getAllListings",
      "outputs": [
        {
          "name": "",
          "type": "string[]"
        },
        {
          "name": "",
          "type": "bytes32[]"
        },
        {
          "name": "",
          "type": "bool[]"
        }
      ],
      "payable": false,
      "stateMutability": "view",
      "type": "function",
      "signature": "0xae73ccec"
    },
    {
      "constant": true,
      "inputs": [],
      "name": "getDetails",
      "outputs": [
        {
          "name": "",
          "type": "string"
        },
        {
          "name": "",
          "type": "address"
        },
        {
          "name": "",
          "type": "uint256"
        },
        {
          "name": "",
          "type": "uint256"
        },
        {
          "name": "",
          "type": "uint256"
        }
      ],
      "payable": false,
      "stateMutability": "view",
      "type": "function",
      "signature": "0xfbbf93a0"
    },
    {
      "constant": true,
      "inputs": [
        {
          "name": "_listingHash",
          "type": "bytes32"
        }
      ],
      "name": "getListingDetails",
      "outputs": [
        {
          "name": "",
          "type": "bool"
        },
        {
          "name": "",
          "type": "address"
        },
        {
          "name": "",
          "type": "uint256"
        },
        {
          "name": "",
          "type": "uint256"
        },
        {
          "name": "",
          "type": "string"
        }
      ],
      "payable": false,
      "stateMutability": "view",
      "type": "function",
      "signature": "0x7b356561"
    },
    {
      "constant": true,
      "inputs": [
        {
          "name": "_courseHash",
          "type": "string"
        }
      ],
      "name": "CourseExists",
      "outputs": [
        {
          "name": "",
          "type": "uint256"
        }
      ],
      "payable": false,
      "stateMutability": "view",
      "type": "function",
      "signature": "0x2ef116ff"
    },
    {
      "constant": false,
      "inputs": [
        {
          "name": "_amount",
          "type": "uint256"
        },
        {
          "name": "_roll",
          "type": "string"
        },
        {
          "name": "_course",
          "type": "string"
        },
        {
          "name": "_review",
          "type": "string"
        },
        {
          "name": "_rating",
          "type": "uint256"
        }
      ],
      "name": "propose",
      "outputs": [],
      "payable": false,
      "stateMutability": "nonpayable",
      "type": "function",
      "signature": "0x533e6d88"
    },
    {
      "constant": false,
      "inputs": [
        {
          "name": "_listingHash",
          "type": "bytes32"
        },
        {
          "name": "_amount",
          "type": "uint256"
        }
      ],
      "name": "challenge",
      "outputs": [
        {
          "name": "challengeId",
          "type": "uint256"
        }
      ],
      "payable": false,
      "stateMutability": "nonpayable",
      "type": "function",
      "signature": "0xe2083c18"
    },
    {
      "constant": false,
      "inputs": [
        {
          "name": "_listingHash",
          "type": "bytes32"
        },
        {
          "name": "_amount",
          "type": "uint256"
        },
        {
          "name": "_choice",
          "type": "bool"
        }
      ],
      "name": "vote",
      "outputs": [],
      "payable": false,
      "stateMutability": "nonpayable",
      "type": "function",
      "signature": "0x2c729fd1"
    },
    {
      "constant": true,
      "inputs": [
        {
          "name": "_listingHash",
          "type": "bytes32"
        }
      ],
      "name": "canBeWhitelisted",
      "outputs": [
        {
          "name": "",
          "type": "bool"
        }
      ],
      "payable": false,
      "stateMutability": "view",
      "type": "function",
      "signature": "0x691a38ab"
    },
    {
      "constant": false,
      "inputs": [
        {
          "name": "_listingHash",
          "type": "bytes32"
        }
      ],
      "name": "updateStatus",
      "outputs": [],
      "payable": false,
      "stateMutability": "nonpayable",
      "type": "function",
      "signature": "0x8a59eb56"
    },
    {
      "constant": false,
      "inputs": [
        {
          "name": "challengeId",
          "type": "uint256"
        }
      ],
      "name": "claimRewards",
      "outputs": [],
      "payable": false,
      "stateMutability": "nonpayable",
      "type": "function",
      "signature": "0x0962ef79"
    }
  ],
  "bytecode": "0x60806040523480156200001157600080fd5b50604051620051603803806200516083398101806040526200003791908101906200032f565b600073ffffffffffffffffffffffffffffffffffffffff168273ffffffffffffffffffffffffffffffffffffffff161415620000aa576040517f08c379a0000000000000000000000000000000000000000000000000000000008152600401620000a1906200041f565b60405180910390fd5b81600760006101000a81548173ffffffffffffffffffffffffffffffffffffffff021916908373ffffffffffffffffffffffffffffffffffffffff16021790555082600890805190602001906200010392919062000169565b50806000815181106200011257fe5b6020026020010151600981905550806001815181106200012e57fe5b6020026020010151600a81905550806002815181106200014a57fe5b6020026020010151600b819055506000600c819055505050506200057e565b828054600181600116156101000203166002900490600052602060002090601f016020900481019282601f10620001ac57805160ff1916838001178555620001dd565b82800160010185558215620001dd579182015b82811115620001dc578251825591602001919060010190620001bf565b5b509050620001ec9190620001f0565b5090565b6200021591905b8082111562000211576000816000905550600101620001f7565b5090565b90565b60008151905062000229816200054a565b92915050565b600082601f8301126200024157600080fd5b81516200025862000252826200046f565b62000441565b915081818352602084019350602081019050838560208402820111156200027e57600080fd5b60005b83811015620002b2578162000297888262000318565b84526020840193506020830192505060018101905062000281565b5050505092915050565b600082601f830112620002ce57600080fd5b8151620002e5620002df8262000498565b62000441565b915080825260208301602083018583830111156200030257600080fd5b6200030f83828462000514565b50505092915050565b600081519050620003298162000564565b92915050565b6000806000606084860312156200034557600080fd5b600084015167ffffffffffffffff8111156200036057600080fd5b6200036e86828701620002bc565b9350506020620003818682870162000218565b925050604084015167ffffffffffffffff8111156200039f57600080fd5b620003ad868287016200022f565b9150509250925092565b6000620003c6602683620004c5565b91507f546f6b656e20616464726573732073686f756c64206e6f74206265203020616460008301527f64726573732e00000000000000000000000000000000000000000000000000006020830152604082019050919050565b600060208201905081810360008301526200043a81620003b7565b9050919050565b6000604051905081810181811067ffffffffffffffff821117156200046557600080fd5b8060405250919050565b600067ffffffffffffffff8211156200048757600080fd5b602082029050602081019050919050565b600067ffffffffffffffff821115620004b057600080fd5b601f19601f8301169050602081019050919050565b600082825260208201905092915050565b6000620004e382620004ea565b9050919050565b600073ffffffffffffffffffffffffffffffffffffffff82169050919050565b6000819050919050565b60005b838110156200053457808201518184015260208101905062000517565b8381111562000544576000848401525b50505050565b6200055581620004d6565b81146200056157600080fd5b50565b6200056f816200050a565b81146200057b57600080fd5b50565b614bd2806200058e6000396000f3fe608060405234801561001057600080fd5b5060043610610154576000357c0100000000000000000000000000000000000000000000000000000000900480638a59eb56116100d5578063d7ab802d11610099578063d7ab802d14610373578063e2083c18146103a3578063e59fde15146103d3578063e641522214610403578063fbbf93a014610433578063fc0c546a1461045557610154565b80638a59eb56146102cb5780638cf8151f146102e757806397508f3614610317578063a63dd19814610335578063ae73ccec1461035357610154565b806341b3d1851161011c57806341b3d1851461020f578063533e6d881461022d578063691a38ab146102495780637b356561146102795780637f073360146102ad57610154565b806301a5e3fe1461015957806306fdde03146101895780630962ef79146101a75780632c729fd1146101c35780632ef116ff146101df575b600080fd5b610173600480360361016e9190810190613ab0565b610473565b60405161018091906145a4565b60405180910390f35b6101916104a0565b60405161019e919061464f565b60405180910390f35b6101c160048036036101bc9190810190613ba5565b61053e565b005b6101dd60048036036101d89190810190613b15565b6108b1565b005b6101f960048036036101f49190810190613b64565b610c45565b60405161020691906148cb565b60405180910390f35b610217610c70565b60405161022491906148cb565b60405180910390f35b61024760048036036102429190810190613bce565b610c76565b005b610263600480360361025e9190810190613ab0565b61123b565b60405161027091906145a4565b60405180910390f35b610293600480360361028e9190810190613ab0565b6112ea565b6040516102a49594939291906145bf565b60405180910390f35b6102b5611640565b6040516102c291906148cb565b60405180910390f35b6102e560048036036102e09190810190613ab0565b611646565b005b61030160048036036102fc9190810190613ab0565b611695565b60405161030e91906145a4565b60405180910390f35b61031f6116b7565b60405161032c91906148cb565b60405180910390f35b61033d6116bd565b60405161034a91906148cb565b60405180910390f35b61035b6116c3565b60405161036a93929190614558565b60405180910390f35b61038d60048036036103889190810190613ba5565b611e16565b60405161039a919061464f565b60405180910390f35b6103bd60048036036103b89190810190613ad9565b611ecf565b6040516103ca91906148cb565b60405180910390f35b6103ed60048036036103e89190810190613ba5565b612338565b6040516103fa919061464f565b60405180910390f35b61041d60048036036104189190810190613ba5565b6123f1565b60405161042a9190614619565b60405180910390f35b61043b612412565b60405161044c959493929190614671565b60405180910390f35b61045d6124f8565b60405161046a9190614634565b60405180910390f35b60006003600083815260200190815260200160002060010160009054906101000a900460ff169050919050565b60088054600181600116156101000203166002900480601f0160208091040260200160405190810160405280929190818152602001828054600181600116156101000203166002900480156105365780601f1061050b57610100808354040283529160200191610536565b820191906000526020600020905b81548152906001019060200180831161051957829003601f168201915b505050505081565b6001151560008083815260200190815260200160002060000160149054906101000a900460ff161515146105a7576040517f08c379a000000000000000000000000000000000000000000000000000000000815260040161059e9061484b565b60405180910390fd5b600060066000838152602001908152602001600020905060008160040160003373ffffffffffffffffffffffffffffffffffffffff1673ffffffffffffffffffffffffffffffffffffffff1681526020019081526020016000209050600015158160020160009054906101000a900460ff1615151461065b576040517f08c379a0000000000000000000000000000000000000000000000000000000008152600401610652906146eb565b60405180910390fd5b8160030160009054906101000a900460ff16801561068757508060000160009054906101000a900460ff165b806106bc57508160030160009054906101000a900460ff161580156106bb57508060000160009054906101000a900460ff16155b5b1561088f5760006107166000808681526020019081526020016000206003015461070884600101546000808981526020019081526020016000206002015461251e90919063ffffffff16565b61255890919063ffffffff16565b9050600061073182846001015461257e90919063ffffffff16565b9050600760009054906101000a900473ffffffffffffffffffffffffffffffffffffffff1673ffffffffffffffffffffffffffffffffffffffff1663a9059cbb33836040518363ffffffff167c01000000000000000000000000000000000000000000000000000000000281526004016107ac929190614506565b602060405180830381600087803b1580156107c657600080fd5b505af11580156107da573d6000803e3d6000fd5b505050506040513d601f19601f820116820180604052506107fe9190810190613a87565b61083d576040517f08c379a00000000000000000000000000000000000000000000000000000000081526004016108349061476b565b60405180910390fd5b3373ffffffffffffffffffffffffffffffffffffffff16857f6f4c982acc31b0af2cf1dc1556f21c0325d893782d65e83c68a5534a33f599578360405161088491906148cb565b60405180910390a350505b60018160020160006101000a81548160ff021916908315150217905550505050565b60006003600085815260200190815260200160002090506108d184611695565b806108ea57508060010160009054906101000a900460ff165b610929576040517f08c379a0000000000000000000000000000000000000000000000000000000008152600401610920906147cb565b60405180910390fd5b6000816003015411801561096157506000808260030154815260200190815260200160002060000160149054906101000a900460ff16155b6109a0576040517f08c379a00000000000000000000000000000000000000000000000000000000081526004016109979061472b565b60405180910390fd5b60006006600083600301548152602001908152602001600020905042816002015411610a01576040517f08c379a00000000000000000000000000000000000000000000000000000000081526004016109f8906147eb565b60405180910390fd5b600760009054906101000a900473ffffffffffffffffffffffffffffffffffffffff1673ffffffffffffffffffffffffffffffffffffffff166323b872dd3330876040518463ffffffff167c0100000000000000000000000000000000000000000000000000000000028152600401610a7c939291906144cf565b602060405180830381600087803b158015610a9657600080fd5b505af1158015610aaa573d6000803e3d6000fd5b505050506040513d601f19601f82011682018060405250610ace9190810190613a87565b610b0d576040517f08c379a0000000000000000000000000000000000000000000000000000000008152600401610b049061488b565b60405180910390fd5b8215610b2a57838160000160008282540192505081905550610b3d565b8381600101600082825401925050819055505b60405180606001604052808415158152602001858152602001600015158152508160040160003373ffffffffffffffffffffffffffffffffffffffff1673ffffffffffffffffffffffffffffffffffffffff16815260200190815260200160002060008201518160000160006101000a81548160ff0219169083151502179055506020820151816001015560408201518160020160006101000a81548160ff0219169083151502179055509050503373ffffffffffffffffffffffffffffffffffffffff16857f7a1c5ce18abad3692f6bdf85262d38c3ad4ee5cabf88020e5a0e4d6b841d83768460030154604051610c3691906148cb565b60405180910390a35050505050565b6000600182604051610c579190614453565b9081526020016040518091039020600201549050919050565b60095481565b606087878787604051602001610c8f949392919061442b565b604051602081830303815290604052905060008082511415610cb357600060010290505b60208201519050610cc381610473565b15610d03576040517f08c379a0000000000000000000000000000000000000000000000000000000008152600401610cfa906148ab565b60405180910390fd5b610d0c81611695565b15610d4c576040517f08c379a0000000000000000000000000000000000000000000000000000000008152600401610d43906146cb565b60405180910390fd5b6009548a1015610d91576040517f08c379a0000000000000000000000000000000000000000000000000000000008152600401610d88906147ab565b60405180910390fd5b610e6c81338c8c8c8080601f016020809104026020016040519081016040528093929190818152602001838380828437600081840152601f19601f820116905080830192505050505050508b8b8080601f016020809104026020016040519081016040528093929190818152602001838380828437600081840152601f19601f820116905080830192505050505050508a8a8080601f016020809104026020016040519081016040528093929190818152602001838380828437600081840152601f19601f820116905080830192505050505050508961259d565b610eba87878080601f016020809104026020016040519081016040528093929190818152602001838380828437600081840152601f19601f8201169050808301925050505050505084612932565b600760009054906101000a900473ffffffffffffffffffffffffffffffffffffffff1673ffffffffffffffffffffffffffffffffffffffff166323b872dd33308d6040518463ffffffff167c0100000000000000000000000000000000000000000000000000000000028152600401610f35939291906144cf565b602060405180830381600087803b158015610f4f57600080fd5b505af1158015610f63573d6000803e3d6000fd5b505050506040513d601f19601f82011682018060405250610f879190810190613a87565b610fc6576040517f08c379a0000000000000000000000000000000000000000000000000000000008152600401610fbd9061488b565b60405180910390fd5b3373ffffffffffffffffffffffffffffffffffffffff16817fe1cdd401be51ef2c8159945a96274b69ba482f2a5e2131700beeda434fd6d58f8c61121960036000878152602001908152602001600020600401604051806080016040529081600082018054600181600116156101000203166002900480601f0160208091040260200160405190810160405280929190818152602001828054600181600116156101000203166002900480156110bd5780601f10611092576101008083540402835291602001916110bd565b820191906000526020600020905b8154815290600101906020018083116110a057829003601f168201915b50505050508152602001600182018054600181600116156101000203166002900480601f01602080910402602001604051908101604052809291908181526020018280546001816001161561010002031660029004801561115f5780601f106111345761010080835404028352916020019161115f565b820191906000526020600020905b81548152906001019060200180831161114257829003601f168201915b50505050508152602001600282018054600181600116156101000203166002900480601f0160208091040260200160405190810160405280929190818152602001828054600181600116156101000203166002900480156112015780601f106111d657610100808354040283529160200191611201565b820191906000526020600020905b8154815290600101906020018083116111e457829003601f168201915b50505050508152602001600382015481525050612a51565b6040516112279291906148e6565b60405180910390a350505050505050505050565b6000806003600084815260200190815260200160002060030154905061126083611695565b80156112815750426003600085815260200190815260200160002060000154105b8015611293575061129183610473565b155b80156112d0575060008114806112cf57506001151560008083815260200190815260200160002060000160149054906101000a900460ff161515145b5b156112df5760019150506112e5565b60009150505b919050565b60008060008060606112fa61377c565b600360008881526020019081526020016000206040518060e0016040529081600082015481526020016001820160009054906101000a900460ff161515151581526020016001820160019054906101000a900473ffffffffffffffffffffffffffffffffffffffff1673ffffffffffffffffffffffffffffffffffffffff1673ffffffffffffffffffffffffffffffffffffffff168152602001600282015481526020016003820154815260200160048201604051806080016040529081600082018054600181600116156101000203166002900480601f0160208091040260200160405190810160405280929190818152602001828054600181600116156101000203166002900480156114505780601f1061142557610100808354040283529160200191611450565b820191906000526020600020905b81548152906001019060200180831161143357829003601f168201915b50505050508152602001600182018054600181600116156101000203166002900480601f0160208091040260200160405190810160405280929190818152602001828054600181600116156101000203166002900480156114f25780601f106114c7576101008083540402835291602001916114f2565b820191906000526020600020905b8154815290600101906020018083116114d557829003601f168201915b50505050508152602001600282018054600181600116156101000203166002900480601f0160208091040260200160405190810160405280929190818152602001828054600181600116156101000203166002900480156115945780601f1061156957610100808354040283529160200191611594565b820191906000526020600020905b81548152906001019060200180831161157757829003601f168201915b50505050508152602001600382015481525050815260200160088201548152505090506115c087611695565b806115cc575080602001515b61160b576040517f08c379a0000000000000000000000000000000000000000000000000000000008152600401611602906147cb565b60405180910390fd5b806020015181604001518260600151836080015161162c8560a00151612a51565b955095509550955095505091939590929450565b600a5481565b61164f8161123b565b156116885760016003600083815260200190815260200160002060010160006101000a81548160ff021916908315150217905550611692565b61169181612ad8565b5b50565b6000806003600084815260200190815260200160002060000154119050919050565b600c5481565b600b5481565b606080606060008090506116d561377c565b60008090505b6004805490508110156119e25760036000600583815481106116f957fe5b906000526020600020015481526020019081526020016000206040518060e0016040529081600082015481526020016001820160009054906101000a900460ff161515151581526020016001820160019054906101000a900473ffffffffffffffffffffffffffffffffffffffff1673ffffffffffffffffffffffffffffffffffffffff1673ffffffffffffffffffffffffffffffffffffffff168152602001600282015481526020016003820154815260200160048201604051806080016040529081600082018054600181600116156101000203166002900480601f0160208091040260200160405190810160405280929190818152602001828054600181600116156101000203166002900480156118555780601f1061182a57610100808354040283529160200191611855565b820191906000526020600020905b81548152906001019060200180831161183857829003601f168201915b50505050508152602001600182018054600181600116156101000203166002900480601f0160208091040260200160405190810160405280929190818152602001828054600181600116156101000203166002900480156118f75780601f106118cc576101008083540402835291602001916118f7565b820191906000526020600020905b8154815290600101906020018083116118da57829003601f168201915b50505050508152602001600282018054600181600116156101000203166002900480601f0160208091040260200160405190810160405280929190818152602001828054600181600116156101000203166002900480156119995780601f1061196e57610100808354040283529160200191611999565b820191906000526020600020905b81548152906001019060200180831161197c57829003601f168201915b505050505081526020016003820154815250508152602001600882015481525050915060008260a00151602001515111156119d5576001830192505b80806001019150506116db565b50606082604051908082528060200260200182016040528015611a1957816020015b6060815260200190600190039081611a045790505b509050606083604051908082528060200260200182016040528015611a4d5781602001602082028038833980820191505090505b509050606084604051908082528060200260200182016040528015611a815781602001602082028038833980820191505090505b50905060008090505b600480549050811015611e02576003600060058381548110611aa857fe5b906000526020600020015481526020019081526020016000206040518060e0016040529081600082015481526020016001820160009054906101000a900460ff161515151581526020016001820160019054906101000a900473ffffffffffffffffffffffffffffffffffffffff1673ffffffffffffffffffffffffffffffffffffffff1673ffffffffffffffffffffffffffffffffffffffff168152602001600282015481526020016003820154815260200160048201604051806080016040529081600082018054600181600116156101000203166002900480601f016020809104026020016040519081016040528092919081815260200182805460018160011615610100020316600290048015611c045780601f10611bd957610100808354040283529160200191611c04565b820191906000526020600020905b815481529060010190602001808311611be757829003601f168201915b50505050508152602001600182018054600181600116156101000203166002900480601f016020809104026020016040519081016040528092919081815260200182805460018160011615610100020316600290048015611ca65780601f10611c7b57610100808354040283529160200191611ca6565b820191906000526020600020905b815481529060010190602001808311611c8957829003601f168201915b50505050508152602001600282018054600181600116156101000203166002900480601f016020809104026020016040519081016040528092919081815260200182805460018160011615610100020316600290048015611d485780601f10611d1d57610100808354040283529160200191611d48565b820191906000526020600020905b815481529060010190602001808311611d2b57829003601f168201915b505050505081526020016003820154815250508152602001600882015481525050945060008560a0015160200151511115611df557611d8a8560a00151612a51565b848281518110611d9657fe5b602002602001018190525060058181548110611dae57fe5b9060005260206000200154838281518110611dc557fe5b6020026020010181815250508460200151828281518110611de257fe5b6020026020010190151590811515815250505b8080600101915050611a8a565b508282829750975097505050505050909192565b60048181548110611e2357fe5b906000526020600020016000915090508054600181600116156101000203166002900480601f016020809104026020016040519081016040528092919081815260200182805460018160011615610100020316600290048015611ec75780601f10611e9c57610100808354040283529160200191611ec7565b820191906000526020600020905b815481529060010190602001808311611eaa57829003601f168201915b505050505081565b600080600360008581526020019081526020016000209050611ef084611695565b80611f0957508060010160009054906101000a900460ff165b611f48576040517f08c379a0000000000000000000000000000000000000000000000000000000008152600401611f3f906147cb565b60405180910390fd5b600081600301541480611f7e57506000808260030154815260200190815260200160002060000160149054906101000a900460ff165b611fbd576040517f08c379a0000000000000000000000000000000000000000000000000000000008152600401611fb49061486b565b60405180910390fd5b42816000015411612003576040517f08c379a0000000000000000000000000000000000000000000000000000000008152600401611ffa9061478b565b60405180910390fd5b806002015483101561204a576040517f08c379a00000000000000000000000000000000000000000000000000000000081526004016120419061482b565b60405180910390fd5b6001600c5401600c819055506040518060a001604052803373ffffffffffffffffffffffffffffffffffffffff168152602001600015158152602001848152602001600081526020016000815250600080600c54815260200190815260200160002060008201518160000160006101000a81548173ffffffffffffffffffffffffffffffffffffffff021916908373ffffffffffffffffffffffffffffffffffffffff16021790555060208201518160000160146101000a81548160ff02191690831515021790555060408201518160010155606082015181600201556080820151816003015590505060405180608001604052806000815260200160008152602001612162600b544261257e90919063ffffffff16565b81526020016000151581525060066000600c54815260200190815260200160002060008201518160000155602082015181600101556040820151816002015560608201518160030160006101000a81548160ff021916908315150217905550905050600c548160030181905550600760009054906101000a900473ffffffffffffffffffffffffffffffffffffffff1673ffffffffffffffffffffffffffffffffffffffff166323b872dd3330866040518463ffffffff167c010000000000000000000000000000000000000000000000000000000002815260040161224a939291906144cf565b602060405180830381600087803b15801561226457600080fd5b505af1158015612278573d6000803e3d6000fd5b505050506040513d601f19601f8201168201806040525061229c9190810190613a87565b6122db576040517f08c379a00000000000000000000000000000000000000000000000000000000081526004016122d29061488b565b60405180910390fd5b3373ffffffffffffffffffffffffffffffffffffffff16847fc911f55bb4170a166467bde15c8799c1d2bb96a79f6bd9bc5cd3a4f05f768f6f600c5460405161232491906148cb565b60405180910390a3600c5491505092915050565b6002818154811061234557fe5b906000526020600020016000915090508054600181600116156101000203166002900480601f0160208091040260200160405190810160405280929190818152602001828054600181600116156101000203166002900480156123e95780601f106123be576101008083540402835291602001916123e9565b820191906000526020600020905b8154815290600101906020018083116123cc57829003601f168201915b505050505081565b600581815481106123fe57fe5b906000526020600020016000915090505481565b6060600080600080606060088054600181600116156101000203166002900480601f0160208091040260200160405190810160405280929190818152602001828054600181600116156101000203166002900480156124b25780601f10612487576101008083540402835291602001916124b2565b820191906000526020600020905b81548152906001019060200180831161249557829003601f168201915b5050505050905080600760009054906101000a900473ffffffffffffffffffffffffffffffffffffffff16600954600a54600b5495509550955095509550509091929394565b600760009054906101000a900473ffffffffffffffffffffffffffffffffffffffff1681565b6000808314156125315760009050612552565b600082840290508284828161254257fe5b041461254d57600080fd5b809150505b92915050565b600080821161256657600080fd5b600082848161257157fe5b0490508091505092915050565b60008082840190508381101561259357600080fd5b8091505092915050565b6000600360008981526020019081526020016000209050868160010160016101000a81548173ffffffffffffffffffffffffffffffffffffffff021916908373ffffffffffffffffffffffffffffffffffffffff1602179055506040518060800160405280868152602001858152602001848152602001838152508160040160008201518160000190805190602001906126389291906137d8565b5060208201518160010190805190602001906126559291906137d8565b5060408201518160020190805190602001906126729291906137d8565b5060608201518160030155905050600588908060018154018082558091505090600182039060005260206000200160009091929091909150555060046128b582600401604051806080016040529081600082018054600181600116156101000203166002900480601f0160208091040260200160405190810160405280929190818152602001828054600181600116156101000203166002900480156127595780601f1061272e57610100808354040283529160200191612759565b820191906000526020600020905b81548152906001019060200180831161273c57829003601f168201915b50505050508152602001600182018054600181600116156101000203166002900480601f0160208091040260200160405190810160405280929190818152602001828054600181600116156101000203166002900480156127fb5780601f106127d0576101008083540402835291602001916127fb565b820191906000526020600020905b8154815290600101906020018083116127de57829003601f168201915b50505050508152602001600282018054600181600116156101000203166002900480601f01602080910402602001604051908101604052809291908181526020018280546001816001161561010002031660029004801561289d5780601f106128725761010080835404028352916020019161289d565b820191906000526020600020905b81548152906001019060200180831161288057829003601f168201915b50505050508152602001600382015481525050612a51565b90806001815401808255809150509060018203906000526020600020016000909192909190915090805190602001906128ef929190613858565b50506001600480549050038160080181905550612917600a544261257e90919063ffffffff16565b81600001819055508581600201819055505050505050505050565b600061293d83610c45565b111561298a5760006001836040516129559190614453565b908152602001604051809103902090506001816002015401816002018190555081816001015401816001018190555050612a4d565b6040518060800160405280838152602001828152602001600181526020016002805490508152506001836040516129c19190614453565b908152602001604051809103902060008201518160000190805190602001906129eb9291906137d8565b506020820151816001015560408201518160020155606082015181600301559050506002829080600181540180825580915050906001820390600052602060002001600090919290919091509080519060200190612a4a929190613858565b50505b5050565b6060806040518060400160405280600181526020017f7c000000000000000000000000000000000000000000000000000000000000008152509050826000015181846020015183866040015185612aab8960600151613510565b604051602001612ac1979695949392919061446a565b604051602081830303815290604052915050919050565b612ae061377c565b600360008381526020019081526020016000206040518060e0016040529081600082015481526020016001820160009054906101000a900460ff161515151581526020016001820160019054906101000a900473ffffffffffffffffffffffffffffffffffffffff1673ffffffffffffffffffffffffffffffffffffffff1673ffffffffffffffffffffffffffffffffffffffff168152602001600282015481526020016003820154815260200160048201604051806080016040529081600082018054600181600116156101000203166002900480601f016020809104026020016040519081016040528092919081815260200182805460018160011615610100020316600290048015612c365780601f10612c0b57610100808354040283529160200191612c36565b820191906000526020600020905b815481529060010190602001808311612c1957829003601f168201915b50505050508152602001600182018054600181600116156101000203166002900480601f016020809104026020016040519081016040528092919081815260200182805460018160011615610100020316600290048015612cd85780601f10612cad57610100808354040283529160200191612cd8565b820191906000526020600020905b815481529060010190602001808311612cbb57829003601f168201915b50505050508152602001600282018054600181600116156101000203166002900480601f016020809104026020016040519081016040528092919081815260200182805460018160011615610100020316600290048015612d7a5780601f10612d4f57610100808354040283529160200191612d7a565b820191906000526020600020905b815481529060010190602001808311612d5d57829003601f168201915b505050505081526020016003820154815250508152602001600882015481525050905060008160800151118015612dd557506000808260800151815260200190815260200160002060000160149054906101000a900460ff16155b612e14576040517f08c379a0000000000000000000000000000000000000000000000000000000008152600401612e0b9061472b565b60405180910390fd5b6000816080015190506000612e288261365c565b9050600160008084815260200190815260200160002060000160146101000a81548160ff021916908315150217905550600080600084815260200190815260200160002060000160009054906101000a900473ffffffffffffffffffffffffffffffffffffffff1690508115612f4357600660008481526020019081526020016000206000015460008085815260200190815260200160002060030181905550600660008481526020019081526020016000206001015460008085815260200190815260200160002060010154016000808581526020019081526020016000206002018190555060016003600087815260200190815260200160002060010160006101000a81548160ff0219169083151502179055506134ba565b600760009054906101000a900473ffffffffffffffffffffffffffffffffffffffff1673ffffffffffffffffffffffffffffffffffffffff1663a9059cbb82600080878152602001908152602001600020600101546040518363ffffffff167c0100000000000000000000000000000000000000000000000000000000028152600401612fd192919061452f565b602060405180830381600087803b158015612feb57600080fd5b505af1158015612fff573d6000803e3d6000fd5b505050506040513d601f19601f820116820180604052506130239190810190613a87565b613062576040517f08c379a00000000000000000000000000000000000000000000000000000000081526004016130599061480b565b60405180910390fd5b6006600084815260200190815260200160002060010154600080858152602001908152602001600020600301819055506006600084815260200190815260200160002060000154846060015101600080858152602001908152602001600020600201819055506060600360008781526020019081526020016000206004016001018054600181600116156101000203166002900480601f0160208091040260200160405190810160405280929190818152602001828054600181600116156101000203166002900480156131775780601f1061314c57610100808354040283529160200191613177565b820191906000526020600020905b81548152906001019060200180831161315a57829003601f168201915b505050505090506000600360008881526020019081526020016000206004016003015490506131a46138d8565b6001836040516131b49190614453565b9081526020016040518091039020604051806080016040529081600082018054600181600116156101000203166002900480601f0160208091040260200160405190810160405280929190818152602001828054600181600116156101000203166002900480156132665780601f1061323b57610100808354040283529160200191613266565b820191906000526020600020905b81548152906001019060200180831161324957829003601f168201915b5050505050815260200160018201548152602001600282015481526020016003820154815250509050600180846040516132a09190614453565b908152602001604051809103902060020154141561332d576001836040516132c89190614453565b9081526020016040518091039020600080820160006132e79190613900565b6001820160009055600282016000905560038201600090555050600281606001518154811061331257fe5b9060005260206000200160006133289190613900565b6133c0565b8160018460405161333e9190614453565b908152602001604051809103902060010154036001846040516133619190614453565b908152602001604051809103902060010181905550600180846040516133879190614453565b908152602001604051809103902060020154036001846040516133aa9190614453565b9081526020016040518091039020600201819055505b600360008981526020019081526020016000206000808201600090556001820160006101000a81549060ff02191690556001820160016101000a81549073ffffffffffffffffffffffffffffffffffffffff021916905560028201600090556003820160009055600482016000808201600061343c9190613900565b60018201600061344c9190613900565b60028201600061345c9190613900565b600382016000905550506008820160009055505060048760c001518154811061348157fe5b9060005260206000200160006134979190613900565b60058760c00151815481106134a857fe5b90600052602060002001600090555050505b3373ffffffffffffffffffffffffffffffffffffffff16857f779e2848f275ef7b62be066e59dc34b2b8d79758079849859de844a3d9b9fb0d8560405161350191906148cb565b60405180910390a35050505050565b60606000821415613558576040518060400160405280600181526020017f30000000000000000000000000000000000000000000000000000000000000008152509050613657565b600082905060005b60008214613582578080600101915050600a828161357a57fe5b049150613560565b6060816040519080825280601f01601f1916602001820160405280156135b75781602001600182028038833980820191505090505b50905060006001830390505b6000861461364f57600a86816135d557fe5b066030017f0100000000000000000000000000000000000000000000000000000000000000028282806001900393508151811061360e57fe5b60200101907effffffffffffffffffffffffffffffffffffffffffffffffffffffffffffff1916908160001a905350600a868161364757fe5b0495506135c3565b819450505050505b919050565b6000806006600084815260200190815260200160002060020154116136b6576040517f08c379a00000000000000000000000000000000000000000000000000000000081526004016136ad9061470b565b60405180910390fd5b600060066000848152602001908152602001600020905042816002015410613713576040517f08c379a000000000000000000000000000000000000000000000000000000000815260040161370a9061474b565b60405180910390fd5b80600101548160000154106137445760018160030160006101000a81548160ff021916908315150217905550613762565b60008160030160006101000a81548160ff0219169083151502179055505b8060030160009054906101000a900460ff16915050919050565b60405180610140016040528060008152602001600015158152602001600073ffffffffffffffffffffffffffffffffffffffff16815260200160008152602001600081526020016137cb613948565b8152602001600081525090565b828054600181600116156101000203166002900490600052602060002090601f016020900481019282601f1061381957805160ff1916838001178555613847565b82800160010185558215613847579182015b8281111561384657825182559160200191906001019061382b565b5b5090506138549190613970565b5090565b828054600181600116156101000203166002900490600052602060002090601f016020900481019282601f1061389957805160ff19168380011785556138c7565b828001600101855582156138c7579182015b828111156138c65782518255916020019190600101906138ab565b5b5090506138d49190613970565b5090565b6040518060800160405280606081526020016000815260200160008152602001600081525090565b50805460018160011615610100020316600290046000825580601f106139265750613945565b601f0160209004906000526020600020908101906139449190613970565b5b50565b6040518060800160405280606081526020016060815260200160608152602001600081525090565b61399291905b8082111561398e576000816000905550600101613976565b5090565b90565b6000813590506139a481614b53565b92915050565b6000815190506139b981614b53565b92915050565b6000813590506139ce81614b6a565b92915050565b60008083601f8401126139e657600080fd5b8235905067ffffffffffffffff8111156139ff57600080fd5b602083019150836001820283011115613a1757600080fd5b9250929050565b600082601f830112613a2f57600080fd5b8135613a42613a3d82614943565b614916565b91508082526020830160208301858383011115613a5e57600080fd5b613a69838284614b00565b50505092915050565b600081359050613a8181614b81565b92915050565b600060208284031215613a9957600080fd5b6000613aa7848285016139aa565b91505092915050565b600060208284031215613ac257600080fd5b6000613ad0848285016139bf565b91505092915050565b60008060408385031215613aec57600080fd5b6000613afa858286016139bf565b9250506020613b0b85828601613a72565b9150509250929050565b600080600060608486031215613b2a57600080fd5b6000613b38868287016139bf565b9350506020613b4986828701613a72565b9250506040613b5a86828701613995565b9150509250925092565b600060208284031215613b7657600080fd5b600082013567ffffffffffffffff811115613b9057600080fd5b613b9c84828501613a1e565b91505092915050565b600060208284031215613bb757600080fd5b6000613bc584828501613a72565b91505092915050565b60008060008060008060008060a0898b031215613bea57600080fd5b6000613bf88b828c01613a72565b985050602089013567ffffffffffffffff811115613c1557600080fd5b613c218b828c016139d4565b9750975050604089013567ffffffffffffffff811115613c4057600080fd5b613c4c8b828c016139d4565b9550955050606089013567ffffffffffffffff811115613c6b57600080fd5b613c778b828c016139d4565b93509350506080613c8a8b828c01613a72565b9150509295985092959890939650565b6000613ca68383613e2d565b60208301905092915050565b6000613cbe8383613e4b565b60208301905092915050565b6000613cd68383613f07565b905092915050565b613ce781614aa6565b82525050565b613cf681614a54565b82525050565b6000613d0782614996565b613d1181856149f4565b9350613d1c8361496f565b8060005b83811015613d4d578151613d348882613c9a565b9750613d3f836149cd565b925050600181019050613d20565b5085935050505092915050565b6000613d65826149a1565b613d6f8185614a05565b9350613d7a8361497c565b8060005b83811015613dab578151613d928882613cb2565b9750613d9d836149da565b925050600181019050613d7e565b5085935050505092915050565b6000613dc3826149ac565b613dcd8185614a16565b935083602082028501613ddf85614989565b8060005b85811015613e1b5784840389528151613dfc8582613cca565b9450613e07836149e7565b925060208a01995050600181019050613de3565b50829750879550505050505092915050565b613e3681614a66565b82525050565b613e4581614a66565b82525050565b613e5481614a72565b82525050565b613e6381614a72565b82525050565b613e7281614ab8565b82525050565b6000613e848385614a49565b9350613e91838584614b00565b82840190509392505050565b6000613ea8826149c2565b613eb28185614a38565b9350613ec2818560208601614b0f565b613ecb81614b42565b840191505092915050565b6000613ee1826149c2565b613eeb8185614a49565b9350613efb818560208601614b0f565b80840191505092915050565b6000613f12826149b7565b613f1c8185614a27565b9350613f2c818560208601614b0f565b613f3581614b42565b840191505092915050565b6000613f4b826149b7565b613f558185614a38565b9350613f65818560208601614b0f565b613f6e81614b42565b840191505092915050565b6000613f84826149b7565b613f8e8185614a49565b9350613f9e818560208601614b0f565b80840191505092915050565b6000613fb7602283614a38565b91507f4c697374696e6720697320616c726561647920696e206170706c79207374616760008301527f652e0000000000000000000000000000000000000000000000000000000000006020830152604082019050919050565b600061401d601f83614a38565b91507f566f74652072657761726420697320616c726561647920636c61696d65642e006000830152602082019050919050565b600061405d601483614a38565b91507f506f6c6c20646f6573206e6f742065786973742e0000000000000000000000006000830152602082019050919050565b600061409d601a83614a38565b91507f4c697374696e67206973206e6f74206368616c6c656e6765642e0000000000006000830152602082019050919050565b60006140dd601883614a38565b91507f436f6d6d697420706572696f64206973206163746976652e00000000000000006000830152602082019050919050565b600061411d601e83614a38565b91507f566f74696e6720726577617264207472616e73666572206661696c65642e00006000830152602082019050919050565b600061415d601783614a38565b91507f4170706c7920737461676520686173207061737365642e0000000000000000006000830152602082019050919050565b600061419d602183614a38565b91507f4e6f7420656e6f756768207374616b6520666f72206170706c69636174696f6e60008301527f2e000000000000000000000000000000000000000000000000000000000000006020830152604082019050919050565b6000614203601783614a38565b91507f4c697374696e6720646f6573206e6f742065786973742e0000000000000000006000830152602082019050919050565b6000614243601983614a38565b91507f436f6d6d697420706572696f6420686173207061737365642e000000000000006000830152602082019050919050565b6000614283601e83614a38565b91507f4368616c6c656e6765207374616b652072657475726e206661696c65642e00006000830152602082019050919050565b60006142c3602683614a38565b91507f4e6f7420656e6f756768207374616b652070617373656420666f72206368616c60008301527f6c656e67652e00000000000000000000000000000000000000000000000000006020830152604082019050919050565b6000614329601a83614a38565b91507f4368616c6c656e6765206973206e6f74207265736f6c7665642e0000000000006000830152602082019050919050565b6000614369601e83614a38565b91507f4c697374696e6720697320616c7265616479206368616c6c656e6765642e00006000830152602082019050919050565b60006143a9601683614a38565b91507f546f6b656e207472616e73666572206661696c65642e000000000000000000006000830152602082019050919050565b60006143e9601f83614a38565b91507f4c697374696e6720697320616c72656164792077686974656c69737465642e006000830152602082019050919050565b61442581614a9c565b82525050565b6000614438828688613e78565b9150614445828486613e78565b915081905095945050505050565b600061445f8284613ed6565b915081905092915050565b6000614476828a613f79565b91506144828289613ed6565b915061448e8288613f79565b915061449a8287613ed6565b91506144a68286613f79565b91506144b28285613ed6565b91506144be8284613ed6565b915081905098975050505050505050565b60006060820190506144e46000830186613cde565b6144f16020830185613ced565b6144fe604083018461441c565b949350505050565b600060408201905061451b6000830185613cde565b614528602083018461441c565b9392505050565b60006040820190506145446000830185613ced565b614551602083018461441c565b9392505050565b600060608201905081810360008301526145728186613db8565b905081810360208301526145868185613d5a565b9050818103604083015261459a8184613cfc565b9050949350505050565b60006020820190506145b96000830184613e3c565b92915050565b600060a0820190506145d46000830188613e3c565b6145e16020830187613ced565b6145ee604083018661441c565b6145fb606083018561441c565b818103608083015261460d8184613e9d565b90509695505050505050565b600060208201905061462e6000830184613e5a565b92915050565b60006020820190506146496000830184613e69565b92915050565b600060208201905081810360008301526146698184613f40565b905092915050565b600060a082019050818103600083015261468b8188613e9d565b905061469a6020830187613ced565b6146a7604083018661441c565b6146b4606083018561441c565b6146c1608083018461441c565b9695505050505050565b600060208201905081810360008301526146e481613faa565b9050919050565b6000602082019050818103600083015261470481614010565b9050919050565b6000602082019050818103600083015261472481614050565b9050919050565b6000602082019050818103600083015261474481614090565b9050919050565b60006020820190508181036000830152614764816140d0565b9050919050565b6000602082019050818103600083015261478481614110565b9050919050565b600060208201905081810360008301526147a481614150565b9050919050565b600060208201905081810360008301526147c481614190565b9050919050565b600060208201905081810360008301526147e4816141f6565b9050919050565b6000602082019050818103600083015261480481614236565b9050919050565b6000602082019050818103600083015261482481614276565b9050919050565b60006020820190508181036000830152614844816142b6565b9050919050565b600060208201905081810360008301526148648161431c565b9050919050565b600060208201905081810360008301526148848161435c565b9050919050565b600060208201905081810360008301526148a48161439c565b9050919050565b600060208201905081810360008301526148c4816143dc565b9050919050565b60006020820190506148e0600083018461441c565b92915050565b60006040820190506148fb600083018561441c565b818103602083015261490d8184613e9d565b90509392505050565b6000604051905081810181811067ffffffffffffffff8211171561493957600080fd5b8060405250919050565b600067ffffffffffffffff82111561495a57600080fd5b601f19601f8301169050602081019050919050565b6000602082019050919050565b6000602082019050919050565b6000602082019050919050565b600081519050919050565b600081519050919050565b600081519050919050565b600081519050919050565b600081519050919050565b6000602082019050919050565b6000602082019050919050565b6000602082019050919050565b600082825260208201905092915050565b600082825260208201905092915050565b600082825260208201905092915050565b600082825260208201905092915050565b600082825260208201905092915050565b600081905092915050565b6000614a5f82614a7c565b9050919050565b60008115159050919050565b6000819050919050565b600073ffffffffffffffffffffffffffffffffffffffff82169050919050565b6000819050919050565b6000614ab182614adc565b9050919050565b6000614ac382614aca565b9050919050565b6000614ad582614a7c565b9050919050565b6000614ae782614aee565b9050919050565b6000614af982614a7c565b9050919050565b82818337600083830152505050565b60005b83811015614b2d578082015181840152602081019050614b12565b83811115614b3c576000848401525b50505050565b6000601f19601f8301169050919050565b614b5c81614a66565b8114614b6757600080fd5b50565b614b7381614a72565b8114614b7e57600080fd5b50565b614b8a81614a9c565b8114614b9557600080fd5b5056fea265627a7a72305820fe1b496ee374b095bc6c17fac74be2457d5c9eef585f6b7f964d221e9254fd966c6578706572696d656e74616cf50037",
  "source": "// Most of the code in this contract is derived from the generic TCR implementation from Mike Goldin and (the adChain) team\n// This contract strips out most of the details and only keeps the basic TCR functionality (apply/propose, challenge, vote, resolve)\n// Consider this to be the \"hello world\" for TCR implementation\n// For real world usage, please refer to the generic TCR implementation\n// https://github.com/skmgoldin/tcr\n\npragma solidity ^0.5.8;\npragma experimental ABIEncoderV2;\n\nimport \"../node_modules/openzeppelin-solidity/contracts/token/ERC20/ERC20.sol\";\nimport \"../node_modules/openzeppelin-solidity/contracts/math/SafeMath.sol\";\n\ncontract Tcr {\n\n    using SafeMath for uint;\n\n    struct Data {\n        string rollNumber;\n        string course ;\n        string review;\n        uint rating;\n\t}\n\n    struct Course{\n        string courseCode;\n        uint courseTotal;\n        uint numberOfReviews;\n        uint arrIndex;\n\t}\n\n    struct Listing {\n        uint applicationExpiry; // Expiration date of apply stage\n        bool whitelisted;       // Indicates registry status\n        address owner;          // Owner of Listing\n        uint deposit;           // Number of tokens in the listing\n        uint challengeId;       // the challenge id of the current challenge\n        Data data;            // name of listing (for UI)\n        uint arrIndex;          // arrayIndex of listing in listingNames array (for deletion)\n\t\n    }\n\n    // instead of using the elegant PLCR voting, we are using just a list because this is *simple-TCR*\n    struct Vote {\n        bool value;\n        uint stake;\n        bool claimed;\n    }\n\n    struct Poll {\n        uint votesFor;\n        uint votesAgainst;\n        uint commitEndDate;\n        bool passed;\n        mapping(address => Vote) votes; // revealed by default; no partial locking\n    }\n\n    struct Challenge {\n        address challenger;     // Owner of Challenge3\n        bool resolved;          // Indication of if challenge is resolved\n        uint stake;             // Number of tokens at stake for either party during challenge\n        uint rewardPool;        // number of tokens from losing side - winning reward\n        uint totalTokens;       // number of tokens from winning side - to be returned\n    }\n\n    // Maps challengeIDs to associated challenge data\n    mapping(uint => Challenge) private challenges;\n\n    mapping(string => Course) private courses;\n    string[] public courseNames;\n\n    // Maps listingHashes to associated listingHash data\n    mapping(bytes32 => Listing) private listings;\n    string[] public listingNames;\n    bytes32[] public listingHashes;\n\n    // Maps polls to associated challenge\n    mapping(uint => Poll) private polls;\n\n    // Global Variables\n    ERC20 public token;\n    string public name;\n    uint public minDeposit;\n    uint public applyStageLen;\n    uint public commitStageLen;\n\n    uint constant private INITIAL_POLL_NONCE = 0;\n    uint public pollNonce;\n\n    // Events\n    event _Application(bytes32 indexed listingHash, uint deposit, string data, address indexed applicant);\n    event _Challenge(bytes32 indexed listingHash, uint challengeId, address indexed challenger);\n    event _Vote(bytes32 indexed listingHash, uint challengeId, address indexed voter);\n    event _ResolveChallenge(bytes32 indexed listingHash, uint challengeId, address indexed resolver);\n    event _RewardClaimed(uint indexed challengeId, uint reward, address indexed voter);\n\n    // using the constructor to initialize the TCR parameters\n    // again, to keep it simple, skipping the Parameterizer and ParameterizerFactory\n    constructor(\n        string memory _name,\n        address _token,\n        uint[] memory _parameters\n    ) public {\n        require(_token != address(0), \"Token address should not be 0 address.\");\n\n        token = ERC20(_token);\n        name = _name;\n\n        // minimum deposit for listing to be whitelisted\n        minDeposit = _parameters[0];\n\n        // period over which applicants wait to be whitelisted\n        applyStageLen = _parameters[1];\n\n        // length of commit period for voting\n        commitStageLen = _parameters[2];\n\n        // Initialize the poll nonce\n        pollNonce = INITIAL_POLL_NONCE;\n    }\n\n   function uint2str(uint _i) internal pure returns (string memory _uintAsString) {\n    if (_i == 0) {\n        return \"0\";\n    }\n    uint j = _i;\n    uint len;\n    while (j != 0) {\n        len++;\n        j /= 10;\n    }\n    bytes memory bstr = new bytes(len);\n    uint k = len - 1;\n    while (_i != 0) {\n        bstr[k--] = byte(uint8(48 + _i % 10));\n        _i /= 10;\n    }\n    return string(bstr);\n\t}\n\n    function strReview(Data memory data) private pure returns (string memory){\n\t    string memory space = \"|\";\n    \treturn string(abi.encodePacked(data.rollNumber, space, data.course, space, data.review, space, uint2str(data.rating)));\n    }\n    // returns whether a listing is already whitelisted\n    function isWhitelisted(bytes32 _listingHash) public view returns (bool whitelisted) {\n        return listings[_listingHash].whitelisted;\n    }\n\n    // returns if a listing is in apply stage\n    function appWasMade(bytes32 _listingHash) public view returns (bool exists) {\n        return listings[_listingHash].applicationExpiry > 0;\n    }\n\n    // get all listing names (for UI)\n    // not to be used in a production use case\n    function getAllListings() public view returns (string[] memory, bytes32[] memory, bool[] memory) {\n        uint count = 0;\n        Listing memory templisting;\n        for (uint256 i = 0; i < listingNames.length; i++) {\n            templisting = listings[listingHashes[i]];\n            if(bytes(templisting.data.course).length > 0)\n                count = count + 1;\n            }\n        string[] memory listingArr = new string[](count);\n        bytes32[] memory hashArr = new bytes32[](count);\n        bool[] memory whitelistedArr = new bool[](count);\n        \n        for (uint256 i = 0; i < listingNames.length; i++) {\n            templisting = listings[listingHashes[i]];\n            if(bytes(templisting.data.course).length > 0)\n            {\n            listingArr[i] = strReview(templisting.data);\n\t        hashArr[i] = listingHashes[i];\n            whitelistedArr[i] = templisting.whitelisted;}\n            }\n        return (listingArr, hashArr, whitelistedArr);\n    }\n\n    // get details of this registry (for UI)\n    function getDetails() public view returns (string memory, address, uint, uint, uint) {\n        string memory _name = name;\n        return (_name, address(token), minDeposit, applyStageLen, commitStageLen);\n    }\n\n    // get details of a listing (for UI)\n    function getListingDetails(bytes32 _listingHash) public view returns (bool, address, uint, uint, string memory) {\n        Listing memory listingIns = listings[_listingHash];\n        // Listing must be in apply stage or already on the whitelist\n        require(appWasMade(_listingHash) || listingIns.whitelisted, \"Listing does not exist.\");\n\n        return (listingIns.whitelisted, listingIns.owner, listingIns.deposit, listingIns.challengeId,strReview(listingIns.data));\n    }\n\n    function CourseExists(string memory _courseHash) public view returns (uint) {\n        return courses[_courseHash].numberOfReviews;\n    }\n\n    function createNewCourse(string memory _courseCode, uint _course_rating) private {\n\t    if (CourseExists(_courseCode) > 0){\n            Course storage temp_course = courses[_courseCode];\n            temp_course.numberOfReviews = temp_course.numberOfReviews + 1;\n            temp_course.courseTotal = (temp_course.courseTotal + _course_rating);\n        } else {\n            courses[_courseCode] = Course({\n                courseCode: _courseCode,\n                courseTotal : _course_rating,\n                numberOfReviews : 1,\n                arrIndex : courseNames.length\n            });\n    \t    courseNames.push(_courseCode);\n\t    }\n    }\n\n    function createNewListing(bytes32 _listingHash, address sender, uint _amount,  string memory _roll, string memory _course, string memory _review, uint _rating) private  {\n    \t// Sets owner\n        Listing storage listing = listings[_listingHash];\n        listing.owner = sender;\n        listing.data = Data({\n            rollNumber: _roll,\n            course: _course,\n            review: _review,\n            rating : _rating\n        });\n\n\t    listingHashes.push(_listingHash);\n        listingNames.push(strReview(listing.data));\n        listing.arrIndex = listingNames.length - 1;\n\n        // Sets apply stage end time\n        // now or block.timestamp is safe here (can live with ~15 sec apprmberOoximation)\n        /* solium-disable-next-line security/no-block-members */\n        listing.applicationExpiry = now.add(applyStageLen);\n        listing.deposit = _amount;\n    }\n\n    // proposes a listing to be whitelisted\n    function propose(uint _amount, string calldata _roll,  string calldata _course, string calldata _review, uint _rating ) external {\n\t    //change started\n\t    string memory source = string(abi.encodePacked(_roll, _course));\n\t    bytes32 _listingHash;\n    \tif (bytes(source).length == 0) {\n            _listingHash = 0x0;\n    \t}\n    \tassembly {\n            _listingHash := mload(add(source, 32))\n    \t}\n\t    //change ended\n\t    require(!isWhitelisted(_listingHash), \"Listing is already whitelisted.\");\n        require(!appWasMade(_listingHash), \"Listing is already in apply stage.\");\n        require(_amount >= minDeposit, \"Not enough stake for application.\");\n\n\t    createNewListing(_listingHash, msg.sender, _amount,  _roll, _course, _review, _rating);\n\t    createNewCourse(_course, _rating);\n\n        // Transfer tokens from user\n        require(token.transferFrom(msg.sender, address(this), _amount), \"Token transfer failed.\");\n        emit _Application(_listingHash, _amount, strReview(listings[_listingHash].data), msg.sender);\n    }\n\n    // challenges a listing from being whitelisted\n    function challenge(bytes32 _listingHash, uint _amount)\n        external returns (uint challengeId) {\n        Listing storage listing = listings[_listingHash];\n\n        // Listing must be in apply stage or already on the whitelist\n        require(appWasMade(_listingHash) || listing.whitelisted, \"Listing does not exist.\");\n\n        // Prevent multiple challenges\n        require(listing.challengeId == 0 || challenges[listing.challengeId].resolved, \"Listing is already challenged.\");\n\n        // check if apply stage is active\n        /* solium-disable-next-line security/no-block-members */\n        require(listing.applicationExpiry > now, \"Apply stage has passed.\");\n\n        // check if enough amount is staked for challenge\n        require(_amount >= listing.deposit, \"Not enough stake passed for challenge.\");\n\n        pollNonce = pollNonce + 1;\n        challenges[pollNonce] = Challenge({\n            challenger: msg.sender,\n            stake: _amount,\n            resolved: false,\n            totalTokens: 0,\n            rewardPool: 0\n        });\n\n        // create a new poll for the challenge\n        polls[pollNonce] = Poll({\n            votesFor: 0,\n            votesAgainst: 0,\n            passed: false,\n            commitEndDate: now.add(commitStageLen) /* solium-disable-line security/no-block-members */\n        });\n\n        // Updates listingHash to store most recent challenge\n        listing.challengeId = pollNonce;\n\n        // Transfer tokens from challenger\n        require(token.transferFrom(msg.sender, address(this), _amount), \"Token transfer failed.\");\n\n        emit _Challenge(_listingHash, pollNonce, msg.sender);\n        return pollNonce;\n    }\n\n    // commits a vote for/against a listing\n    // plcr voting is not being used here\n    // to keep it simple, we just store the choice as a bool - true is for and false is against\n    function vote(bytes32 _listingHash, uint _amount, bool _choice) public {\n        Listing storage listing = listings[_listingHash];\n\n        // Listing must be in apply stage or already on the whitelist\n        require(appWasMade(_listingHash) || listing.whitelisted, \"Listing does not exist.\");\n\n        // Check if listing is challenged\n        require(listing.challengeId > 0 && !challenges[listing.challengeId].resolved, \"Listing is not challenged.\");\n\n        Poll storage poll = polls[listing.challengeId];\n\n        // check if commit stage is active\n        /* solium-disable-next-line security/no-block-members */\n        require(poll.commitEndDate > now, \"Commit period has passed.\");\n\n        // Transfer tokens from voter\n        require(token.transferFrom(msg.sender, address(this), _amount), \"Token transfer failed.\");\n\n        if(_choice) {\n            poll.votesFor += _amount;\n        } else {\n            poll.votesAgainst += _amount;\n        }\n\n        // TODO: fix vote override when same person is voting again\n        poll.votes[msg.sender] = Vote({\n            value: _choice,\n            stake: _amount,\n            claimed: false\n        });\n\n        emit _Vote(_listingHash, listing.challengeId, msg.sender);\n    }\n\n    // check if the listing can be whitelisted\n    function canBeWhitelisted(bytes32 _listingHash) public view returns (bool) {\n        uint challengeId = listings[_listingHash].challengeId;\n\n        // Ensures that the application was made,\n        // the application period has ended,\n        // the listingHash can be whitelisted,\n        // and either: the challengeId == 0, or the challenge has been resolved.\n        /* solium-disable */\n        if (appWasMade(_listingHash) && \n            listings[_listingHash].applicationExpiry < now && \n            !isWhitelisted(_listingHash) &&\n            (challengeId == 0 || challenges[challengeId].resolved == true)) {\n            return true; \n        }\n\n        return false;\n    }\n\n    // updates the status of a listing\n    function updateStatus(bytes32 _listingHash) public {\n        if (canBeWhitelisted(_listingHash)) {\n            listings[_listingHash].whitelisted = true;\n        } else {\n            resolveChallenge(_listingHash);\n        }\n    }\n\n    // ends a poll and returns if the poll passed or not\n    function endPoll(uint challengeId) private returns (bool didPass) {\n        require(polls[challengeId].commitEndDate > 0, \"Poll does not exist.\");\n        Poll storage poll = polls[challengeId];\n\n        // check if commit stage is active\n        /* solium-disable-next-line security/no-block-members */\n        require(poll.commitEndDate < now, \"Commit period is active.\");\n\n        if (poll.votesFor >= poll.votesAgainst) {\n            poll.passed = true;\n        } else {\n            poll.passed = false;\n        }\n\n        return poll.passed;\n    }\n\n    // resolves a challenge and calculates rewards\n    function resolveChallenge(bytes32 _listingHash) private {\n        // Check if listing is challenged\n        Listing memory listing = listings[_listingHash];\n        require(listing.challengeId > 0 && !challenges[listing.challengeId].resolved, \"Listing is not challenged.\");\n\n        uint challengeId = listing.challengeId;\n\n        // end the poll\n        bool pollPassed = endPoll(challengeId);\n\n        // updated challenge status\n        challenges[challengeId].resolved = true;\n\n        address challenger = challenges[challengeId].challenger;\n\n        // Case: challenge failed\n        if (pollPassed) {\n            challenges[challengeId].totalTokens = polls[challengeId].votesFor;\n            challenges[challengeId].rewardPool = challenges[challengeId].stake + polls[challengeId].votesAgainst;\n            listings[_listingHash].whitelisted = true;\n        } else { // Case: challenge succeeded\n            // give back the challenge stake to the challenger\n            require(token.transfer(challenger, challenges[challengeId].stake), \"Challenge stake return failed.\");\n            challenges[challengeId].totalTokens = polls[challengeId].votesAgainst;\n            challenges[challengeId].rewardPool = listing.deposit + polls[challengeId].votesFor;\n\n\t    //Data memory data = listings[_listingHash].Data;\n\t    string memory courseHash = listings[_listingHash].data.course;\n\t    uint rating = listings[_listingHash].data.rating;\n\t    Course memory temp_course = courses[courseHash];\t\n\t    if (courses[courseHash].numberOfReviews == 1)\n\t\t{delete courses[courseHash];\n\t\tdelete courseNames[temp_course.arrIndex];\n\t\t}\n\t    else {\n\t    courses[courseHash].courseTotal = courses[courseHash].courseTotal  - rating;\n\t    courses[courseHash].numberOfReviews = courses[courseHash].numberOfReviews - 1;\n\t\t}\n        delete listings[_listingHash];\n        delete listingNames[listing.arrIndex];\n\t    delete listingHashes[listing.arrIndex];\n        }\n\n        emit _ResolveChallenge(_listingHash, challengeId, msg.sender);\n    }\n\n    // claim rewards for a vote\n    function claimRewards(uint challengeId) public {\n        // check if challenge is resolved\n        require(challenges[challengeId].resolved == true, \"Challenge is not resolved.\");\n        \n        Poll storage poll = polls[challengeId];\n        Vote storage voteInstance = poll.votes[msg.sender];\n        \n        // check if vote reward is already claimed\n        require(voteInstance.claimed == false, \"Vote reward is already claimed.\");\n\n        // if winning party, calculate reward and transfer\n        if((poll.passed && voteInstance.value) || (!poll.passed && !voteInstance.value)) {\n            uint reward = (challenges[challengeId].rewardPool.mul(voteInstance.stake)).div(challenges[challengeId].totalTokens);\n            uint total = voteInstance.stake.add(reward);\n            require(token.transfer(msg.sender, total), \"Voting reward transfer failed.\");\n            emit _RewardClaimed(challengeId, total, msg.sender);\n        }\n\n        voteInstance.claimed = true;\n    }\n}",
  "sourcePath": "/home/kenrick/demo/TCR-CourseReviews/contracts/tcr.sol",
  "compiler": {
    "name": "solc",
    "version": "0.5.8+commit.23d335f2.Emscripten.clang"
  },
  "schemaVersion": "3.0.2",
  "updatedAt": "2019-10-31T05:23:24.400Z",
  "devdoc": {
    "methods": {}
  },
  "userdoc": {
    "methods": {}
  }
}